:020000040800F2
:1000000000500020F910000891100008931000081B
:1000100095100008971000089910000800000000D3
:100020000000000000000000000000009B1000081D
:100030009D100008000000009F100008A11000089B
:100040004111000841110008411100084111000848
:100050004111000841110008411100084111000838
:100060004111000841110008411100084111000828
:100070004111000841110008411100084111000818
:100080004111000841110008411100084111000808
:1000900041110008411100084111000841110008F8
:1000A00041110008411100084111000841110008E8
:1000B00041110008411100084111000841110008D8
:1000C00041110008411100084111000841110008C8
:1000D00041110008411100084111000841110008B8
:1000E0004111000841110008411100080000000002
:1000F0000000000000000000000000000000000000
:0C01000000000000000000005FF808F1A3
:10010C0010B5054C237833B9044B13B10448AFF345
:10011C0000800123237010BD70100020000000002F
:10012C008C11000808B5034B1BB103490348AFF30E
:10013C00008008BD00000000741000208C11000825
:10014C0010B504460E4B18784FF47A73B3FBF0F3EA
:10015C000C4A1068B0FBF3F000F080F868B90F2C73
:10016C0001D901200AE0002221464FF0FF3000F0B7
:10017C0041F8034B5C60002000E0012010BD00BF83
:10018C00000000206810002008B5074A136843F0EF
:10019C0010031360032000F01BF80020FFF7D0FFC2
:1001AC0000F020FF002008BD00200240034A116827
:1001BC00034B1B780B441360704700BFB01000203A
:1001CC0000000020014B1868704700BFB0100020E1
:1001DC00074AD36823F4E0631B041B0C000200F4F1
:1001EC00E060184340F0BF6040F40030D0607047CE
:1001FC0000ED00E030B4174BDB68C3F30223C3F10E
:10020C000704042C28BF04241D1D062D18D9033BFC
:10021C004FF0FF3505FA04F421EA0401994005FA80
:10022C0003F322EA0303194300280BDB0901C9B2CB
:10023C0000F1604000F5614080F8001330BC70475D
:10024C000023E5E700F00F000901C9B2024B195475
:10025C00F4E700BF00ED00E014ED00E00138B0F170
:10026C00807F0AD2064B5860064AF02182F8231090
:10027C000020986007221A6070470120704700BF69
:10028C0010E000E000ED00E0042805D0054A1368FA
:10029C0023F0040313607047024A136843F004030D
:1002AC001360704710E000E0704708B5FFF7FCFFE3
:1002BC0008BD0000F0B482B000263546A1E0002C49
:1002CC0059D0012C00D1CE68FF2B68D88446FF2B67
:1002DC0068D8AC00DCF800200F27A74022EA070200
:1002EC0006FA04F42243CCF800204A6812F0805F2E
:1002FC0000F086805E4A946944F00104946192692E
:10030C0002F001020192019AAC08A71C594A52F85A
:10031C00272005F00307BF004FF00F0C0CFA07FC69
:10032C0022EA0C0C544A904242D002F58062904270
:10033C007FD002F5806290427DD002F580629042BF
:10034C0034D0042235E04D4FBC4214D00BD94C4F65
:10035C00BC4210D007F58037BC420CD0A7F58017F3
:10036C00BC42B1D107E0A7F58017BC4203D007F51A
:10037C008037BC42A8D18C687CB1012C08D042617A
:10038C000826A1E7CE6808369EE7CE680C369BE7B8
:10039C000261082698E7002696E7042694E700F108
:1003AC00040C94E7A5F10804A40093E7032200E0F1
:1003BC000022BA4042EA0C0202342E4F47F82420A5
:1003CC004A6812F4803F38D02E4C22681A432260BF
:1003DC004A6812F4003F36D02A4C62681A436260B5
:1003EC004A6812F4801F34D0264CA2681A43A260CB
:1003FC004A6812F4001F32D0224CE2681343E360C7
:10040C0001350F2D31D80122AA400B6813409A42B6
:10041C00F6D14C68122CB8D095D8022CB2D07FF6FD
:10042C004EAF032CB7D0112C7FF44EAFCE680436F0
:10043C004AE70122BDE70222BBE7124C226822EAFE
:10044C0003022260C4E70F4C626822EA0302626076
:10045C00C6E70C4CA26822EA0302A260C8E7094C6A
:10046C00E26822EA0303E360CAE702B0F0BC70471B
:10047C000010024000000140000801400000211063
:10048C0000003110000401408368194201D10020A2
:10049C0070470120704712B909040161704701616E
:1004AC007047000082B0084B1B68084AA2FB03236C
:1004BC005B0A00FB03F0019000BF019B5A1E0192E6
:1004CC00002BF9D102B0704768100020D34D621098
:1004DC0070B582B00446036813F0010F2CD0AB4BFF
:1004EC005B6803F00C03042B1DD0A84B5B6803F076
:1004FC000C03082B12D06368B3F5803F41D0002B5E
:10050C0055D103F1804303F504331A6822F4803289
:10051C001A601A6822F480221A6037E09B4B5B68E1
:10052C0013F4803FE7D0994B1B6813F4003F03D0C2
:10053C006368002B00F0AE81236813F0020F76D0B5
:10054C00924B5B6813F00C0F5FD0904B5B6803F021
:10055C000C03082B54D02369002B00F08A808C4BA1
:10056C0001221A60FFF72EFE0546884B1B6813F01C
:10057C00020F75D1FFF726FE401B0228F5D9032088
:10058C008BE1824A136843F480331360636843B38E
:10059C00FFF718FE05467D4B1B6813F4003FCBD1CB
:1005AC00FFF710FE401B6428F5D9032075E1B3F565
:1005BC00A02F09D0754B1A6822F480321A601A6881
:1005CC0022F480221A60E1E703F18043A3F53C3367
:1005DC001A6842F480221A601A6842F480321A6057
:1005EC00D4E7FFF7EFFD0546684B1B6813F4003F9B
:1005FC00A2D0FFF7E7FD401B6428F5D903204CE19E
:10060C00624B5B6813F4803FA5D1604B1B6813F001
:10061C00020F04D02369012B01D001203DE15B4A7C
:10062C00136823F0F803616943EAC103136023687C
:10063C0013F0080F32D0A369002B5BD0554B01226D
:10064C001A60FFF7BFFD0546504B5B6A13F0020FB3
:10065C0021D1FFF7B7FD401B0228F5D903201CE17F
:10066C004A4A136823F0F803616943EAC103136033
:10067C00DDE7474B00221A60FFF7A4FD0546434B0C
:10068C001B6813F0020FD2D0FFF79CFD401B022811
:10069C00F5D9032001E10120FFF704FF236813F0D3
:1006AC00040F00F09780394BDB6913F0805F33D176
:1006BC00364BDA6942F08052DA61DB6903F0805321
:1006CC000193019B0125344B1B6813F4807F25D0CB
:1006DC00E368012B36D0002B4CD103F1804303F59A
:1006EC0004331A6A22F001021A621A6A22F0040216
:1006FC001A622CE0274B00221A60FFF763FD0546B7
:10070C00224B5B6A13F0020FC8D0FFF75BFD401B56
:10071C000228F5D90320C0E00025D4E71E4A13684F
:10072C0043F480731360FFF74DFD06461A4B1B68AC
:10073C0013F4807FCCD1FFF745FD801B6428F5D9DD
:10074C000320AAE0114A136A43F001031362E36821
:10075C0073B3FFF737FD06460C4B1B6A13F0020F01
:10076C0037D1FFF72FFD801B41F288339842F3D924
:10077C00032092E0052B11D0044B1A6A22F00102DF
:10078C001A621A6A22F004021A62E0E700100240B0
:10079C00000042428004424200700040414B1A6A01
:1007AC0042F004021A621A6A42F001021A62CEE79F
:1007BC00FFF708FD06463B4B1B6A13F0020F08D0EF
:1007CC00FFF700FD801B41F288339842F3D90320D8
:1007DC0063E0E5B9E369002B5ED0324A526802F05F
:1007EC000C02082A5BD0022B17D02F4B00221A6068
:1007FC00FFF7E8FC04462B4B1B6813F0007F47D037
:10080C00FFF7E0FC001B0228F5D9032045E0254A40
:10081C00D36923F08053D361DCE7234B00221A60A9
:10082C00FFF7D0FC05461F4B1B6813F0007F06D06A
:10083C00FFF7C8FC401B0228F5D903202DE0236AE2
:10084C00B3F5803F1AD017494B6823F47413226A0E
:10085C00606A024313434B60134B01221A60FFF78B
:10086C00B1FC04460F4B1B6813F0007F0ED1FFF751
:10087C00A9FC001B0228F5D903200EE0094A536895
:10088C0023F40033A1680B435360DCE7002004E041
:10089C00002002E0012000E0002002B070BD012029
:1008AC00FBE700BF001002406000424210B487B06A
:1008BC00164C94E80F000DF1180C0CE90F00238A6C
:1008CC00ADF80430124B5B6803F00C02082A1AD105
:1008DC00C3F38342624412F8102C13F4803F05D109
:1008EC000C4800FB02F007B010BC7047084B5B686B
:1008FC00C3F34043634413F8143C074800FB02F075
:10090C00B0FBF3F0EFE70448EDE700BFA4110008DB
:10091C000010024000093D0000127A00594B1B6880
:10092C0003F007038B420CD2564A136823F00703DB
:10093C000B431360136803F007038B4201D00120B3
:10094C00704770B5036813F0020F06D04E4A536817
:10095C0023F0F0038468234353600C460546036878
:10096C0013F0010F52D04368012B23D0022B28D057
:10097C00454A126812F0020F00F0828042494A6820
:10098C0022F0030213434B60FFF71CFC06466B6816
:10099C00012B1DD0022B2AD03B4B5B6813F00C0FA4
:1009AC0034D0FFF70FFC801B41F288339842F3D907
:1009BC00032064E0344A126812F4003FDED10120B7
:1009CC005DE0314A126812F0007FD7D1012056E069
:1009DC002D4B5B6803F00C03042B17D0FFF7F2FBD5
:1009EC00801B41F288339842F2D9032047E0264B12
:1009FC005B6803F00C03082B08D0FFF7E3FB801BAC
:100A0C0041F288339842F2D9032038E01D4B1B6821
:100A1C0003F00703A3420CD91A4A136823F0070307
:100A2C0023431360136803F00703A34201D0012092
:100A3C0025E02B6813F0040F06D0134A536823F4F7
:100A4C00E063E9680B4353602B6813F0080F07D081
:100A5C000D4A536823F46053296943EAC103536078
:100A6C00FFF724FF084B5B68C3F30313074AD35CFF
:100A7C00D840074B18600020FFF762FB002070BDC8
:100A8C000120FCE70020024000100240B8110008D1
:100A9C0068100020014B1868704700BF68100020D8
:100AAC0001EB0011014B53F8310070470800002096
:100ABC0030B589B01D4B9A6942F020029A619A694F
:100ACC0002F020020192019A9A6942F008029A619E
:100ADC009A6902F008020292029A9A6942F00402A0
:100AEC009A619B6903F004030393039B104D00224E
:100AFC004FF4B0512846FFF7CEFC4FF4004304935B
:100B0C0000240594069404A90A48FFF7D3FB4FF47C
:100B1C00B05304930123059306940223079304A96D
:100B2C002846FFF7C7FB09B030BD00BF00100240DC
:100B3C0000080140000C0140012907D021B900EB4D
:100B4C004000054B184443781846704700EB4000B2
:100B5C00014B18448378F7E73808002010B5074C90
:100B6C0000224FF400712046FFF795FC01224FF450
:100B7C0000712046FFF78FFC10BD00BF000801403C
:100B8C00064B00200021C3E90001C3E90201C3E9BF
:100B9C00040100229A611A77704700BF9010002060
:100BAC002DE9304800251BE001224FF480610E48EE
:100BBC00FFF771FCFFF7D2FF0C4C0121207FFFF7F0
:100BCC00BBFF2077A36901229A40D4E9000140EAD7
:100BDC00020B41EAE27CC4E900BC0133A36101359C
:100BEC00042DE1DDBDE830880008014090100020A4
:100BFC002DE9784804460E4625E031462046FFF79D
:100C0C004FFF0546C2B24FF480611148FFF743FC19
:100C1C00FFF7A4FF29462046FFF78EFF0D4B1877F0
:100C2C009A699540D3E9000140EA050B41EAE57C5D
:100C3C00C3E900BC01329A6106EB0414064B03EBCA
:100C4C00C40494F83440B442D7D1BDE8788800BFCE
:100C5C0000080140901000203808002038B50546E7
:100C6C000F4CCAB24FF480612046FFF714FCEAB275
:100C7C004FF480512046FFF70EFC01224FF4007117
:100C8C002046FFF708FC00224FF400712046FFF7C6
:100C9C0002FC4FF400410348FFF7F6FB38BD00BFE0
:100CAC0000080140000C01402DE9F04F89B0CDE95E
:100CBC00020100230024CDE906340025A946059243
:100CCC005AE0029B03F0010A00215046FFF7C6FFD1
:100CDC008046C5170021574B187FFFF72DFF554B4A
:100CEC0018779969A1F12002C1F1200305FA01F0EE
:100CFC0008FA02F2104328FA03F302461A4301924F
:100D0C0008FA01F300934B48D0E90423DDE900BC59
:100D1C004BEA020B4CEA030C5A466346C0E9042327
:100D2C00A9F12002C9F1200305FA09F708FA02F229
:100D3C00174328FA03F31F4308FA09F6DDE90623E3
:100D4C0032433B43CDE906230AFA01FAD0E90223E8
:100D5C0042EA0A0443EAEA75C0E9024501318161BD
:100D6C00DDE9023464084FEA3303CDE9023409F1BA
:100D7C000109059B013B0593059B012BA1DC4D460D
:100D8C00029B03F0010401212046FFF767FF804618
:100D9C00C717DFF8A090012199F81C00FFF7CCFED3
:100DAC0089F81C00D9F818C0ACF12002CCF1200352
:100DBC0007FA0CF108FA02F2114328FA03F319436B
:100DCC0008FA0CF0D9E9042342EA000A43EA010BC1
:100DDC00C9E904ABA5F12002C5F1200307FA05F11E
:100DEC0008FA02F2114328FA03F3194308FA05F042
:100DFC0004FA0CF4D9E9022342EA040543EAE47646
:100E0C00C9E90256012404FA0CF4D9E9002342EA98
:100E1C00040543EAE476C9E900560CF10103C9F86C
:100E2C001830DDE9063403430C431846214609B05B
:100E3C00BDE8F08F9010002038B504460D46FFF742
:100E4C00AFFE0B210020FFF7D3FE2A462046E11708
:100E5C00FFF72AFF01210C20FFF7CAFE38BD70B541
:100E6C0004460D46164604210120FFF7C1FE32460A
:100E7C0020462946FFF718FF04460D4601210520A0
:100E8C00FFF7B6FE2046294670BD38B514461D4600
:100E9C00FFF7D2FFFFF774FE2A462046E117FFF753
:100EAC00DEFF38BD08B5FFF7C7FF40224FF0FF301B
:100EBC004FF0FF31FFF7F8FE08BD38B5FFF770FEB5
:100ECC0004210020FFF794FE40224FF0FF304FF03A
:100EDC00FF31FFF7E9FE04460D4601210520FFF71F
:100EEC0087FE2046294638BDFEE7000000B591B0CC
:100EFC00012206924FF4803307934FF4003108918E
:100F0C000A9202220D920E934FF430130F9306A8FF
:100F1C00FFF7DEFA08BB0F23019302210291002395
:100F2C0003934FF480620492059301A8FFF7F6FC3B
:100F3C00C0B9FFF7AFFD0E4BA3FB00308009FFF7E4
:100F4C008DF90420FFF7A0F9002211464FF0FF3075
:100F5C00FFF750F911B05DF804FB40F2652105482C
:100F6C00FFF7C2FF40F273210248FFF7BDFF00BF3D
:100F7C00D34D6210D011000830B583B00024002589
:100F8C00CDE90045FFF700F9FFF7B0FFFFF790FD43
:100F9C00FFF793FFCDE90001CDE90045FFF7F0FD28
:100FAC0009211120FFF77EFFCDE90001FFF7E8FDD5
:100FBC000923F022194640F2FF10FFF766FFCDE936
:100FCC000001FFF7DDFD092140F2FF10FFF734FFB0
:100FDC00092271200021FFF767FECDE90001FFF720
:100FEC00CFFDFEE700B583B0244B9A6942F00102B5
:100FFC009A619A6902F001020092009ADA6942F051
:10100C008052DA61DB6903F080530193019B03206A
:10101C00FFF7DEF8002211466FF00B00FFF7EAF83D
:10102C00002211466FF00A00FFF7E4F80022114687
:10103C006FF00900FFF7DEF8002211466FF0040094
:10104C00FFF7D8F8002211466FF00300FFF7D2F833
:10105C00002211466FF00100FFF7CCF80022114678
:10106C004FF0FF30FFF7C6F8054A536823F0E063F2
:10107C0043F00073536003B05DF804FB00100240B2
:10108C00000001407047FEE7FEE7FEE7FEE7704711
:10109C007047704708B5FFF789F8FFF706F908BDE8
:1010AC000F4B1A6842F001021A6059680D4A0A4047
:1010BC005A601A6822F0847222F480321A601A681C
:1010CC0022F480221A605A6822F4FE025A604FF40D
:1010DC001F029A60044B4FF000629A60704700BF89
:1010EC00001002400000FFF800ED00E0002103E0DA
:1010FC000B4B5B58435004310A480B4B42189A4235
:10110C00F6D30A4A02E0002342F8043B084B9A4209
:10111C00F9D3FFF7C5FF00F00FF8FFF72DFF70476D
:10112C00E8110008000000206C1000207010002056
:10113C00B4100020FEE7000070B500250C4E0D4CDD
:10114C00A41BA410A54209D100F01AF800250A4EE0
:10115C000A4CA41BA410A54205D170BD56F825302D
:10116C0098470135EEE756F8253098470135F2E7F8
:10117C00E0110008E0110008E0110008E41100087B
:10118C00F8B500BFF8BC08BC9E467047F8B500BF68
:08119C00F8BC08BC9E46704738
:1011A40002030405060708090A0B0C0D0E0F1010A4
:1011B400010200000000000000000000010203041E
:1011C4000607080900000000010203042E2E2F5315
:0C11D40072632F6D61696E2E63000000D5
:0411E00031010008D1
:0411E4000D010008F1
:1011E80001000000100000000100000000000000E5
:1011F80000000000010000000000000001000000E5
:1012080000000000010000000000000001000000D4
:1012180000000000010000000000000001000000C4
:1012280000000000010000000000000001000000B4
:1012380000000000010000000000000001000000A4
:101248000000000001000000000000000100000094
:101258000000000001000000000000000100000084
:101268000000000001000000010000000200000072
:101278000000000001000000010000000200000062
:101288000100000002000000010000000200000050
:101298000100000002000000010000000200000040
:1012A8000100000002000000010000000200000030
:1012B8000100000002000000010000000200000020
:1012C8000100000002000000010000000200000010
:1012D8000100000002000000010000000200000000
:1012E80001000000020000000100000009000000E9
:1012F80001000000090000001000000010000000BC
:1013080000000000030000000000000003000000CF
:1013180000000000030000000000000003000000BF
:1013280000000000030000000000000003000000AF
:101338000100000009000000010000000900000091
:101348000100000009000000010000000900000081
:101358000100000009000000010000000900000071
:101368000100000009000000010000000500000065
:101378000100000005000000010000000500000059
:101388001000000010000000000000000400000031
:101398000100000005000000010000000500000039
:1013A8000100000005000000010000000500000029
:1013B8000100000005000000010000000500000019
:1013C8000100000005000000010000000500000009
:1013D80001000000050000000100000005000000F9
:1013E80001000000050000000100000005000000E9
:1013F80001000000050000000100000005000000D9
:1014080001000000050000000000000004000000CA
:1014180001000000050000000100000005000000B8
:1014280001000000050000000100000005000000A8
:101438000100000005000000010000000500000098
:101448000100000005000000010000000500000088
:101458000100000005000000010000000500000078
:101468000100000005000000010000000800000065
:101478000100000008000000010000000800000052
:101488000100000008000000000000000600000045
:10149800100000001000000000000000060000001E
:1014A8000000000006000000010000000800000025
:1014B8000100000008000000010000000800000012
:1014C8000100000008000000010000000800000002
:1014D80001000000080000000100000008000000F2
:1014E80001000000080000000100000007000000E3
:1014F80001000000070000000100000007000000D4
:1015080001000000070000000100000007000000C3
:1015180001000000070000000000000006000000B5
:1015280001000000070000000100000007000000A3
:101538000100000007000000010000000700000093
:101548000100000007000000010000000700000083
:101558000100000007000000010000000700000073
:101568000100000007000000010000000800000062
:101578000100000008000000010000000800000051
:101588000100000008000000000000000400000046
:10159800000000000400000000000000040000003B
:1015A800100000001000000001000000080000000A
:1015B8000100000008000000010000000800000011
:1015C8000100000008000000010000000800000001
:1015D80001000000080000000100000008000000F1
:1015E80001000000080000000100000002000000E7
:1015F80000000000010000000100000002000000DF
:1016080001000000020000000100000002000000CC
:1016180001000000020000000100000002000000BC
:10162800010000000200000010000000100000008F
:10163800010000000200000001000000020000009C
:10164800010000000200000001000000020000008C
:10165800010000000200000001000000020000007C
:10166800010000000200000001000000000000006E
:101678000100000000000000010000000000000060
:101688000100000000000000010000000000000050
:101698000100000000000000010000000000000040
:1016A8000100000000000000010000000000000030
:1016B8001000000010000000000000000A000000F8
:1016C800000000000A000000000000000A000000FE
:1016D800000000000A000000000000000A000000EE
:1016E800000000000A0000000100000005000000E2
:1016F80001000000050000000100000005000000D6
:1017080001000000050000000100000005000000C5
:10171800010000000C000000010000000C000000A7
:10172800010000000C000000010000000C00000097
:10173800010000000C000000100000001000000074
:10174800000000000B000000010000000C00000079
:10175800010000000C000000010000000C00000067
:10176800010000000C000000010000000C00000057
:10177800010000000C000000010000000C00000047
:10178800010000000C000000010000000C00000037
:10179800010000000C000000010000000C00000027
:1017A800010000000C000000010000000C00000017
:1017B800010000000C000000010000000C00000007
:1017C800000000000B000000010000000C000000F9
:1017D800010000000C000000010000000C000000E7
:1017E800010000000C000000010000000F000000D4
:1017F800010000000F000000010000000F000000C1
:10180800010000000F000000010000000F000000B0
:10181800010000000F000000010000000F000000A0
:10182800010000000F000000010000000F00000090
:10183800010000000F000000010000000F00000080
:10184800010000000F000000010000000F00000070
:10185800000000000D000000000000000D00000066
:10186800010000000F000000010000000E00000051
:10187800010000000E000000010000000E00000042
:10188800010000000E000000010000000E00000032
:10189800010000000E000000010000000E00000022
:1018A800010000000E000000010000000E00000012
:1018B800010000000E000000010000000E00000002
:1018C800010000000E000000010000000E000000F2
:1018D800000000000D000000010000000E000000E4
:1018E800010000000E000000010000000F000000D1
:1018F800010000000F000000010000000F000000C0
:10190800010000000F000000010000000F000000AF
:10191800010000000F000000010000000F0000009F
:10192800010000000F000000010000000F0000008F
:10193800010000000F000000010000000F0000007F
:10194800000000000B000000000000000B00000079
:10195800000000000B000000010000000F00000064
:10196800010000000F00000001000000020000005C
:10197800000000000100000001000000020000005B
:101988000100000002000000010000000200000049
:101998000100000002000000010000000200000039
:1019A8000100000002000000010000000200000029
:1019B8000100000002000000010000000200000019
:1019C8000100000002000000010000000200000009
:1019D80001000000020000000100000002000000F9
:1019E80010000000100000000001000101020203C5
:1019F8000903040504040505060806060707040884
:101A0800080102090A000A0B0C0B0B0C0C0D0F0D38
:101A18000D0E0E0B0F0F010200010001010202035F
:101A28000903040504040505060806060707040853
:101A3800080102090A000A0B0C0B0B0C0C0D0F0D08
:101A48000D0E0E0B0F0F0102010000000000000038
:101A5800000000000100000000000000010000007C
:101A6800000000000100000000000000010000006C
:101A7800000000000100000000000000010000005C
:101A8800000000000100000000000000010000004C
:101A9800000000000100000000000000010000003C
:101AA800000000000100000000000000010000002C
:101AB800000000000100000000000000010000001C
:101AC800000000000100000001000000020000000A
:101AD80000000000010000000100000002000000FA
:101AE80001000000020000000100000002000000E8
:101AF80001000000020000000100000002000000D8
:101B080001000000020000000100000002000000C7
:101B180001000000020000000100000002000000B7
:101B280001000000020000000100000002000000A7
:101B38000100000002000000010000000200000097
:101B48000100000002000000010000000900000080
:101B58000100000009000000100000001000000053
:101B68000000000003000000000000000300000067
:101B78000000000003000000000000000300000057
:101B88000000000003000000000000000300000047
:101B98000100000009000000010000000900000029
:101BA8000100000009000000010000000900000019
:101BB8000100000009000000010000000900000009
:101BC80001000000090000000100000005000000FD
:101BD80001000000050000000100000005000000F1
:101BE80010000000100000000000000004000000C9
:101BF80001000000050000000100000005000000D1
:101C080001000000050000000100000005000000C0
:101C180001000000050000000100000005000000B0
:101C280001000000050000000100000005000000A0
:101C38000100000005000000010000000500000090
:101C48000100000005000000010000000500000080
:101C58000100000005000000010000000500000070
:101C68000100000005000000000000000400000062
:101C78000100000005000000010000000500000050
:101C88000100000005000000010000000500000040
:101C98000100000005000000010000000500000030
:101CA8000100000005000000010000000500000020
:101CB8000100000005000000010000000500000010
:101CC80001000000050000000100000008000000FD
:101CD80001000000080000000100000008000000EA
:101CE80001000000080000000000000006000000DD
:101CF80010000000100000000000000006000000B6
:101D080000000000060000000100000008000000BC
:101D180001000000080000000100000008000000A9
:101D28000100000008000000010000000800000099
:101D38000100000008000000010000000800000089
:101D4800010000000800000001000000070000007A
:101D5800010000000700000001000000070000006B
:101D6800010000000700000001000000070000005B
:101D7800010000000700000000000000060000004D
:101D8800010000000700000001000000070000003B
:101D9800010000000700000001000000070000002B
:101DA800010000000700000001000000070000001B
:101DB800010000000700000001000000070000000B
:101DC80001000000070000000100000008000000FA
:101DD80001000000080000000100000008000000E9
:101DE80001000000080000000000000004000000DE
:101DF80000000000040000000000000004000000D3
:101E080010000000100000000100000008000000A1
:101E180001000000080000000100000008000000A8
:101E28000100000008000000010000000800000098
:101E38000100000008000000010000000800000088
:101E4800010000000800000001000000020000007E
:101E58000000000001000000010000000200000076
:101E68000100000002000000010000000200000064
:101E78000100000002000000010000000200000054
:101E88000100000002000000100000001000000027
:101E98000100000002000000010000000200000034
:101EA8000100000002000000010000000200000024
:101EB8000100000002000000010000000200000014
:101EC8000100000002000000010000000000000006
:101ED80001000000000000000100000000000000F8
:101EE80001000000000000000100000000000000E8
:101EF80001000000000000000100000000000000D8
:101F080001000000000000000100000000000000C7
:101F18001000000010000000000000000A0000008F
:101F2800000000000A000000000000000A00000095
:101F3800000000000A000000000000000A00000085
:101F4800000000000A000000010000000500000079
:101F5800010000000500000001000000050000006D
:101F6800010000000500000001000000050000005D
:101F7800010000000C000000010000000C0000003F
:101F8800010000000C000000010000000C0000002F
:101F9800010000000C00000010000000100000000C
:101FA800000000000B000000010000000C00000011
:101FB800010000000C000000010000000C000000FF
:101FC800010000000C000000010000000C000000EF
:101FD800010000000C000000010000000C000000DF
:101FE800010000000C000000010000000C000000CF
:101FF800010000000C000000010000000C000000BF
:10200800010000000C000000010000000C000000AE
:10201800010000000C000000010000000C0000009E
:10202800000000000B000000010000000C00000090
:10203800010000000C000000010000000C0000007E
:10204800010000000C000000010000000F0000006B
:10205800010000000F000000010000000F00000058
:10206800010000000F000000010000000F00000048
:10207800010000000F000000010000000F00000038
:10208800010000000F000000010000000F00000028
:10209800010000000F000000010000000F00000018
:1020A800010000000F000000010000000F00000008
:1020B800000000000D000000000000000D000000FE
:1020C800010000000F000000010000000E000000E9
:1020D800010000000E000000010000000E000000DA
:1020E800010000000E000000010000000E000000CA
:1020F800010000000E000000010000000E000000BA
:10210800010000000E000000010000000E000000A9
:10211800010000000E000000010000000E00000099
:10212800010000000E000000010000000E00000089
:10213800000000000D000000010000000E0000007B
:10214800010000000E000000010000000F00000068
:10215800010000000F000000010000000F00000057
:10216800010000000F000000010000000F00000047
:10217800010000000F000000010000000F00000037
:10218800010000000F000000010000000F00000027
:10219800010000000F000000010000000F00000017
:1021A800000000000B000000000000000B00000011
:1021B800000000000B000000010000000F000000FC
:1021C800010000000F0000000100000002000000F4
:1021D80000000000010000000100000002000000F3
:1021E80001000000020000000100000002000000E1
:1021F80001000000020000000100000002000000D1
:1022080001000000020000000100000002000000C0
:1022180001000000020000000100000002000000B0
:1022280001000000020000000100000002000000A0
:102238000100000002000000010000000200000090
:0C224800100000001000000000A24A047A
:04000005080010F9E6
:00000001FF
