:020000040800F2
:1000000000500020E12000086D2000086F2000084B
:10001000712000087320000875200008000000000F
:100020000000000000000000000000007720000831
:1000300079200008000000007B2000087D200008D7
:100040002921000829210008292100082921000868
:100050002921000829210008292100082921000858
:100060002921000829210008292100082921000848
:100070002921000829210008292100082921000838
:100080002921000829210008292100082921000828
:100090002921000829210008292100082921000818
:1000A00029210008852000082921000829210008AD
:1000B00029210008292100082921000829210008F8
:1000C00029210008292100082921000829210008E8
:1000D00029210008292100082921000829210008D8
:1000E000292100082921000829210008000000001A
:1000F0000000000000000000000000000000000000
:0C01000000000000000000005FF808F1A3
:10010C0010B5054C237833B9044B13B10448AFF345
:10011C0000800123237010BD401800200000000057
:10012C00282C000808B5034B1BB103490348AFF357
:10013C00008008BD0000000044180020282C000896
:10014C0053B94AB9002908BF00281CBF4FF0FF3132
:10015C004FF0FF3000F074B9ADF1080C6DE904CE2E
:10016C0000F006F8DDF804E0DDE9022304B0704786
:10017C002DE9F0478C460446089E002B4BD18A4251
:10018C00154667D9B2FA82F24AB1C2F1200701FAD8
:10019C0002F320FA07F7954047EA030C94404FEA24
:1001AC00154EBCFBFEF71FFA85F80EFB17C307FBB9
:1001BC0008F9210C41EA0343994509D9EB1807F1D9
:1001CC00FF3180F01C81994540F21981023F2B448C
:1001DC00A3EB0903B3FBFEF00EFB103300FB08F19D
:1001EC00A4B244EA0344A14209D92C1900F1FF330B
:1001FC0080F00781A14240F2048102382C4440EA8D
:10020C0007400027641A1EB10023D440C6E90043FE
:10021C003946BDE8F0878B4209D9002E00F0EC80FE
:10022C000027C6E9000138463946BDE8F087B3FA25
:10023C0083F7002F48D18B4202D3824200F2FB801D
:10024C00841A61EB030301209C46002EE0D0C6E922
:10025C00004CDDE702B9FFDEB2FA82F2002A40F070
:10026C008F800127491B4FEA15481FFA85F9B1FB0E
:10027C00F8FE08FB1E1109FB0EF04FEA144C4CEA79
:10028C000143984207D9EB180EF1FF3102D2984284
:10029C0000F2CD808E461B1AB3FBF8F008FB10332E
:1002AC0009FB00F9A4B244EA0344A14507D92C196F
:1002BC0000F1FF3302D2A14500F2B6801846A4EB40
:1002CC00090440EA0E409EE7C7F12005BB4022FA24
:1002DC0005FC4CEA030C21FA05F44FEA1C4EB4FB66
:1002EC00FEF91FFA8CF80EFB194420FA05F3B940FD
:1002FC0009FB08FA19430B0C43EA0444A24502FA21
:10030C0007F200FA07F30BD91CEB040409F1FF30D8
:10031C0080F08880A24540F28580A9F102096444EE
:10032C00A4EB0A04B4FBFEF00EFB104400FB08FA2D
:10033C0089B241EA0444A24508D91CEB040400F13B
:10034C00FF316BD2A24569D90238644440EA0940B6
:10035C00A0FB0289A4EB0A044C454146CE4654D37B
:10036C0051D0002E69D05A1A64EB0E0404FA05F52C
:10037C0022FA07F3FC401D43C6E90054002747E767
:10038C009540C2F1200321FA03F04FEA1548B0FB67
:10039C00F8F71FFA85F908FB170024FA03F39140CC
:1003AC0007FB09FC0B43190C41EA00418C4504FA8C
:1003BC0002F407D9691807F1FF3031D28C452FD9D7
:1003CC00023F2944A1EB0C01B1FBF8F008FB101C17
:1003DC0000FB09FE99B241EA0C418E4507D9691818
:1003EC0000F1FF3318D28E4516D902382944A1EBFF
:1003FC000E0140EA07473AE73746304608E70F4612
:10040C00E6E61846FBE64345ABD2B8EB020169EBD6
:10041C000C0201389646A4E71846E8E7084695E72B
:10042C000746CFE781467BE702382C4447E7AEF11D
:10043C00020E2B442FE7384607E73746E8E600BFA5
:10044C00704700BF08B5074A136843F010031360E8
:10045C00032000F01BF8002001F0C6FD01F03EFD6A
:10046C00002008BD00200240034A1168034B1B7892
:10047C000B441360704700BF6C2400200000002068
:10048C00014B1868704700BF6C240020074AD368E2
:10049C0023F4E0631B041B0C000200F4E06018431F
:1004AC0040F0BF6040F40030D060704700ED00E0D9
:1004BC0030B4174BDB68C3F30223C3F10704042CDD
:1004CC0028BF04241D1D062D18D9033B4FF0FF3502
:1004DC0005FA04F421EA0401994005FA03F322EA2F
:1004EC000303194300280BDB0901C9B200F160407A
:1004FC0000F5614080F8001330BC70470023E5E73D
:10050C0000F00F000901C9B2024B1954F4E700BF07
:10051C0000ED00E014ED00E000F01F0240090123A3
:10052C009340024A42F82030704700BF00E100E0DF
:10053C000138B0F1807F0AD2064B5860064AF02190
:10054C0082F823100020986007221A60704701205F
:10055C00704700BF10E000E000ED00E0042805D07B
:10056C00054A136823F0040313607047024A1368AA
:10057C0043F004031360704710E000E0704708B5C7
:10058C00FFF7FCFF08BD0000F0B482B00026354632
:10059C00A1E0002C59D0012C00D1CE68FF2B68D8DB
:1005AC008446FF2B68D8AC00DCF800200F27A7404E
:1005BC0022EA070206FA04F42243CCF800204A6827
:1005CC0012F0805F00F086805E4A946944F001046A
:1005DC009461926902F001020192019AAC08A71C85
:1005EC00594A52F8272005F00307BF004FF00F0CB3
:1005FC000CFA07FC22EA0C0C544A904242D002F549
:10060C00806290427FD002F5806290427DD002F5EC
:10061C008062904234D0042235E04D4FBC4214D05D
:10062C000BD94C4FBC4210D007F58037BC420CD0D4
:10063C00A7F58017BC42B1D107E0A7F58017BC42E3
:10064C0003D007F58037BC42A8D18C687CB1012C53
:10065C0008D042610826A1E7CE6808369EE7CE682E
:10066C000C369BE70261082698E7002696E70426DD
:10067C0094E700F1040C94E7A5F10804A40093E7B7
:10068C00032200E00022BA4042EA0C0202342E4F50
:10069C0047F824204A6812F4803F38D02E4C226848
:1006AC001A4322604A6812F4003F36D02A4C626822
:1006BC001A4362604A6812F4801F34D0264CA26838
:1006CC001A43A2604A6812F4001F32D0224CE2682E
:1006DC001343E36001350F2D31D80122AA400B687A
:1006EC0013409A42F6D14C68122CB8D095D8022CF3
:1006FC00B2D07FF64EAF032CB7D0112C7FF44EAF97
:10070C00CE6804364AE70122BDE70222BBE7124C51
:10071C00226822EA03022260C4E70F4C626822EAD4
:10072C0003026260C6E70C4CA26822EA0302A260D4
:10073C00C8E7094CE26822EA0303E360CAE702B0A7
:10074C00F0BC70470010024000000140000801405E
:10075C000000211000003110000401408368194290
:10076C0001D1002070470120704712B909040161C2
:10077C00704701617047000082B0084B1B68084A43
:10078C00A2FB03235B0A00FB03F0019000BF019B5B
:10079C005A1E0192002BF9D102B070476C16002042
:1007AC00D34D621070B582B00446036813F0010F8C
:1007BC002CD0AB4B5B6803F00C03042B1DD0A84B67
:1007CC005B6803F00C03082B12D06368B3F5803F11
:1007DC0041D0002B55D103F1804303F504331A6843
:1007EC0022F480321A601A6822F480221A6037E0F0
:1007FC009B4B5B6813F4803FE7D0994B1B6813F459
:10080C00003F03D06368002B00F0AE81236813F027
:10081C00020F76D0924B5B6813F00C0F5FD0904BAD
:10082C005B6803F00C03082B54D02369002B00F0F9
:10083C008A808C4B01221A60FFF722FE0546884BFA
:10084C001B6813F0020F75D1FFF71AFE401B02282C
:10085C00F5D903208BE1824A136843F4803313608B
:10086C00636843B3FFF70CFE05467D4B1B6813F41E
:10087C00003FCBD1FFF704FE401B6428F5D90320C1
:10088C0075E1B3F5A02F09D0754B1A6822F48032AC
:10089C001A601A6822F480221A60E1E703F180439F
:1008AC00A3F53C331A6842F480221A601A6842F4A9
:1008BC0080321A60D4E7FFF7E3FD0546684B1B68EE
:1008CC0013F4003FA2D0FFF7DBFD401B6428F5D9E1
:1008DC0003204CE1624B5B6813F4803FA5D1604B65
:1008EC001B6813F0020F04D02369012B01D00120E7
:1008FC003DE15B4A136823F0F803616943EAC103E5
:10090C001360236813F0080F32D0A369002B5BD05F
:10091C00554B01221A60FFF7B3FD0546504B5B6A3D
:10092C0013F0020F21D1FFF7ABFD401B0228F5D9C4
:10093C0003201CE14A4A136823F0F803616943EA77
:10094C00C1031360DDE7474B00221A60FFF798FDE7
:10095C000546434B1B6813F0020FD2D0FFF790FDF6
:10096C00401B0228F5D9032001E10120FFF704FF09
:10097C00236813F0040F00F09780394BDB6913F0F8
:10098C00805F33D1364BDA6942F08052DA61DB6931
:10099C0003F080530193019B0125344B1B6813F426
:1009AC00807F25D0E368012B36D0002B4CD103F18E
:1009BC00804303F504331A6A22F001021A621A6AA0
:1009CC0022F004021A622CE0274B00221A60FFF777
:1009DC0057FD0546224B5B6A13F0020FC8D0FFF798
:1009EC004FFD401B0228F5D90320C0E00025D4E7B9
:1009FC001E4A136843F480731360FFF741FD0646EB
:100A0C001A4B1B6813F4807FCCD1FFF739FD801B88
:100A1C006428F5D90320AAE0114A136A43F00103B4
:100A2C001362E36873B3FFF72BFD06460C4B1B6A8E
:100A3C0013F0020F37D1FFF723FD801B41F28833EF
:100A4C009842F3D9032092E0052B11D0044B1A6A7B
:100A5C0022F001021A621A6A22F004021A62E0E71A
:100A6C0000100240000042428004424200700040EC
:100A7C00414B1A6A42F004021A621A6A42F00102ED
:100A8C001A62CEE7FFF7FCFC06463B4B1B6A13F0E1
:100A9C00020F08D0FFF7F4FC801B41F28833984218
:100AAC00F3D9032063E0E5B9E369002B5ED0324A49
:100ABC00526802F00C02082A5BD0022B17D02F4B85
:100ACC0000221A60FFF7DCFC04462B4B1B6813F06A
:100ADC00007F47D0FFF7D4FC001B0228F5D9032078
:100AEC0045E0254AD36923F08053D361DCE7234BDF
:100AFC0000221A60FFF7C4FC05461F4B1B6813F05D
:100B0C00007F06D0FFF7BCFC401B0228F5D9032060
:100B1C002DE0236AB3F5803F1AD017494B6823F4B4
:100B2C007413226A606A024313434B60134B012215
:100B3C001A60FFF7A5FC04460F4B1B6813F0007FEF
:100B4C000ED1FFF79DFC001B0228F5D903200EE007
:100B5C00094A536823F40033A1680B435360DCE764
:100B6C00002004E0002002E0012000E0002002B0A0
:100B7C0070BD0120FBE700BF001002406000424244
:100B8C0010B487B0164C94E80F000DF1180C0CE95A
:100B9C000F00238AADF80430124B5B6803F00C0293
:100BAC00082A1AD1C3F38342624412F8102C13F4AE
:100BBC00803F05D10C4800FB02F007B010BC704719
:100BCC00084B5B68C3F34043634413F8143C074879
:100BDC0000FB02F0B0FBF3F0EFE70448EDE700BFD9
:100BEC00402C00080010024000093D0000127A0061
:100BFC00594B1B6803F007038B420CD2564A1368FF
:100C0C0023F007030B431360136803F007038B42B5
:100C1C0001D00120704770B5036813F0020F06D0A5
:100C2C004E4A536823F0F0038468234353600C4608
:100C3C000546036813F0010F52D04368012B23D0F3
:100C4C00022B28D0454A126812F0020F00F0828065
:100C5C0042494A6822F0030213434B60FFF710FC31
:100C6C0006466B68012B1DD0022B2AD03B4B5B68D0
:100C7C0013F00C0F34D0FFF703FC801B41F28833C8
:100C8C009842F3D9032064E0344A126812F4003F0E
:100C9C00DED101205DE0314A126812F0007FD7D11D
:100CAC00012056E02D4B5B6803F00C03042B17D08E
:100CBC00FFF7E6FB801B41F288339842F2D9032000
:100CCC0047E0264B5B6803F00C03082B08D0FFF7BA
:100CDC00D7FB801B41F288339842F2D9032038E0CD
:100CEC001D4B1B6803F00703A3420CD91A4A136867
:100CFC0023F0070323431360136803F00703A34295
:100D0C0001D0012025E02B6813F0040F06D0134A04
:100D1C00536823F4E063E9680B4353602B6813F0CA
:100D2C00080F07D00D4A536823F46053296943EA2E
:100D3C00C1035360FFF724FF084B5B68C3F3031335
:100D4C00074AD35CD840074B1860002001F04CF9DF
:100D5C00002070BD0120FCE7002002400010024082
:100D6C00542C00086C160020014B1868704700BF0B
:100D7C006C16002008B5FFF7F7FF044B5B68C3F354
:100D8C000223034AD35CD84008BD00BF00100240C8
:100D9C00642C000808B5FFF7E7FF044B5B68C3F34E
:100DAC00C223034AD35CD84008BD00BF00100240E8
:100DBC00642C00080F2303600B4B5A6802F00302EB
:100DCC0042605A6802F0F00282605A6802F4E062F3
:100DDC00C2605B68DB0803F4E0630361034B1B68D0
:100DEC0003F007030B607047001002400020024024
:100DFC0070470268D36843F00103D360026813683C
:100E0C0043F0010313600020704770477047704730
:100E1C00704710B5044603681A6912F0020F11D01E
:100E2C00DA6812F0020F0DD06FF002021A61012382
:100E3C00037703689B6913F0030F70D0FFF7E6FF8D
:100E4C000023237723681A6912F0040F12D0DA6892
:100E5C0012F0040F0ED06FF004021A6102232377F4
:100E6C0023689B6913F4407F5FD02046FFF7CEFFC9
:100E7C000023237723681A6912F0080F12D0DA685E
:100E8C0012F0080F0ED06FF008021A6104232377BA
:100E9C002368DB6913F0030F4ED02046FFF7B6FF33
:100EAC000023237723681A6912F0100F12D0DA6826
:100EBC0012F0100F0ED06FF010021A610823237776
:100ECC002368DB6913F4407F3DD02046FFF79EFF7B
:100EDC000023237723681A6912F0010F03D0DA6814
:100EEC0012F0010F36D123681A6912F0800F03D06B
:100EFC00DA6812F0800F34D123681A6912F0400FAF
:100F0C0003D0DA6812F0400F32D123681A6912F05C
:100F1C00200F03D0DA6812F0200F30D110BDFFF78C
:100F2C0074FF2046FFF773FF8AE72046FFF76DFF3B
:100F3C002046FFF76CFF9BE72046FFF766FF204635
:100F4C00FFF765FFACE72046FFF75FFF2046FFF792
:100F5C005EFFBDE76FF001021A61204600F0C4FD90
:100F6C00C1E76FF080021A61204600F063F8C3E716
:100F7C006FF040021A612046FFF74AFFC5E76FF099
:100F8C0020021A61204600F054F8C7E703681B4A98
:100F9C0090420AD0B0F1804F07D0A2F59432904223
:100FAC0003D002F58062904203D123F070034A68AB
:100FBC001343124A90420AD0B0F1804F07D0A2F5E9
:100FCC009432904203D002F58062904203D123F414
:100FDC004073CA68134323F080034A6913430360C8
:100FEC008B68C3620B688362044B984202D0012366
:100FFC00436170470B690363F9E700BF002C0140A4
:10100C00A8B110B5044690F83D305BB1022384F8CA
:10101C003D30211D2068FFF7B9FF012384F83D30D6
:10102C00002010BD80F83C30FFF7E2FEEEE7012017
:10103C0070477047704700002DE9F8430546026879
:10104C00136923F44053C1680B431361836802692D
:10105C001343426913430168CA6822F4B05222F068
:10106C000C021343CB600268536923F4407381690B
:10107C000B4353610268594B9A4257D0FFF77AFEE3
:10108C0000EB800000EB80006C68A400B0FBF4F473
:10109C00534FA7FB043464092601FFF76BFE00EBEA
:1010AC00800000EB80006C68A400B0FBF4F9FFF743
:1010BC0061FE00EB800000EB80006C68A400B0FBCC
:1010CC00F4F4A7FB043464094FF0640808FB14948F
:1010DC0024013234A7FB0434640904F0F0043444D2
:1010EC00FFF748FE00EB800000EB80006E68B60056
:1010FC00B0FBF6F6FFF73EFE00EB800000EB800045
:10110C006B689B00B0FBF3F0A7FB0030400908FBB9
:10111C0010684FEA081808F13208A7FB0837C7F324
:10112C0043172B6827449F60BDE8F883FFF732FE16
:10113C0000EB800000EB80006C68A400B0FBF4F4C2
:10114C00274FA7FB043464092601FFF723FE00EBAD
:10115C00800000EB80006C68A400B0FBF4F9FFF792
:10116C0019FE00EB800000EB80006C68A400B0FB63
:10117C00F4F4A7FB043464094FF0640808FB1494DE
:10118C0024013234A7FB0434640904F0F004344421
:10119C00FFF700FE00EB800000EB80006E68B600ED
:1011AC00B0FBF6F6FFF7F6FD00EB800000EB8000DD
:1011BC006B689B00B0FBF3F0A7FB0030400908FB09
:1011CC0010684FEA081808F13208A7FB0837C7F374
:1011DC0043172B6827449F60A6E700BF00380140E7
:1011EC001F85EB5158B310B5044690F839300BB34A
:1011FC00242384F839302268D36823F40053D36055
:10120C002046FFF719FF2268136923F490431361FA
:10121C002268536923F02A0353612268D36843F48C
:10122C000053D3600020E063202384F8393084F825
:10123C003A3010BD80F8383000F0A0FED8E701201D
:10124C007047000070B506460D4600243F2C10DC9C
:10125C00094B03EB04132946D86801F06FF808B169
:10126C000134F3E7044B03EB041494E80F0086E815
:10127C000F00304670BD00BF08000020002304E0C2
:10128C00C11800228A77C25401331C2BF8DD704739
:10129C002DE9F04F83B081468A4600260027CDE920
:1012AC0000670021084600F0ADF9C117CDE9000137
:1012BC00002504E0EC1D08E001350AF1FF3ABAF113
:1012CC00010F32DD2C46002DF4DBE41009EB040891
:1012DC0098F81E00002100F0010000F093F9C117EE
:1012EC00CDE90001DFF888B000219BF8000000F088
:1012FC005FF98BF80000DDE90023B24019F80430E7
:10130C001343DBB209F8043098F81E305B0888F8F8
:10131C001E30721C47F1000302F00706002756EA44
:10132C000701C9D016461F46C6E72C46002D1CDB0C
:10133C00E41009EB0403987F0121084000F062F9E6
:10134C00C117CDE900010A4D0121287800F030F9D0
:10135C002870DDE90023B24019F804601643F6B298
:10136C0009F8046003B0BDE8F08FEC1DE0E700BFA6
:10137C005C24002084B010B402AC84E80E000B4650
:10138C000A4600290FDBD210805CC0B25A4203F02F
:10139C00070302F0070258BF5342184100F0010046
:1013AC0010BC04B07047CA1DEDE70B46002905DBE5
:1013BC00DB102AB1012A10D000200BE0CB1DF7E77F
:1013CC00C05CC0B24B4201F0070103F0070358BFE9
:1013DC005942084100F0010070470344987FC0B2A5
:1013EC004B4201F0070103F0070358BF5942084173
:1013FC00F0E710B504460421012000F047F9E8217C
:10140C002046FFF745FF0121052000F03FF910BDF4
:10141C0084B030B583B0054607AC84E80E000122D9
:10142C0009212F2000F0D6F92846FFF7E2FF022011
:10143C0000F00AFB0A9B009394E80E002846FFF785
:10144C0099FF03B0BDE8304004B0704784B010B4CD
:10145C0002AC84E80E00049B1A46002B14DB00EB54
:10146C00E200827F52B2594203F0070301F00701F8
:10147C0058BF4B429DF8181001FA03F31343DBB22B
:10148C00837710BC04B07047DA1DE8E784B010B461
:10149C0002AC84E80E00039B1A46002B13DB00EB16
:1014AC00E200827F52B2594203F0070301F00701B8
:1014BC0058BF4B42069901FA03F31343DBB283770F
:1014CC0010BC04B07047DA1DE9E7000084B030B5F9
:1014DC0083B0054607AC84E80E000B9B01930A9B76
:1014EC00009394E80E00FFF7D1FF0D4B1B78032BF4
:1014FC0004D0012209212F2000F06CF904210120D5
:10150C0000F0C4F8E8212846FFF7C2FE01210520AF
:10151C0000F0BCF803B0BDE8304004B0704700BF29
:10152C008814002084B010B582B005AC84E80E009D
:10153C00099B0193089B009394E80E00FFF7C6FFEC
:10154C00084B1B78032B07D0012209210F2000F038
:10155C0041F9032000F078FA02B0BDE8104004B065
:10156C00704700BF8814002070B584B006460D4645
:10157C0000240094019402940394084600F052FC59
:10158C00224607E004A9114401F8103C2B680133F2
:10159C002B6001322B681B78202B01D0002BF1D152
:1015AC0069463046FFF74EFE304604B070BD000071
:1015BC00012907D021B900EB4000054B18444378B2
:1015CC001846704700EB4000014B18448378F7E74E
:1015DC000804002010B50A4C00224FF4007120467C
:1015EC00FFF7C3F800224FF480612046FFF7BDF8E7
:1015FC0000224FF480512046FFF7B7F810BD00BF12
:10160C000008014070B505460E46144C00224FF4FC
:10161C0000712046FFF7A9F8F2B24FF48061204622
:10162C00FFF7A3F8EAB24FF480512046FFF79DF87C
:10163C004FF4FA7000F00EFA01224FF400712046BC
:10164C00FFF793F84FF400410548FFF787F804467D
:10165C004FF4FA7000F0FEF9204670BD000801400E
:10166C00000C014038B500240AE001210020FFF7EE
:10167C00C9FF054D01212878FFF79AFF2870013426
:10168C00042CF2DD38BD00BF5C24002070B50E4682
:10169C000DE0314600F002F9054601460020FFF747
:1016AC00B1FF054C29462078FFF782FF2070024BD2
:1016BC001878B042EDD170BD5C240020D0B5064640
:1016CC000F46144608E006F001010020FFF79AFFD0
:1016DC00013C7F084FEA3606002CF4DCD0BD00003C
:1016EC0008B532224FF0FF300549FFF7E7FF102213
:1016FC004EF23C700021FFF7E1FFFFF7B3FF08BD8E
:10170C00FFFF03002DE9F04F85B092460022002325
:10171C00CDE90023002680468946D3462EE00021E1
:10172C0008F00100FFF76EFF07460246C317CDE92C
:10173C000223DFF89CA000219AF80000FFF738FF85
:10174C008AF80000A6F12002C6F12003039901FAE1
:10175C0006F507FA02F2154327FA03F31D4307FABD
:10176C0006F4DDE9002322432B43CDE900235FEA95
:10177C0059094FEA380801360BF1FF3BBBF1010F59
:10178C00CDDC012108EA0100FFF73CFF0746C51735
:10179C00DFF83C80012198F80000FFF709FF88F87A
:1017AC000000A6F12002C6F1200305FA06F107FAA3
:1017BC0002F2114327FA03F3194307FA06F0DDE9A5
:1017CC00003403430C431846214605B0BDE8F08FA6
:1017DC005C24002038B504460D460B211046FFF75B
:1017EC0055FF2A462046E117FFF78CFF01210C20FC
:1017FC00FFF74CFF38BD70B504460D461646042164
:10180C000120FFF743FF324620462946FFF77AFFB7
:10181C0004460D4601210520FFF738FF20462946D6
:10182C0070BD38B514461D460122FFF7D3FF2A467A
:10183C002046E117FFF7DFFF04460D46002000F0BD
:10184C0003F92046294638BD38B514461D460122F9
:10185C00FFF7C0FF2A462046E117FFF7CCFF0446EE
:10186C000D46012000F0F0F82046294638BD38B569
:10187C0004460D46FFF7F6FE04210020FFF706FF95
:10188C002A462046E117FFF73DFF04460D4601218D
:10189C000520FFF7FBFE2046294638BD01EB001161
:1018AC00014B53F831007047380C002000200B5CC2
:1018BC0043B1054A126812F0800FF8D0024A536007
:1018CC000130F4E7704700BF0038014070B588B0B4
:1018DC00039004464E4900F031FDE0B14D492046DD
:1018EC0000F04AFD20BB4C49204600F045FD002885
:1018FC004AD14A49204600F03FFD002860D14849B2
:10190C00204600F01BFD00287AD044224549464869
:10191C0000F032FC2FE04023444A09211E20FFF73F
:10192C0093FF0B46024642493F4800F0E7FC22E099
:10193C000B2103A800F07EFA04AC03A92046FFF7A4
:10194C0013FE3C4D2846FFF799FC01230193079B9E
:10195C00009394E80E002846FFF778FD079E00964A
:10196C0094E80E002846FFF753FD034632463249F1
:10197C002D4800F0C3FC2C4C21463048FFF796FF55
:10198C000023237008B070BD0B2103A800F052FA9D
:10199C0003A800F088FA054603A800F092FA044662
:1019AC0003462A46092140F2FF10FFF73AFF214671
:1019BC0000F05FFA024622491B4800F09FFCDAE770
:1019CC000B2103A800F036FA04AC03A92046FFF75C
:1019DC00CBFD03A800F067FA0646164D00230193D1
:1019EC00079B009394E80E002846FFF72FFD019605
:1019FC00079B009394E80E002846FFF793FDBAE787
:101A0C0040F22A420F49084800F0B6FBB3E700BF8A
:101A1C002C2D0008782D0008A82D0008C82D0008D2
:101A2C00D42D0008083200085C180020CDAB34120D
:101A3C00382D000870240020842D00080038014047
:101A4C00B42D0008DC2D0008014B1870704700BF46
:101A5C008814002000E01846431E0028FBD1704774
:101A6C0030B589B01D4B9A6942F020029A619A698F
:101A7C0002F020020192019A9A6942F008029A61DE
:101A8C009A6902F008020292029A9A6942F00402E0
:101A9C009A619B6903F004030393039B104D00228E
:101AAC004FF4B0512846FEF760FE4FF40043049308
:101ABC0000240594069404A90A48FEF765FD4FF42A
:101ACC00B05304930123059306940223079304A9AE
:101ADC002846FEF759FD09B030BD00BF001002408A
:101AEC0000080140000C014008B50268034B9A4203
:101AFC0000D008BDFEF7B8FCFBE700BF002C01408E
:101B0C00FEE7000008B50B480B4B03604FF4E133C4
:101B1C00436000238360C36003610C2242618361D4
:101B2C00C361FFF75FFB00B908BD4FF4A271034816
:101B3C00FFF7E6FFAC240020003801404C320008CF
:101B4C0000B591B0012206924FF480330793002127
:101B5C0008910A9202220D920E934FF4E0130F9308
:101B6C0006A8FEF71FFE08BB0F230193022102916A
:101B7C00002303934FF480620492059301A8FFF7AE
:101B8C0037F8C0B9FFF7F0F80D4BA3FB0030800914
:101B9C00FEF7CEFC0420FEF7E1FC002211464FF0CC
:101BAC00FF30FEF785FC11B05DF804FB40F2191113
:101BBC000448FFF7A5FF40F227110248FFF7A0FFEA
:101BCC00D34D62104C32000880B586B0002400253D
:101BDC00CDE90445CDE90245DFF8449253228B4907
:101BEC00484600F0C9FAFEF72DFCFFF7A9FFFFF7F6
:101BFC0037FFFFF787FFFFF773FDFFF7EBFC0A23B7
:101C0C007122092140F2FF10FFF70BFECDE9040110
:101C1C00CDE904457E4E4023324609211E20FFF7B4
:101C2C0013FECDE90401CDE9044540213046FFF710
:101C3C001EFECDE90401CDE9044540234FF0FF32EF
:101C4C0009211F20FFF700FECDE90401DDE9042383
:101C5C005B084FEA3202CDE90423CDE90445402369
:101C6C004FF0FF3209214FF4FF70FFF7EDFDCDE986
:101C7C000401CDE90445674E3046FFF7FFFA664D87
:101C8C0001270197EB68009395E80E003046FFF7AB
:101C9C00DDFBEB68009395E80E003046FFF7B8FBD0
:101CAC00C117CDE904010197EB68009395E80E008C
:101CBC003046FFF7EBFB3A4669683046FFF775FB99
:101CCC00C117CDE904014FF00008CDF80480EB6991
:101CDC00009305F1100494E80E003046FFF7B6FBB4
:101CEC000197EB69009394E80E003046FFF71AFC5D
:101CFC00CDF80480EB69009394E80E003046FFF7B2
:101D0C0011FC0197EB69009394E80E003046FFF745
:101D1C0009FC0197EB69009394E80E003046FFF73D
:101D2C0001FC0197EB69009394E80E003046FFF735
:101D3C00F9FBCDF80480EB69009394E80E00304673
:101D4C00FFF7F0FBCDF80480EB69009394E80E00EC
:101D5C003046FFF7E7FBCDF80480EB69009394E87D
:101D6C000E003046FFF7DEFB49462C48FFF79EFD80
:101D7C003046FFF783FA16E0DDE90212284B0B44DC
:101D8C0093F80034082B28D0DDE90212244B0B44C5
:101D9C0093F800340A2B29D0DDE90201421C41F1F1
:101DAC000003CDE902231D4B1B6813F0200FFAD062
:101DBC001A4A5168DDE90245194B234483F8001493
:101DCC00136813F0800FD7D0DDE90212144B0B44CB
:101DDC0093F80024114B5A60CEE7DDE9020110F1B3
:101DEC00FF3241F1FF33CDE90223DCE7DDE90223C9
:101DFC000B480244002382F8003400F58060FFF7A2
:101E0C0065FD00220023CDE90223CCE75C320008FB
:101E1C00CDAB34127024002068140020003801402F
:101E2C005C1C002001E00133036003681A78202A4F
:101E3C00F9D0704703E003680133036001390029CE
:101E4C00F9D1704701684B1C03604A78422A08D0CC
:101E5C00622A06D0782A08D0582A06D001600A20B7
:101E6C007047013303600220704701330360102078
:101E7C00704738B505460C46481C00F075F9611ED4
:101E8C00002303E03022C25401330139002907DB5F
:101E9C0045FA01F212F0010FF4D03122C254F3E7EB
:101EAC000022C25438BD10B50446FFF7BBFF2046D4
:101EBC00FFF7C8FF02462146206800F02BFBC11734
:101ECC0010BD10B50446FFF7ADFF2046FFF7BAFF73
:101EDC0002462146206800F01DFB10BD00B583B002
:101EEC00244B9A6942F001029A619A6902F001024C
:101EFC000092009ADA6942F08052DA61DB6903F0F1
:101F0C0080530193019B0320FEF7C0FA0022114677
:101F1C006FF00B00FEF7CCFA002211466FF00A00AE
:101F2C00FEF7C6FA002211466FF00900FEF7C0FA60
:101F3C00002211466FF00400FEF7BAFA0022114697
:101F4C006FF00300FEF7B4FA002211466FF00100A7
:101F5C00FEF7AEFA002211464FF0FF30FEF7A8FA5A
:101F6C00054A536823F0E06343F00073536003B0F9
:101F7C005DF804FB00100240000001400268174BA2
:101F8C009A4200D0704710B586B003F558439A6951
:101F9C0042F480429A619B6903F480430193019B54
:101FAC004023029302230393032305930C4C02A9B1
:101FBC002046FEF7E9FA802302930023039304934F
:101FCC0002A92046FEF7E0FA064A536843F0E063A4
:101FDC0043F00403536006B010BD00BF003801404D
:101FEC00000C01400000014000B589B00022014600
:101FFC001920FEF75DFA1920FEF78EFA144B9A6938
:10200C0042F400629A619B6903F400630193019BA3
:10201C0002A903A8FEF7CEFEFEF7BCFE0D4BA3FBF8
:10202C0000239B0C013B0C480C4A026040F2E73247
:10203C00C2604360002303618360FEF7E1FF18B1C7
:10204C00012009B05DF804FB0348FEF7D2FEF8E767
:10205C000010024083DE1B43EC240020002C0140C6
:10206C007047FEE7FEE7FEE7FEE7704770477047F4
:10207C0008B5FEF784FA08BD08B50248FEF7C9FE9C
:10208C0008BD00BFEC2400200F4B1A6842F001027F
:10209C001A6059680D4A0A405A601A6822F0847214
:1020AC0022F480321A601A6822F480221A605A686C
:1020BC0022F4FE025A604FF41F029A60044B4FF058
:1020CC0000629A60704700BF001002400000FFF8E9
:1020DC0000ED00E0002103E00B4B5B584350043152
:1020EC000A480B4B42189A42F6D30A4A02E00023E4
:1020FC0042F8043B084B9A42F9D3FFF7C5FF00F0B6
:10210C000FF8FFF761FD7047003400080000002055
:10211C00401800204018002030250020FEE7000069
:10212C0070B500250C4E0D4CA41BA410A54209D172
:10213C0000F074FD00250A4E0A4CA41BA410A54205
:10214C0005D170BD56F8253098470135EEE756F8A5
:10215C00253098470135F2E7F8330008F8330008CA
:10216C00F8330008FC330008024B0146186800F0F5
:10217C005BB800BF7016002010B5431E0A44914294
:10218C0000D110BD11F8014B03F8014FF7E7000027
:10219C0038B50546002943D051F8043C0C1F002BE0
:1021AC00B8BFE41800F0F0F91E4A1368104633B9B2
:1021BC00636014602846BDE8384000F0E6B9A342DD
:1021CC000BD921686218934201BF1A685B685218D8
:1021DC00226063600460EDE713465A680AB1A242BC
:1021EC00FAD919685818A0420BD120680144581824
:1021FC0082421960DED110685268014419605A603D
:10220C00D8E702D90C232B60D4E7206821188A4226
:10221C0001BF116852680918216062605C60C9E7EF
:10222C0038BD00BF6024002070B5CD1C25F003051F
:10223C0008350C2D38BF0C25002D064601DBA942B4
:10224C0003D90C233360002070BD00F09DF9214AA6
:10225C001468214691B9204C23681BB9304600F014
:10226C003DF820602946304600F038F8431C24D154
:10227C000C233046336000F088F9E4E70B685B1BF5
:10228C0018D40B2B0FD90B60CC18CD50304600F066
:10229C007CF904F10B00231D20F00700C31AD3D0E6
:1022AC005A42E250D0E74B688C4216BF6360136011
:1022BC000C46EBE70C464968CCE7C41C24F003043D
:1022CC00A04205D0211A304600F008F80130CFD0DA
:1022DC002560DBE7602400206424002038B500234F
:1022EC00054C05460846236000F08AFC431C02D1CD
:1022FC00236803B12B6038BD2C2500200EB46FF081
:10230C00004100B59CB01DAB029006900791049162
:10231C000848094953F8042B0591006802A9019358
:10232C0000F08EF90022029B1A701CB05DF804EBD1
:10233C0003B07047701600200802FFFFF8B5064680
:10234C000F4616F8014B00F0FFF82044437817F8BD
:10235C00015B03F00303012B08BF203400F0F4F8F9
:10236C002844427802F00302012A08BF2035601B82
:10237C0001D1002DE5D1F8BDF0B503787BB1044651
:10238C0023782046661C7BB14A1E631E12F8015F3F
:10239C004DB113F8017F3446AF42F7D0F0E70B781C
:1023AC00002B18BF0020F0BD1846FCE72DE9F04FBC
:1023BC008A4693461F46884689B007904546129830
:1023CC0015F8014B00F0BCF82044467816F00806CE
:1023DC0055D12D2C55D1012698F8014008F1020554
:1023EC00002F00F09180102F0AD1302C08D12B78BF
:1023FC0003F0DF03582B40F0818010276C780235F6
:10240C00002E45D14FF0FF396FF000483A46FB17CC
:10241C0048464146CDE90223FDF792FECDE9040181
:10242C009646002100220023CDE90012A4F1300CC5
:10243C00BCF1090F31D86446A7423FDD591C1BD0B3
:10244C00DDE90401DDE90023994208BF904232D353
:10245C0001D1A6452FDBDDE901134B43009803990D
:10246C0000FB01330299A1FB00010219194441EB55
:10247C00E473CDE90023012315F8014BD6E7A846F8
:10248C009CE72B2C04BF08F1020598F80140A7E744
:10249C004FF000094FF00048B8E7A4F1410CBCF133
:1024AC00190F01D8373CC7E7A4F1610CBCF1190F27
:1024BC0004D8573CC0E74FF0FF33DDE75A1C0CD172
:1024CC002223079ACDE900981360BBF1000F10D1BD
:1024DC00DDE9000109B0BDE8F08F36B1DDE900128D
:1024EC00494262EB4202CDE90012BBF1000FEFD082
:1024FC000BB105F1FF3ACBF800A0E9E73024002F2F
:10250C007FF47EAF08277BE7302C3FF470AF0A27AF
:10251C0076E70000084B37B51C68084D236A002B82
:10252C0008BF2B46009313460A4601462046FFF788
:10253C003DFF03B030BD00BF70160020D416002044
:10254C00D0F8EC0070470000044B054A1B681B6A6E
:10255C00002B08BF1346D3F8EC0070477016002010
:10256C00D416002082B001B901A942B14BB1137845
:10257C000B601278101C18BF012002B07047104677
:10258C00FBE76FF00100F8E7704770472DE9F04763
:10259C008E6882469E420C469046994637D88A8968
:1025AC0012F4906F31D00223256809696F1A65699E
:1025BC0005EB450595FBF3F509F101033B449D4201
:1025CC0038BF1D46530530D52946FFF72DFE06466C
:1025DC0050B90C234FF0FF30CAF80030A38943F0F8
:1025EC004003A381BDE8F0873A462169FFF7C4FD9B
:1025FC00A38923F4906343F08003A38126613E44B6
:10260C0026604E466561ED1BA5604E4500D94E46D1
:10261C0032464146206800F0ACFAA36800209B1BB0
:10262C00A36023681E442660DCE72A4600F0BAFA51
:10263C0006460028E2D121695046FFF7A9FDC8E7FC
:10264C002DE9F04F9DB003938B8980461D060C46F7
:10265C0016460FD50B696BB94021FFF7E5FD2060DD
:10266C00206128B90C23C8F800304FF0FF30C7E0C8
:10267C00402363610023099320238DF829303023F4
:10268C004FF0010B8DF82A3037463D4615F8013BCB
:10269C000BB1252B3ED1B7EB060A0BD05346324675
:1026AC0021464046FFF772FF013000F0A480099BE1
:1026BC00534409933B78002B00F09D8000234FF08E
:1026CC00FF32CDE90523049307938DF853301A9309
:1026DC002F46052217F8011B4F4800F03CFA049BCB
:1026EC00D0B9D90644BF20228DF853201A0744BF15
:1026FC002B228DF853202A782A2A15D02F46002019
:10270C000A25079A394611F8013B303B092B4DD964
:10271C00B8B10FE02F46B8E73F4A3D46801A0BFA96
:10272C0000F018430490D3E7039A111D126803912B
:10273C00002A01DB079204E0524243F002030792A5
:10274C0004933B782E2B0CD17B782A2B33D1039B13
:10275C0002371A1D1B680392002BB8BF4FF0FF33D2
:10276C0005932E4D03223978284600F0F4F938B140
:10277C004023401B03FA00F0049B013703430493EE
:10278C003978062226487E1C8DF8281000F0E3F9D3
:10279C00002838D0234B13BB039B073323F00703CC
:1027AC0008330393099B4B4409936DE705FB0232F5
:1027BC0001200F46A6E700230A2519460137059389
:1027CC00384610F8012B303A092A03D9002BC8D00F
:1027DC000591C6E705FB012101230746F0E703AB92
:1027EC0000932246104B04A94046AFF30080B0F191
:1027FC00FF3F8146D6D1A3895B063FF536AF0998DA
:10280C001DB0BDE8F08F03AB00932246064B04A924
:10281C00404600F081F8EAE7BA320008C0320008FE
:10282C00C432000800000000992500082DE9F0478B
:10283C0091461F468A680B6906469342B8BF1346F9
:10284C00C9F8003091F843200C46DDF8208012B115
:10285C000133C9F800302368990642BFD9F800301B
:10286C000233C9F80030256815F0060507D104F1CC
:10287C00190AE368D9F800209B1AAB4229DC94F8BA
:10288C0043302268003318BF012392062ED404F182
:10289C00430239463046C047013021D02368E568F1
:1028AC0003F00603042B18BF0025D9F800204FF0C5
:1028BC00000908BFAD1AA368226908BF25EAE575AF
:1028CC009342C4BF9B1AED181A344D451AD10020FF
:1028DC0008E00123524639463046C047013003D147
:1028EC004FF0FF30BDE8F0870135C2E73020E1182A
:1028FC0081F843005A1C94F845102244023382F8A4
:10290C004310C4E70123224639463046C047013004
:10291C00E6D009F10109D8E72DE9F04301F1430CA8
:10292C000C46097E85B06E291746064698460C9AC9
:10293C0000F0B38022D8632936D00AD8002900F0E1
:10294C00B980582900F0838004F1420584F84210C4
:10295C0032E0642901D06929F6D120681368050694
:10296C0003F104012AD51B681160002B03DA2D2218
:10297C005B4284F843206F480A2239E0732900F047
:10298C009D8008D86F2920D07029DDD1236843F0B1
:10299C002003236003E0752917D07829D4D178233C
:1029AC00654884F8453055E0136804F14205191D5B
:1029BC001B68116084F8423001238CE01B6810F016
:1029CC00400F116018BF1BB2CFE713682568181DA4
:1029DC001060280601D51B6802E06806FBD51B8831
:1029EC006F2914BF0A2208225248002184F8431090
:1029FC006568002DA560C0F29580216821F0040166
:102A0C002160002B3DD1002D40F08E806546082AB8
:102A1C000BD12368DB0708D5236962689A42DEBFB5
:102A2C00302305F8013C05F1FF35ACEB05032361C0
:102A3C00CDF800803B4603AA21463046FFF7F6FE50
:102A4C0001304DD14FF0FF3005B0BDE8F08339486F
:102A5C0084F84510136821681D1D1B6815600A0653
:102A6C000BD5CA0744BF41F0200121601BB9226875
:102A7C0022F0200222601022B7E74D0648BF9BB21D
:102A8C00EFE76546B3FBF2F102FB1133C35C05F8CB
:102A9C00013D0B460029F5D1B9E713682568181DCF
:102AAC006169106028061B6801D5196002E06A068E
:102ABC00FBD51980002365462361B9E71368191DFE
:102ACC0011601D6862680021284600F044F808B1C6
:102ADC00401B606063682361002384F84330A7E7E0
:102AEC0023692A4639463046C0470130AAD02368AC
:102AFC009B0713D4E068039B9842B8BF1846A3E722
:102B0C0001234A4639463046C04701309AD0013538
:102B1C00E368039A9B1AAB42F2DCEBE7002504F165
:102B2C001909F5E7002BACD1037804F1420584F8C0
:102B3C0042306CE7CB320008DC32000849B1FF2A86
:102B4C008BBF8A230A700360012088BF4FF0FF30CF
:102B5C0070470846704710B5C9B20244904203460C
:102B6C0001D1002303E01C7801308C42F6D11846C9
:102B7C0010BD884210B501EB020307D8421E9942E2
:102B8C000AD011F8014B02F8014FF8E78342F5D94E
:102B9C008118D21AD34200D110BD13F8014D01F89F
:102BAC00014DF7E7F8B5074614460E4621B9BDE8C6
:102BBC00F8401146FFF738BB22B9FFF7E9FA254672
:102BCC002846F8BD00F014F8A0420FD22146384632
:102BDC00FFF72AFB05460028F2D031462246FFF7C4
:102BEC00CBFA31463846FFF7D3FAE9E73546E7E743
:102BFC0051F8043C181F002BBCBF0B58C018704771
:102C0C00044A05491368002B08BF0B461844106092
:102C1C00184670476824002030250020F8B500BF06
:102C2C00F8BC08BC9E467047F8B500BFF8BC08BCA1
:042C3C009E467047F9
:102C400002030405060708090A0B0C0D0E0F1010ED
:102C50000102000000000000000000000102030467
:102C6000060708090000000001020304706130003B
:102C70007061310070613200706133007061340046
:102C80007061350070613600706137007061380026
:102C900070613900706131300000000070613131C5
:102CA00000000000706131320000000070623000EE
:102CB00070623100706232007062350070623600FE
:102CC00070623700706238007062390070623130B3
:102CD000000000007062313100000000706231328B
:102CE0000000000070623133000000007062313477
:102CF0000000000070623135000000007063313365
:102D00000000000070633134000000007063313552
:102D1000000000006F73634F757450443000000072
:102D20006F73634F75745044310000006A746167BB
:102D3000206964636F646500436F72746578204D29
:102D40003320494420436F6465203A203078255869
:102D5000200A426F756E64617279205363616E2040
:102D600043656C6C20494420436F6465203A2030F1
:102D7000782558200A0A00006A7461672073616D23
:102D8000706C650043757272656E742076616C7547
:102D90006520666F722070696E202573206973202C
:102DA000272569270A0A00006A7461672062797022
:102DB00061737300526573756C743A20203062251C
:102DC00073200A0A000000006A7461672065787445
:102DD0006573740068656C70000000000A49444324
:102DE0004F44452009090909090909200A2D2D2DFB
:102DF0002D2D2D0909090920202020202020202008
:102E0000202020200A312E205479706520276A74F2
:102E10006167206964636F64652720286361736557
:102E200020696E73656E73746976652909090909ED
:102E300009202020202020202020202020200A32AD
:102E40002E20496420636F646520666F7220626F74
:102E500074682054415020646576696365732077F7
:102E6000696C6C2062652073686F776E2E090909A2
:102E700009202020202020202020202020200A0996
:102E8000090909092020202020202020202020209E
:102E9000200A425950415353200909090920202092
:102EA000202020202020202020200A2D2D2D2D2DF7
:102EB0002D20090909092020202020202020202061
:102EC0002020200A312E205479706520276A7461F1
:102ED0006720627970617373205B646174615D2047
:102EE0005B6C656E6774685D27202864617461207F
:102EF000616363657074656420696E206865782C11
:102F00002062696E61727920616E64206465636914
:102F10006D616C20666F726D617429090909090978
:102F20000909200A322E2054686520726573756C79
:102F300074206F66206279706173732077696C6C9E
:102F40002062652073686F776E20616674657220F9
:102F5000656E746572207761732070726573736536
:102F6000642009090909090909200A090909090947
:102F7000202020202020202020202020200A534113
:102F80004D504C45200909090920202020202020EF
:102F90002020202020200A2D2D2D2D2D2D20090927
:102FA0000909202020202020202020202020200A65
:102FB000312E205479706520276A7461672073610F
:102FC0006D706C65205B426F756E64617279205321
:102FD00063616E2052656769737465722F20475074
:102FE000494F2070696E5D270909090909202020D1
:102FF000202020202020202020200A322E2054684B
:1030000065204A5441472070726F62652077696C71
:103010006C207265616420746865206375727265E6
:103020006E742070696E2073746174757320616EA4
:10303000642073686F772074686520726573756C9F
:1030400074207468726F7567682055415254200966
:1030500009090920202020202020202020202020B5
:103060000A205741524E494E47203A204D616B6528
:103070002073757265207468652070696E206973AD
:1030800020636F6E6E656374656420746F206120C9
:1030900076616C696420736F7572636520656C730B
:1030A00065207468652072656164696E67206D6172
:1030B0007920626520696E76616C69642E09090960
:1030C00009090909200A2009090909090909200A29
:1030D0005052454C4F414409090909090909200A80
:1030E0002D2D2D2D2D2D2D2D090909090909092019
:1030F0000A312E205468697320696E737472756387
:1031000074696F6E2077696C6C20626520757365D9
:103110006420696E20455854455354206D6F646592
:103120000909090909090909200A090909090909F7
:103130000909200A45585445535409090909090940
:103140000909200A2D2D2D2D2D2D090909090920E8
:103150002020202020202020202020200A312E2066
:103160005479706520276A74616720657874657387
:1031700074205B426F756E64617279205363616E77
:103180002052656769737465722F204750494F203C
:1031900070696E5D205B70696E2073746174757305
:1031A0002028312F30295D2709090909092020200D
:1031B000202020202020202020200A322E20436F93
:1031C0006E6E65637420746865204750494F2070A7
:1031D000696E20746F20616E2073696D706C65205C
:1031E0004C45442063697263756974207468656E28
:1031F000206F62736572766520746865206F7574E0
:103200007075740A0A0000000A556E6B6E6F776E57
:1032100020636F6D6D616E642072656365697665AC
:10322000642E20506C656173652074797065202769
:1032300068656C702720666F7220617373697461B2
:103240006E63652E20090909090A0A002E2E2F53E4
:1032500072632F6D61696E2E630000000909576566
:103260006C636F6D6520746F204A54414720496E2E
:103270007465726661636520666F722053544D33C6
:103280003246313033433854362C200909090A209C
:103290000909092074797065202768656C702720FA
:1032A000666F7220656E7175697279200A0A000076
:1032B0004300504F534958002E00232D302B20003F
:1032C000686C4C00656667454647003031323334E0
:1032D0003536373839414243444546003031323380
:1032E0003435363738396162636465660000202002
:1032F00020202020202020282828282820202020A6
:103300002020202020202020202020202020881065
:1033100010101010101010101010101010100404C5
:1033200004040404040404041010101010101041CC
:10333000414141414101010101010101010101013D
:1033400001010101010101010110101010101042D2
:10335000424242424202020202020202020202020D
:1033600002020202020202020210101010200000EB
:10337000000000000000000000000000000000004D
:10338000000000000000000000000000000000003D
:10339000000000000000000000000000000000002D
:1033A000000000000000000000000000000000001D
:1033B000000000000000000000000000000000000D
:1033C00000000000000000000000000000000000FD
:1033D00000000000000000000000000000000000ED
:1033E00000000000000000000000000000000000DD
:0833F0008CCDFF7F01000000FD
:0433F8003101000897
:0433FC000D010008B7
:103400000100000010000000BB000000BC00000034
:10341000BD0000006C2C0008BB000000B9000000DB
:10342000BA000000702C0008B5000000B6000000D3
:10343000B7000000742C0008B2000000B3000000C8
:10344000B4000000782C0008AF000000B0000000BD
:10345000B10000007C2C0008AC000000AD000000B2
:10346000AE000000802C0008A9000000AA000000A7
:10347000AB000000842C0008A6000000A70000009C
:10348000A8000000882C0008430000004400000051
:10349000450000008C2C00084000000041000000A6
:1034A00042000000902C00083D0000003E0000009B
:1034B0003F000000942C00083A0000003B00000090
:1034C0003C0000009C2C0008370000003800000081
:1034D00039000000A42C00089D0000009E000000A0
:1034E0009F000000AC2C00089A0000009B00000028
:1034F0009C000000B02C000897000000980000001D
:1035000099000000B42C000800000000000000003A
:1035100000000000000000000000000000000000AB
:103520000000000000000000130000001400000074
:1035300015000000B82C0008100000001100000069
:1035400012000000BC2C00080D0000000E0000005E
:103550000F000000C02C0008090000000A00000055
:103560000B000000C42C000806000000070000004B
:1035700008000000C82C0008790000007A00000054
:103580007B000000CC2C00087600000077000000D3
:1035900078000000D42C00087300000074000000C4
:1035A00075000000DC2C00087000000071000000B5
:1035B00072000000E42C00086D0000006E000000A6
:1035C0006F000000EC2C000870000000710000008B
:1035D00072000000F42C0008D6000000D7000000A4
:1035E000D8000000FC2C0008D3000000D40000002C
:1035F000D5000000042D0008D0000000D10000001C
:10360000D20000000C2D0008CD000000CE0000000C
:10361000CF000000142D0008CA000000CB000000FD
:10362000CC000000202D0008000000000000000079
:10363000000000000000000000000000000000008A
:10364000000000000000000000000000000000007A
:10365000000000000000000000000000000000006A
:10366000000000000000000000000000000000005A
:10367000000000000000000000000000000000004A
:10368000000000000000000000000000000000003A
:10369000000000000000000000000000000000002A
:1036A000000000000000000000000000000000001A
:1036B000000000000000000000000000000000000A
:1036C00000000000000000000000000000000000FA
:1036D00000000000000000000000000000000000EA
:1036E00000000000000000000000000000000000DA
:1036F00000000000000000000000000000000000CA
:1037000000000000000000000000000000000000B9
:1037100000000000000000000000000000000000A9
:103720000000000000000000000000000000000099
:103730000000000000000000000000000000000089
:103740000000000000000000000000000000000079
:103750000000000000000000000000000000000069
:103760000000000000000000000000000000000059
:103770000000000000000000000000000000000049
:103780000000000000000000000000000000000039
:103790000000000000000000000000000000000029
:1037A0000000000000000000000000000000000019
:1037B0000000000000000000000000000000000009
:1037C00000000000000000000000000000000000F9
:1037D00000000000000000000000000000000000E9
:1037E00000000000000000000000000000000000D9
:1037F00000000000000000000000000000000000C9
:1038000000000000000000000001000101020203AE
:10381000090304050404050506080606070704084D
:10382000080102090A000A0B0C0B0B0C0C0D0F0D02
:103830000D0E0E0B0F0F0102010000000000000032
:103840000000000001000000000000000100000076
:103850000000000001000000000000000100000066
:103860000000000001000000000000000100000056
:103870000000000001000000000000000100000046
:103880000000000001000000000000000100000036
:103890000000000001000000000000000100000026
:1038A0000000000001000000000000000100000016
:1038B0000000000001000000010000000200000004
:1038C00000000000010000000100000002000000F4
:1038D00001000000020000000100000002000000E2
:1038E00001000000020000000100000002000000D2
:1038F00001000000020000000100000002000000C2
:1039000001000000020000000100000002000000B1
:1039100001000000020000000100000002000000A1
:103920000100000002000000010000000200000091
:10393000010000000200000001000000090000007A
:10394000010000000900000010000000100000004D
:103950000000000003000000000000000300000061
:103960000000000003000000000000000300000051
:103970000000000003000000000000000300000041
:103980000100000009000000010000000900000023
:103990000100000009000000010000000900000013
:1039A0000100000009000000010000000900000003
:1039B00001000000090000000100000005000000F7
:1039C00001000000050000000100000005000000EB
:1039D00010000000100000000000000004000000C3
:1039E00001000000050000000100000005000000CB
:1039F00001000000050000000100000005000000BB
:103A000001000000050000000100000005000000AA
:103A1000010000000500000001000000050000009A
:103A2000010000000500000001000000050000008A
:103A3000010000000500000001000000050000007A
:103A4000010000000500000001000000050000006A
:103A5000010000000500000000000000040000005C
:103A6000010000000500000001000000050000004A
:103A7000010000000500000001000000050000003A
:103A8000010000000500000001000000050000002A
:103A9000010000000500000001000000050000001A
:103AA000010000000500000001000000050000000A
:103AB00001000000050000000100000008000000F7
:103AC00001000000080000000100000008000000E4
:103AD00001000000080000000000000006000000D7
:103AE00010000000100000000000000006000000B0
:103AF00000000000060000000100000008000000B7
:103B000001000000080000000100000008000000A3
:103B10000100000008000000010000000800000093
:103B20000100000008000000010000000800000083
:103B30000100000008000000010000000700000074
:103B40000100000007000000010000000700000065
:103B50000100000007000000010000000700000055
:103B60000100000007000000000000000600000047
:103B70000100000007000000010000000700000035
:103B80000100000007000000010000000700000025
:103B90000100000007000000010000000700000015
:103BA0000100000007000000010000000700000005
:103BB00001000000070000000100000008000000F4
:103BC00001000000080000000100000008000000E3
:103BD00001000000080000000000000004000000D8
:103BE00000000000040000000000000004000000CD
:103BF000100000001000000001000000080000009C
:103C000001000000080000000100000008000000A2
:103C10000100000008000000010000000800000092
:103C20000100000008000000010000000800000082
:103C30000100000008000000010000000200000078
:103C40000000000001000000010000000200000070
:103C5000010000000200000001000000020000005E
:103C6000010000000200000001000000020000004E
:103C70000100000002000000100000001000000021
:103C8000010000000200000001000000020000002E
:103C9000010000000200000001000000020000001E
:103CA000010000000200000001000000020000000E
:103CB0000100000002000000010000000000000000
:103CC00001000000000000000100000000000000F2
:103CD00001000000000000000100000000000000E2
:103CE00001000000000000000100000000000000D2
:103CF00001000000000000000100000000000000C2
:103D00001000000010000000000000000A00000089
:103D1000000000000A000000000000000A0000008F
:103D2000000000000A000000000000000A0000007F
:103D3000000000000A000000010000000500000073
:103D40000100000005000000010000000500000067
:103D50000100000005000000010000000500000057
:103D6000010000000C000000010000000C00000039
:103D7000010000000C000000010000000C00000029
:103D8000010000000C000000100000001000000006
:103D9000000000000B000000010000000C0000000B
:103DA000010000000C000000010000000C000000F9
:103DB000010000000C000000010000000C000000E9
:103DC000010000000C000000010000000C000000D9
:103DD000010000000C000000010000000C000000C9
:103DE000010000000C000000010000000C000000B9
:103DF000010000000C000000010000000C000000A9
:103E0000010000000C000000010000000C00000098
:103E1000000000000B000000010000000C0000008A
:103E2000010000000C000000010000000C00000078
:103E3000010000000C000000010000000F00000065
:103E4000010000000F000000010000000F00000052
:103E5000010000000F000000010000000F00000042
:103E6000010000000F000000010000000F00000032
:103E7000010000000F000000010000000F00000022
:103E8000010000000F000000010000000F00000012
:103E9000010000000F000000010000000F00000002
:103EA000000000000D000000000000000D000000F8
:103EB000010000000F000000010000000E000000E3
:103EC000010000000E000000010000000E000000D4
:103ED000010000000E000000010000000E000000C4
:103EE000010000000E000000010000000E000000B4
:103EF000010000000E000000010000000E000000A4
:103F0000010000000E000000010000000E00000093
:103F1000010000000E000000010000000E00000083
:103F2000000000000D000000010000000E00000075
:103F3000010000000E000000010000000F00000062
:103F4000010000000F000000010000000F00000051
:103F5000010000000F000000010000000F00000041
:103F6000010000000F000000010000000F00000031
:103F7000010000000F000000010000000F00000021
:103F8000010000000F000000010000000F00000011
:103F9000000000000B000000000000000B0000000B
:103FA000000000000B000000010000000F000000F6
:103FB000010000000F0000000100000002000000EE
:103FC00000000000010000000100000002000000ED
:103FD00001000000020000000100000002000000DB
:103FE00001000000020000000100000002000000CB
:103FF00001000000020000000100000002000000BB
:1040000001000000020000000100000002000000AA
:10401000010000000200000001000000020000009A
:10402000010000000200000001000000020000008A
:10403000100000001000000001000000000000005F
:10404000000000000100000000000000010000006E
:10405000000000000100000000000000010000005E
:10406000000000000100000000000000010000004E
:10407000000000000100000000000000010000003E
:10408000000000000100000000000000010000002E
:10409000000000000100000000000000010000001E
:1040A000000000000100000000000000010000000E
:1040B00000000000010000000100000002000000FC
:1040C00000000000010000000100000002000000EC
:1040D00001000000020000000100000002000000DA
:1040E00001000000020000000100000002000000CA
:1040F00001000000020000000100000002000000BA
:1041000001000000020000000100000002000000A9
:104110000100000002000000010000000200000099
:104120000100000002000000010000000200000089
:104130000100000002000000010000000900000072
:104140000100000009000000100000001000000045
:104150000000000003000000000000000300000059
:104160000000000003000000000000000300000049
:104170000000000003000000000000000300000039
:10418000010000000900000001000000090000001B
:10419000010000000900000001000000090000000B
:1041A00001000000090000000100000009000000FB
:1041B00001000000090000000100000005000000EF
:1041C00001000000050000000100000005000000E3
:1041D00010000000100000000000000004000000BB
:1041E00001000000050000000100000005000000C3
:1041F00001000000050000000100000005000000B3
:1042000001000000050000000100000005000000A2
:104210000100000005000000010000000500000092
:104220000100000005000000010000000500000082
:104230000100000005000000010000000500000072
:104240000100000005000000010000000500000062
:104250000100000005000000000000000400000054
:104260000100000005000000010000000500000042
:104270000100000005000000010000000500000032
:104280000100000005000000010000000500000022
:104290000100000005000000010000000500000012
:1042A0000100000005000000010000000500000002
:1042B00001000000050000000100000008000000EF
:1042C00001000000080000000100000008000000DC
:1042D00001000000080000000000000006000000CF
:1042E00010000000100000000000000006000000A8
:1042F00000000000060000000100000008000000AF
:10430000010000000800000001000000080000009B
:10431000010000000800000001000000080000008B
:10432000010000000800000001000000080000007B
:10433000010000000800000001000000070000006C
:10434000010000000700000001000000070000005D
:10435000010000000700000001000000070000004D
:10436000010000000700000000000000060000003F
:10437000010000000700000001000000070000002D
:10438000010000000700000001000000070000001D
:10439000010000000700000001000000070000000D
:1043A00001000000070000000100000007000000FD
:1043B00001000000070000000100000008000000EC
:1043C00001000000080000000100000008000000DB
:1043D00001000000080000000000000004000000D0
:1043E00000000000040000000000000004000000C5
:1043F0001000000010000000010000000800000094
:10440000010000000800000001000000080000009A
:10441000010000000800000001000000080000008A
:10442000010000000800000001000000080000007A
:104430000100000008000000010000000200000070
:104440000000000001000000010000000200000068
:104450000100000002000000010000000200000056
:104460000100000002000000010000000200000046
:104470000100000002000000100000001000000019
:104480000100000002000000010000000200000026
:104490000100000002000000010000000200000016
:1044A0000100000002000000010000000200000006
:1044B00001000000020000000100000000000000F8
:1044C00001000000000000000100000000000000EA
:1044D00001000000000000000100000000000000DA
:1044E00001000000000000000100000000000000CA
:1044F00001000000000000000100000000000000BA
:104500001000000010000000000000000A00000081
:10451000000000000A000000000000000A00000087
:10452000000000000A000000000000000A00000077
:10453000000000000A00000001000000050000006B
:10454000010000000500000001000000050000005F
:10455000010000000500000001000000050000004F
:10456000010000000C000000010000000C00000031
:10457000010000000C000000010000000C00000021
:10458000010000000C0000001000000010000000FE
:10459000000000000B000000010000000C00000003
:1045A000010000000C000000010000000C000000F1
:1045B000010000000C000000010000000C000000E1
:1045C000010000000C000000010000000C000000D1
:1045D000010000000C000000010000000C000000C1
:1045E000010000000C000000010000000C000000B1
:1045F000010000000C000000010000000C000000A1
:10460000010000000C000000010000000C00000090
:10461000000000000B000000010000000C00000082
:10462000010000000C000000010000000C00000070
:10463000010000000C000000010000000F0000005D
:10464000010000000F000000010000000F0000004A
:10465000010000000F000000010000000F0000003A
:10466000010000000F000000010000000F0000002A
:10467000010000000F000000010000000F0000001A
:10468000010000000F000000010000000F0000000A
:10469000010000000F000000010000000F000000FA
:1046A000000000000D000000000000000D000000F0
:1046B000010000000F000000010000000E000000DB
:1046C000010000000E000000010000000E000000CC
:1046D000010000000E000000010000000E000000BC
:1046E000010000000E000000010000000E000000AC
:1046F000010000000E000000010000000E0000009C
:10470000010000000E000000010000000E0000008B
:10471000010000000E000000010000000E0000007B
:10472000000000000D000000010000000E0000006D
:10473000010000000E000000010000000F0000005A
:10474000010000000F000000010000000F00000049
:10475000010000000F000000010000000F00000039
:10476000010000000F000000010000000F00000029
:10477000010000000F000000010000000F00000019
:10478000010000000F000000010000000F00000009
:10479000000000000B000000000000000B00000003
:1047A000000000000B000000010000000F000000EE
:1047B000010000000F0000000100000002000000E6
:1047C00000000000010000000100000002000000E5
:1047D00001000000020000000100000002000000D3
:1047E00001000000020000000100000002000000C3
:1047F00001000000020000000100000002000000B3
:1048000001000000020000000100000002000000A2
:104810000100000002000000010000000200000092
:104820000100000002000000010000000200000082
:10483000100000001000000000010001010202034E
:10484000090304050404050506080606070704080D
:10485000080102090A000A0B0C0B0B0C0C0D0F0DC2
:104860000D0E0E0B0F0F0102370000003800000084
:10487000390000000000000040000000410000007E
:10488000420000000000000004000000CD00000015
:10489000CE000000CF00000000000000CA000000B1
:1048A000CB000000CC00000000000000D60000009B
:1048B000D7000000D800000000000000D300000076
:1048C000D4000000D500000000000000D00000006F
:1048D000D1000000D2000000000000009D00000098
:1048E0009E0000009F000000000000009A000000F1
:1048F0009B0000009C0000000000000097000000EA
:104900009800000099000000000000001300000063
:10491000140000001500000000000000100000005E
:104920001100000012000000000000000D00000057
:104930000E0000000F000000000000000900000051
:104940000A0000000B00000000000000060000004C
:1049500007000000080000000000000079000000CF
:104960007A0000007B0000000000000076000000DC
:1049700077000000780000000000000073000000D5
:1049800074000000750000000000000070000000CE
:104990007100000072000000000000006D000000C7
:1049A0006E0000006F000000000000006A000000C0
:1049B0006B0000006C00000000000000BB00000065
:1049C000BC000000BD00000000000000B8000000B6
:1049D000B9000000BA00000000000000B5000000AF
:1049E000B6000000B700000000000000B2000000A8
:1049F000B3000000B400000000000000AF000000A1
:104A0000B0000000B100000000000000AC00000099
:104A1000AD000000AE00000000000000A900000092
:104A2000AA000000AB00000000000000A60000008B
:104A3000A7000000A80000000000000043000000E4
:104A40004400000045000000000000003D000000A0
:104A50003E0000003F000000000000003A0000009F
:104A60003B0000003C0000000000000000A24A04DF
:104A7000741600200000000000000000000000008C
:104A80000000000000000000000000000000000026
:104A90000000000000000000000000000000000016
:104AA0000000000000000000000000000000000006
:104AB00000000000000000000000000000000000F6
:104AC00000000000000000000000000000000000E6
:104AD0000000000043000000000000000000000093
:104AE00000000000000000000000000000000000C6
:104AF0000000000043000000000000000000000073
:104B000000000000000000000000000000000000A5
:104B10000000000043000000000000000000000052
:104B20000000000000000000000000000000000085
:104B30000000000043000000000000000000000032
:104B40000000000000000000000000000000000065
:104B50000000000043000000000000000000000012
:104B60000000000000000000000000000000000045
:104B700000000000430000000000000000000000F2
:104B80000000000000000000000000000000000025
:104B900000000000430000000000000000000000D2
:104BA0000000000000000000000000000000000005
:104BB00000000000492B00087125000800000000DB
:104BC000ED320008B8320008BF320008BF320008DA
:104BD000BF320008BF320008BF320008BF320008F1
:104BE000BF320008BF320008BF320008FFFFFFFFDE
:104BF000FFFFFFFFFFFFFFFFFFFF0000010041532A
:104C000043494900000000000000000000000000CF
:104C10000000000000000000000000000000415300
:104C200043494900000000000000000000000000AF
:104C30000000000000000000000000000000000074
:04000005080020E1EE
:00000001FF
