:020000040800F2
:10000000005000201D1B0008A91A0008AB1A0008A8
:10001000AD1A0008AF1A0008B11A0008000000006D
:10002000000000000000000000000000B31A0008FB
:10003000B51A000800000000B71A0008B91A000835
:10004000651B0008651B0008651B0008651B000890
:10005000651B0008651B0008651B0008651B000880
:10006000651B0008651B0008651B0008651B000870
:10007000651B0008651B0008651B0008651B000860
:10008000651B0008651B0008651B0008651B000850
:10009000651B0008651B0008651B0008651B000840
:1000A000651B0008C11A0008651B0008651B0008D5
:1000B000651B0008651B0008651B0008651B000820
:1000C000651B0008651B0008651B0008651B000810
:1000D000651B0008651B0008651B0008651B000800
:1000E000651B0008651B0008651B00080000000078
:1000F0000000000000000000000000000000000000
:0C01000000000000000000005FF808F1A3
:10010C0010B5054C237833B9044B13B10448AFF345
:10011C0000800123237010BDC017002000000000D8
:10012C008424000808B5034B1BB103490348AFF303
:10013C00008008BD00000000C417002084240008C3
:10014C0008B5074A136843F010031360032000F04E
:10015C001BF8002001F066FC01F0DEFB002008BD5E
:10016C0000200240034A1168034B1B780B441360B8
:10017C00704700BF9C19002000000020014B18683C
:10018C00704700BF9C190020074AD36823F4E06332
:10019C001B041B0C000200F4E060184340F0BF602D
:1001AC0040F40030D060704700ED00E030B4174BE5
:1001BC00DB68C3F30223C3F10704042C28BF042417
:1001CC001D1D062D18D9033B4FF0FF3505FA04F41D
:1001DC0021EA0401994005FA03F322EA03031943C7
:1001EC0000280BDB0901C9B200F1604000F5614049
:1001FC0080F8001330BC70470023E5E700F00F00D7
:10020C000901C9B2024B1954F4E700BF00ED00E03C
:10021C0014ED00E000F01F02400901239340024A54
:10022C0042F82030704700BF00E100E00138B0F127
:10023C00807F0AD2064B5860064AF02182F82310C0
:10024C000020986007221A6070470120704700BF99
:10025C0010E000E000ED00E0042805D0054A13682A
:10026C0023F0040313607047024A136843F004033D
:10027C001360704710E000E0704708B5FFF7FCFF13
:10028C0008BD0000F0B482B000263546A1E0002C79
:10029C0059D0012C00D1CE68FF2B68D88446FF2B97
:1002AC0068D8AC00DCF800200F27A74022EA070230
:1002BC0006FA04F42243CCF800204A6812F0805F5E
:1002CC0000F086805E4A946944F00104946192695E
:1002DC0002F001020192019AAC08A71C594A52F88B
:1002EC00272005F00307BF004FF00F0C0CFA07FC9A
:1002FC0022EA0C0C544A904242D002F580629042A1
:10030C007FD002F5806290427DD002F580629042EF
:10031C0034D0042235E04D4FBC4214D00BD94C4F95
:10032C00BC4210D007F58037BC420CD0A7F5801723
:10033C00BC42B1D107E0A7F58017BC4203D007F54A
:10034C008037BC42A8D18C687CB1012C08D04261AA
:10035C000826A1E7CE6808369EE7CE680C369BE7E8
:10036C000261082698E7002696E7042694E700F138
:10037C00040C94E7A5F10804A40093E7032200E021
:10038C000022BA4042EA0C0202342E4F47F82420D5
:10039C004A6812F4803F38D02E4C22681A432260EF
:1003AC004A6812F4003F36D02A4C62681A436260E5
:1003BC004A6812F4801F34D0264CA2681A43A260FB
:1003CC004A6812F4001F32D0224CE2681343E360F7
:1003DC0001350F2D31D80122AA400B6813409A42E7
:1003EC00F6D14C68122CB8D095D8022CB2D07FF62E
:1003FC004EAF032CB7D0112C7FF44EAFCE68043621
:10040C004AE70122BDE70222BBE7124C226822EA2E
:10041C0003022260C4E70F4C626822EA03026260A6
:10042C00C6E70C4CA26822EA0302A260C8E7094C9A
:10043C00E26822EA0303E360CAE702B0F0BC70474B
:10044C000010024000000140000801400000211093
:10045C0000003110000401408368194201D10020D2
:10046C0070470120704712B909040161704701619E
:10047C007047000082B0084B1B68084AA2FB03239C
:10048C005B0A00FB03F0019000BF019B5A1E019216
:10049C00002BF9D102B07047EC150020D34D62103F
:1004AC0070B582B00446036813F0010F2CD0AB4B2F
:1004BC005B6803F00C03042B1DD0A84B5B6803F0A6
:1004CC000C03082B12D06368B3F5803F41D0002B8E
:1004DC0055D103F1804303F504331A6822F48032BA
:1004EC001A601A6822F480221A6037E09B4B5B6812
:1004FC0013F4803FE7D0994B1B6813F4003F03D0F3
:10050C006368002B00F0AE81236813F0020F76D0E5
:10051C00924B5B6813F00C0F5FD0904B5B6803F051
:10052C000C03082B54D02369002B00F08A808C4BD1
:10053C0001221A60FFF722FE0546884B1B6813F058
:10054C00020F75D1FFF71AFE401B0228F5D90320C4
:10055C008BE1824A136843F480331360636843B3BE
:10056C00FFF70CFE05467D4B1B6813F4003FCBD107
:10057C00FFF704FE401B6428F5D9032075E1B3F5A1
:10058C00A02F09D0754B1A6822F480321A601A68B1
:10059C0022F480221A60E1E703F18043A3F53C3397
:1005AC001A6842F480221A601A6842F480321A6087
:1005BC00D4E7FFF7E3FD0546684B1B6813F4003FD7
:1005CC00A2D0FFF7DBFD401B6428F5D903204CE1DA
:1005DC00624B5B6813F4803FA5D1604B1B6813F032
:1005EC00020F04D02369012B01D001203DE15B4AAD
:1005FC00136823F0F803616943EAC10313602368AD
:10060C0013F0080F32D0A369002B5BD0554B01229D
:10061C001A60FFF7B3FD0546504B5B6A13F0020FEF
:10062C0021D1FFF7ABFD401B0228F5D903201CE1BB
:10063C004A4A136823F0F803616943EAC103136063
:10064C00DDE7474B00221A60FFF798FD0546434B48
:10065C001B6813F0020FD2D0FFF790FD401B02284D
:10066C00F5D9032001E10120FFF704FF236813F003
:10067C00040F00F09780394BDB6913F0805F33D1A6
:10068C00364BDA6942F08052DA61DB6903F0805351
:10069C000193019B0125344B1B6813F4807F25D0FB
:1006AC00E368012B36D0002B4CD103F1804303F5CA
:1006BC0004331A6A22F001021A621A6A22F0040246
:1006CC001A622CE0274B00221A60FFF757FD0546F3
:1006DC00224B5B6A13F0020FC8D0FFF74FFD401B93
:1006EC000228F5D90320C0E00025D4E71E4A136880
:1006FC0043F480731360FFF741FD06461A4B1B68E9
:10070C0013F4807FCCD1FFF739FD801B6428F5D919
:10071C000320AAE0114A136A43F001031362E36851
:10072C0073B3FFF72BFD06460C4B1B6A13F0020F3D
:10073C0037D1FFF723FD801B41F288339842F3D960
:10074C00032092E0052B11D0044B1A6A22F001020F
:10075C001A621A6A22F004021A62E0E700100240E0
:10076C00000042428004424200700040414B1A6A31
:10077C0042F004021A621A6A42F001021A62CEE7CF
:10078C00FFF7FCFC06463B4B1B6A13F0020F08D02C
:10079C00FFF7F4FC801B41F288339842F3D9032015
:1007AC0063E0E5B9E369002B5ED0324A526802F08F
:1007BC000C02082A5BD0022B17D02F4B00221A6098
:1007CC00FFF7DCFC04462B4B1B6813F0007F47D073
:1007DC00FFF7D4FC001B0228F5D9032045E0254A7D
:1007EC00D36923F08053D361DCE7234B00221A60DA
:1007FC00FFF7C4FC05461F4B1B6813F0007F06D0A7
:10080C00FFF7BCFC401B0228F5D903202DE0236A1E
:10081C00B3F5803F1AD017494B6823F47413226A3E
:10082C00606A024313434B60134B01221A60FFF7BB
:10083C00A5FC04460F4B1B6813F0007F0ED1FFF78D
:10084C009DFC001B0228F5D903200EE0094A5368D1
:10085C0023F40033A1680B435360DCE7002004E071
:10086C00002002E0012000E0002002B070BD012059
:10087C00FBE700BF001002406000424210B487B09A
:10088C00164C94E80F000DF1180C0CE90F00238A9C
:10089C00ADF80430124B5B6803F00C02082A1AD135
:1008AC00C3F38342624412F8102C13F4803F05D139
:1008BC000C4800FB02F007B010BC7047084B5B689B
:1008CC00C3F34043634413F8143C074800FB02F0A5
:1008DC00B0FBF3F0EFE70448EDE700BF9C24000801
:1008EC000010024000093D0000127A00594B1B68B1
:1008FC0003F007038B420CD2564A136823F007030C
:10090C000B431360136803F007038B4201D00120E3
:10091C00704770B5036813F0020F06D04E4A536847
:10092C0023F0F0038468234353600C4605460368A8
:10093C0013F0010F52D04368012B23D0022B28D087
:10094C00454A126812F0020F00F0828042494A6850
:10095C0022F0030213434B60FFF710FC06466B6852
:10096C00012B1DD0022B2AD03B4B5B6813F00C0FD4
:10097C0034D0FFF703FC801B41F288339842F3D943
:10098C00032064E0344A126812F4003FDED10120E7
:10099C005DE0314A126812F0007FD7D1012056E099
:1009AC002D4B5B6803F00C03042B17D0FFF7E6FB11
:1009BC00801B41F288339842F2D9032047E0264B42
:1009CC005B6803F00C03082B08D0FFF7D7FB801BE8
:1009DC0041F288339842F2D9032038E01D4B1B6852
:1009EC0003F00703A3420CD91A4A136823F0070338
:1009FC0023431360136803F00703A34201D00120C3
:100A0C0025E02B6813F0040F06D0134A536823F427
:100A1C00E063E9680B4353602B6813F0080F07D0B1
:100A2C000D4A536823F46053296943EAC1035360A8
:100A3C00FFF724FF084B5B68C3F30313074AD35C2F
:100A4C00D840074B1860002000F0ECFF002070BD70
:100A5C000120FCE70020024000100240B0240008F6
:100A6C00EC150020014B1868704700BFEC150020F6
:100A7C0008B5FFF7F7FF044B5B68C3F30223034A87
:100A8C00D35CD84008BD00BF00100240C024000851
:100A9C0008B5FFF7E7FF044B5B68C3F3C223034AB7
:100AAC00D35CD84008BD00BF00100240C024000831
:100ABC000F2303600B4B5A6802F0030242605A6822
:100ACC0002F0F00282605A6802F4E062C2605B6875
:100ADC00DB0803F4E0630361034B1B6803F00703BB
:100AEC000B60704700100240002002407047026803
:100AFC00D36843F00103D3600268136843F0010329
:100B0C00136000207047704770477047704710B5EE
:100B1C00044603681A6912F0020F11D0DA6812F059
:100B2C00020F0DD06FF002021A61012303770368E4
:100B3C009B6913F0030F70D0FFF7E6FF00232377B8
:100B4C0023681A6912F0040F12D0DA6812F0040F3D
:100B5C000ED06FF004021A610223237723689B697D
:100B6C0013F4407F5FD02046FFF7CEFF002323779E
:100B7C0023681A6912F0080F12D0DA6812F0080F05
:100B8C000ED06FF008021A61042323772368DB6907
:100B9C0013F0030F4ED02046FFF7B6FF0023237748
:100BAC0023681A6912F0100F12D0DA6812F0100FC5
:100BBC000ED06FF010021A61082323772368DB69CB
:100BCC0013F4407F3DD02046FFF79EFF0023237790
:100BDC0023681A6912F0010F03D0DA6812F0010FC2
:100BEC0036D123681A6912F0800F03D0DA6812F03C
:100BFC00800F34D123681A6912F0400F03D0DA68E1
:100C0C0012F0400F32D123681A6912F0200F03D072
:100C1C00DA6812F0200F30D110BDFFF774FF2046B8
:100C2C00FFF773FF8AE72046FFF76DFF2046FFF7BB
:100C3C006CFF9BE72046FFF766FF2046FFF765FF3A
:100C4C00ACE72046FFF75FFF2046FFF75EFFBDE7EE
:100C5C006FF001021A61204600F0DAFCC1E76FF078
:100C6C0080021A61204600F063F8C3E76FF040027F
:100C7C001A612046FFF74AFFC5E76FF020021A61A0
:100C8C00204600F054F8C7E703681B4A90420AD08C
:100C9C00B0F1804F07D0A2F59432904203D002F508
:100CAC008062904203D123F070034A681343124AC6
:100CBC0090420AD0B0F1804F07D0A2F59432904206
:100CCC0003D002F58062904203D123F44073CA68CA
:100CDC00134323F080034A69134303608B68C36298
:100CEC000B688362044B984202D001234361704726
:100CFC000B690363F9E700BF002C0140A8B110B5E4
:100D0C00044690F83D305BB1022384F83D30211D40
:100D1C002068FFF7B9FF012384F83D30002010BD97
:100D2C0080F83C30FFF7E2FEEEE701207047704799
:100D3C00704700002DE9F84305460268136923F457
:100D4C004053C1680B4313618368026913434269C2
:100D5C0013430168CA6822F4B05222F00C02134308
:100D6C00CB600268536923F4407381690B43536170
:100D7C000268594B9A4257D0FFF77AFE00EB80007D
:100D8C0000EB80006C68A400B0FBF4F4534FA7FB9D
:100D9C00043464092601FFF76BFE00EB800000EBC6
:100DAC0080006C68A400B0FBF4F9FFF761FE00EB67
:100DBC00800000EB80006C68A400B0FBF4F4A7FB8F
:100DCC00043464094FF0640808FB14942401323491
:100DDC00A7FB0434640904F0F0043444FFF748FE24
:100DEC0000EB800000EB80006E68B600B0FBF6F6FE
:100DFC00FFF73EFE00EB800000EB80006B689B0071
:100E0C00B0FBF3F0A7FB0030400908FB10684FEA79
:100E1C00081808F13208A7FB0837C7F343172B68EB
:100E2C0027449F60BDE8F883FFF732FE00EB80009B
:100E3C0000EB80006C68A400B0FBF4F4274FA7FB18
:100E4C00043464092601FFF723FE00EB800000EB5D
:100E5C0080006C68A400B0FBF4F9FFF719FE00EBFE
:100E6C00800000EB80006C68A400B0FBF4F4A7FBDE
:100E7C00043464094FF0640808FB149424013234E0
:100E8C00A7FB0434640904F0F0043444FFF700FEBB
:100E9C0000EB800000EB80006E68B600B0FBF6F64D
:100EAC00FFF7F6FD00EB800000EB80006B689B0009
:100EBC00B0FBF3F0A7FB0030400908FB10684FEAC9
:100ECC00081808F13208A7FB0837C7F343172B683B
:100EDC0027449F60A6E700BF003801401F85EB51F7
:100EEC0058B310B5044690F839300BB3242384F86A
:100EFC0039302268D36823F40053D3602046FFF7BF
:100F0C0019FF2268136923F4904313612268536913
:100F1C0023F02A0353612268D36843F40053D3604F
:100F2C000020E063202384F8393084F83A3010BD77
:100F3C0080F8383000F040FDD8E701207047000001
:100F4C0070B506460D4600243F2C10DC094B03EB14
:100F5C0004132946D86800F007FF08B10134F3E701
:100F6C00044B03EB041494E80F0086E80F003046A2
:100F7C0070BD00BF0800002001EB0011014B53F8BD
:100F8C00310070470804002030B589B0214B9A69B4
:100F9C0042F010029A619A6902F010020092009AD3
:100FAC009A6942F020029A619A6902F02002019239
:100FBC00019A9A6942F008029A619A6902F0080251
:100FCC000292029A9A6942F004029A619B6903F0B8
:100FDC0004030393039B104D00224FF4B051284699
:100FEC00FFF741FA4FF40043049300240594069450
:100FFC0004A90A48FFF746F94FF4B05304930123B0
:10100C00059306940223079304A92846FFF73AF99F
:10101C0009B030BD0010024000080140000C014036
:10102C00012907D021B900EB4000054B1844437847
:10103C001846704700EB4000014B18448378F7E7E3
:10104C00380C002010B50A4C00224FF400712046D9
:10105C00FFF709FA00224FF480612046FFF703FAEC
:10106C0000224FF480512046FFF7FDF910BD00BF60
:10107C000008014070B505460E460F4C00224FF497
:10108C0000712046FFF7EFF9F2B24FF48061204671
:10109C00FFF7E9F9EAB24FF480512046FFF7E3F984
:1010AC0001224FF400712046FFF7DDF94FF40041A7
:1010BC000248FFF7D1F970BD00080140000C014057
:1010CC0038B500240AE001210020FFF7D3FF054DBD
:1010DC0001212878FFF7A4FF28700134042CF2DDDD
:1010EC0038BD00BFE017002070B50E460DE031464C
:1010FC00FFF742FF054601460020FFF7BBFF054CFA
:10110C0029462078FFF78CFF2070024B1878B042EC
:10111C00EDD170BDE0170020D0B506460F46144641
:10112C0008E006F001010020FFF7A4FF013C7F0856
:10113C004FEA3606002CF4DCD0BD000008B5322294
:10114C004FF0FF300549FFF7E7FF10224EF23C70DD
:10115C000021FFF7E1FFFFF7B3FF08BDFFFF03001E
:10116C002DE9F04F85B0924600220023CDE90023F3
:10117C00002680468946D3462EE0002108F0010067
:10118C00FFF778FF07460246C317CDE90223DFF8C5
:10119C009CA000219AF80000FFF742FF8AF800009B
:1011AC00A6F12002C6F12003039901FA06F507FA0D
:1011BC0002F2154327FA03F31D4307FA06F4DDE99F
:1011CC00002322432B43CDE900235FEA59094FEA60
:1011DC00380801360BF1FF3BBBF1010FCDDC0121CF
:1011EC0008EA0100FFF746FF0746C517DFF83C8009
:1011FC00012198F80000FFF713FF88F80000A6F112
:10120C002002C6F1200305FA06F107FA02F2114397
:10121C0027FA03F3194307FA06F0DDE90034034318
:10122C000C431846214605B0BDE8F08FE0170020AE
:10123C0038B504460D460B211046FFF755FF2A46DC
:10124C002046E117FFF78CFF01210C20FFF74CFF24
:10125C0038BD70B504460D46164604210120FFF733
:10126C0043FF324620462946FFF77AFF04460D46D7
:10127C0001210520FFF738FF2046294670BD38B5FF
:10128C0014461D460122FFF7D3FF2A462046E117DC
:10129C00FFF7DFFF38BD38B514461D460122FFF7B6
:1012AC00C7FF2A462046E117FFF7D3FF38BD38B5F4
:1012BC0004460D46FFF704FF04210020FFF714FF3E
:1012CC002A462046E117FFF74BFF04460D46012145
:1012DC000520FFF709FF2046294638BD002304E00E
:1012EC00C11800228A77C25401331C2BF8DD7047D9
:1012FC002DE9F04F83B081468A4600260027CDE9C0
:10130C00006700210846FFF7B5FEC117CDE90001C3
:10131C00002504E0EC1D08E001350AF1FF3ABAF1B2
:10132C00010F32DD2C46002DF4DBE41009EB040830
:10133C0098F81E00002100F00100FFF79BFEC1177A
:10134C00CDE90001DFF888B000219BF80000FFF721
:10135C0067FE8BF80000DDE90023B24019F8043079
:10136C001343DBB209F8043098F81E305B0888F898
:10137C001E30721C47F1000302F00706002756EAE4
:10138C000701C9D016461F46C6E72C46002D1CDBAC
:10139C00E41009EB0403987F01210840FFF76AFE73
:1013AC00C117CDE900010A4D01212878FFF738FE5D
:1013BC002870DDE90023B24019F804601643F6B238
:1013CC0009F8046003B0BDE8F08FEC1DE0E700BF46
:1013DC00E017002084B00DF1100C0CE90E00019BFD
:1013EC001A46002B0EDBD210805CC0B25A4203F0BE
:1013FC00070302F0070258BF5342184100F00100E6
:10140C0004B07047DA1DEEE70B46002905DBDB1054
:10141C002AB1012A10D000200BE0CB1DF7E7C05CED
:10142C00C0B24B4201F0070103F0070358BF594209
:10143C00084100F0010070470344987FC0B24B4252
:10144C0001F0070103F0070358BF59420841F0E7C8
:10145C0010B5044604210120FFF746FEE821204682
:10146C00FFF746FF01210520FFF73EFE10BD30B50A
:10147C0085B0054601AC84E80E00012209212F201D
:10148C00FFF7D6FE2846FFF7E3FF94E80E00284648
:10149C00FFF7A0FF05B030BD84B00DF1100C0CE9C6
:1014AC000E00039B1A46002B13DB00EBE200827F3D
:1014BC0052B2594203F0070301F0070158BF4B42E7
:1014CC009DF8101001FA03F31343DBB2837704B0D9
:1014DC007047DA1DE9E784B00DF1100C0CE90E0031
:1014EC00029B1A46002B12DB00EBE200827F52B209
:1014FC00594203F0070301F0070158BF4B4204990E
:10150C0001FA03F31343DBB2837704B07047DA1D9F
:10151C00EAE7000030B587B0054603AC84E80E005E
:10152C000A9B009394E80E00FFF7D5FF0B4B93F842
:10153C003030032B04D0012209212F20FFF778FE35
:10154C0004210120FFF7D0FDE8212846FFF7D0FE4B
:10155C0001210520FFF7C8FD07B030BD380C002075
:10156C00014B83F830007047380C002010B586B062
:10157C0003AC84E80E00089B009394E80E00FFF780
:10158C00C9FF074B93F83030032B07D001220921F8
:10159C000F20FFF74DFE0320FFF7E2FF06B010BD52
:1015AC00380C002000200B5C43B1054A126812F085
:1015BC00800FF8D0024A53600130F4E7704700BF47
:1015CC000038014008B50C4900F0CEFB20B10B49A6
:1015DC000B48FFF7E7FF08BD40230A4A09211E20EC
:1015EC00FFF759FE02460B4607488260C160074967
:1015FC00103000F099FBEAE788250008F01700206E
:10160C0000380140CDAB3412E017002094250008BF
:10161C0008B50268034B9A4200D008BDFEF7A2FD44
:10162C00FBE700BF002C0140FEE7000008B50B48AB
:10163C000B4B03604FF4E133436000238360C360C2
:10164C0003610C2242618361C361FFF749FC00B95D
:10165C0008BD40F25F310348FFF7E6FFDC190020BC
:10166C0000380140D425000800B591B00122069243
:10167C004FF480330793002108910A9202220D92B5
:10168C000E934FF4E0130F9306A8FEF709FF08BB67
:10169C000F23019302210291002303934FF48062E4
:1016AC000492059301A8FFF721F9C0B9FFF7DAF905
:1016BC000D4BA3FB00308009FEF7B8FD0420FEF7AC
:1016CC00CBFD002211464FF0FF30FEF76FFD11B03D
:1016DC005DF804FB4FF44D710448FFF7A5FF40F291
:1016EC0042310248FFF7A0FFD34D6210D425000809
:1016FC0080B58AB000240025CDE90845CDE9064522
:10170C0050227D497D4800F04DFA7D4902A8FFF733
:10171C0017FCFEF715FDFFF7A7FFFFF735FCFFF7EA
:10172C0085FFFFF70BFDFFF78DFC0A2371220921C2
:10173C0040F2FF10FFF7A3FDCDE90801CDE9084504
:10174C00704E4023324609211E20FFF7A4FDCDE93F
:10175C000801CDE9084540213046FFF7A8FDCDE949
:10176C000801CDE9084540234FF0FF3209211F2025
:10177C00FFF791FDCDE90801DDE908235B084FEA8D
:10178C003202CDE90823CDE9084540234FF0FF3262
:10179C0009214FF4FF70FFF77EFDCDE90801CDE97B
:1017AC000845594D2846FFF799FD584C01270097DD
:1017BC0004F1340696E80E002846FFF76DFE96E815
:1017CC000E002846FFF753FEC117CDE9080100971C
:1017DC0096E80E002846FFF77EFE3A46A16B284697
:1017EC00FFF712FEC117CDE9080100260096403420
:1017FC0094E80E002846FFF74FFE009794E80E0081
:10180C002846FFF7B3FE009694E80E002846FFF733
:10181C00ADFE009794E80E002846FFF7A7FE009750
:10182C0094E80E002846FFF7A1FE009794E80E00FE
:10183C002846FFF79BFE009694E80E002846FFF71B
:10184C0095FE009694E80E002846FFF78FFE009652
:10185C0094E80E002846FFF789FE18E0DDE9061231
:10186C002B4B0B4493F81031DBB2082B2BD0DDE95A
:10187C000612274B0B4493F81031DBB20A2B2BD0FA
:10188C00DDE90601421C41F10003CDE90623214BA1
:10189C001B6813F0200FFAD01E494A68DDE9064593
:1018AC00D2B21B4B234483F810210B6813F0800F2A
:1018BC00D4D0DDE90612164B0B4493F81031DBB291
:1018CC00144A5360CAE7DDE9060110F1FF3241F119
:1018DC00FF33CDE90623DAE7DDE906230C480244A1
:1018EC00002382F8103100F58870FFF76BFE0022A0
:1018FC000023CDE90623CAE7E42500087018002070
:10190C0034260008CDAB3412A0190020380C00206E
:10191C00E01700200038014000B583B0244B9A69D1
:10192C0042F001029A619A6902F001020092009A57
:10193C00DA6942F08052DA61DB6903F0805301937B
:10194C00019B0320FEF720FC002211466FF00B00D8
:10195C00FEF72CFC002211466FF00A00FEF726FC65
:10196C00002211466FF00900FEF720FC0022114600
:10197C006FF00400FEF71AFC002211466FF0030012
:10198C00FEF714FC002211466FF00100FEF70EFC6E
:10199C00002211464FF0FF30FEF708FC054A536851
:1019AC0023F0E06343F00073536003B05DF804FB75
:1019BC0000100240000001400268174B9A4200D010
:1019CC00704710B586B003F558439A6942F48042CB
:1019DC009A619B6903F480430193019B402302931A
:1019EC0002230393032305930C4C02A92046FEF714
:1019FC0049FC8023029300230393049302A92046FD
:101A0C00FEF740FC064A536843F0E06343F00403DE
:101A1C00536006B010BD00BF00380140000C0140FF
:101A2C000000014000B589B0002201461920FEF7E4
:101A3C00BDFB1920FEF7EEFB144B9A6942F40062D1
:101A4C009A619B6903F400630193019B02A903A8AB
:101A5C00FFF72EF8FFF71CF80D4BA3FB00239B0C94
:101A6C00013B0C480C4A026040F2E732C260436012
:101A7C00002303618360FFF741F918B1012009B01D
:101A8C005DF804FB0348FFF732F8F8E7001002405A
:101A9C0083DE1B431C1A0020002C01407047FEE71C
:101AAC00FEE7FEE7FEE770477047704708B5FEF7A4
:101ABC00E4FB08BD08B50248FFF729F808BD00BFD4
:101ACC001C1A00200F4B1A6842F001021A60596868
:101ADC000D4A0A405A601A6822F0847222F480324D
:101AEC001A601A6822F480221A605A6822F4FE02E4
:101AFC005A604FF41F029A60044B4FF000629A60D8
:101B0C00704700BF001002400000FFF800ED00E03D
:101B1C00002103E00B4B5B58435004310A480B4B3C
:101B2C0042189A42F6D30A4A02E0002342F8043BD8
:101B3C00084B9A42F9D3FFF7C5FF00F00FF8FFF7F7
:101B4C00D7FD70478027000800000020C017002038
:101B5C00C0170020601A0020FEE7000070B50025B9
:101B6C000C4E0D4CA41BA410A54209D100F084FC12
:101B7C0000250A4E0A4CA41BA410A54205D170BD29
:101B8C0056F8253098470135EEE756F8253098473A
:101B9C000135F2E778270008782700087827000835
:101BAC007C27000810B5431E0A44914200D110BD99
:101BBC0011F8014B03F8014FF7E7000038B5054663
:101BCC00002943D051F8043C0C1F002BB8BFE4187B
:101BDC0000F008F91E4A1368104633B963601460AC
:101BEC002846BDE8384000F0FEB8A3420BD9216866
:101BFC006218934201BF1A685B68521822606360D6
:101C0C000460EDE713465A680AB1A242FAD9196882
:101C1C005818A0420BD12068014458188242196010
:101C2C00DED110685268014419605A60D8E702D9B5
:101C3C000C232B60D4E7206821188A4201BF11685D
:101C4C0052680918216062605C60C9E738BD00BF4A
:101C5C009019002070B5CD1C25F0030508350C2D0E
:101C6C0038BF0C25002D064601DBA94203D90C23F5
:101C7C003360002070BD00F0B5F8214A146821468D
:101C8C0091B9204C23681BB9304600F03DF8206018
:101C9C002946304600F038F8431C24D10C2330463A
:101CAC00336000F0A0F8E4E70B685B1B18D40B2B37
:101CBC000FD90B60CC18CD50304600F094F804F1DD
:101CCC000B00231D20F00700C31AD3D05A42E25058
:101CDC00D0E74B688C4216BF636013600C46EBE791
:101CEC000C464968CCE7C41C24F00304A04205D080
:101CFC00211A304600F008F80130CFD02560DBE720
:101D0C00901900209419002038B50023054C054685
:101D1C000846236000F0A2FB431C02D1236803B1E8
:101D2C002B6038BD5C1A00200EB46FF0004100B57A
:101D3C009CB01DAB0290069007910491084809498C
:101D4C0053F8042B0591006802A9019300F0A6F842
:101D5C000022029B1A701CB05DF804EB03B07047B4
:101D6C00F01500200802FFFFF8B506460F4616F8DE
:101D7C00014B00F017F82044437817F8015B03F08F
:101D8C000303012B08BF203400F00CF828444278E0
:101D9C0002F00302012A08BF2035601B01D1002D7F
:101DAC00E5D1F8BD044B054A1B681B6A002B08BF24
:101DBC001346D3F8EC007047F015002054160020A1
:101DCC0082B001B901A942B14BB113780B60127802
:101DDC00101C18BF012002B070471046FBE76FF0D3
:101DEC000100F8E7704770472DE9F0478E6882468E
:101DFC009E420C469046994637D88A8912F4906FC9
:101E0C0031D00223256809696F1A656905EB450510
:101E1C0095FBF3F509F101033B449D4238BF1D4688
:101E2C00530530D52946FFF715FF064650B90C234C
:101E3C004FF0FF30CAF80030A38943F04003A38170
:101E4C00BDE8F0873A462169FFF7ACFEA38923F47D
:101E5C00906343F08003A38126613E4426604E4686
:101E6C006561ED1BA5604E4500D94E463246414694
:101E7C00206800F0ACFAA36800209B1BA3602368C9
:101E8C001E442660DCE72A4600F0BAFA0646002813
:101E9C00E2D121695046FFF791FEC8E72DE9F04FDA
:101EAC009DB003938B8980461D060C4616460FD5B4
:101EBC000B696BB94021FFF7CDFE2060206128B97A
:101ECC000C23C8F800304FF0FF30C7E040236361AB
:101EDC000023099320238DF8293030234FF0010B78
:101EEC008DF82A3037463D4615F8013B0BB1252BB2
:101EFC003ED1B7EB060A0BD053463246214640463C
:101F0C00FFF772FF013000F0A480099B5344099342
:101F1C003B78002B00F09D8000234FF0FF32CDE981
:101F2C000523049307938DF853301A932F460522FB
:101F3C0017F8011B4F4800F03CFA049BD0B9D906A6
:101F4C0044BF20228DF853201A0744BF2B228DF852
:101F5C0053202A782A2A15D02F4600200A25079AC2
:101F6C00394611F8013B303B092B4DD9B8B10FE084
:101F7C002F46B8E73F4A3D46801A0BFA00F018434B
:101F8C000490D3E7039A111D12680391002A01DB18
:101F9C00079204E0524243F00203079204933B7809
:101FAC002E2B0CD17B782A2B33D1039B02371A1D95
:101FBC001B680392002BB8BF4FF0FF3305932E4DD7
:101FCC0003223978284600F0F4F938B14023401B3D
:101FDC0003FA00F0049B013703430493397806227B
:101FEC0026487E1C8DF8281000F0E3F9002838D024
:101FFC00234B13BB039B073323F0070308330393D3
:10200C00099B4B4409936DE705FB023201200F46F7
:10201C00A6E700230A25194601370593384610F820
:10202C00012B303A092A03D9002BC8D00591C6E7F9
:10203C0005FB012101230746F0E703AB0093224681
:10204C00104B04A94046AFF30080B0F1FF3F81462E
:10205C00D6D1A3895B063FF536AF09981DB0BDE814
:10206C00F08F03AB00932246064B04A9404600F0C8
:10207C0081F8EAE742260008482600084C260008AA
:10208C0000000000F51D00082DE9F04791461F46A1
:10209C008A680B6906469342B8BF1346C9F80030EC
:1020AC0091F843200C46DDF8208012B10133C9F8B9
:1020BC0000302368990642BFD9F800300233C9F8C2
:1020CC000030256815F0060507D104F1190AE368FC
:1020DC00D9F800209B1AAB4229DC94F843302268D3
:1020EC00003318BF012392062ED404F14302394663
:1020FC003046C047013021D02368E56803F0060361
:10210C00042B18BF0025D9F800204FF0000908BF98
:10211C00AD1AA368226908BF25EAE5759342C4BFCE
:10212C009B1AED181A344D451AD1002008E00123F2
:10213C00524639463046C047013003D14FF0FF308C
:10214C00BDE8F0870135C2E73020E11881F8430083
:10215C005A1C94F845102244023382F84310C4E709
:10216C000123224639463046C0470130E6D009F1FA
:10217C000109D8E72DE9F04301F1430C0C46097E27
:10218C0085B06E291746064698460C9A00F0B38027
:10219C0022D8632936D00AD8002900F0B9805829F2
:1021AC0000F0838004F1420584F8421032E0642987
:1021BC0001D06929F6D120681368050603F10401E2
:1021CC002AD51B681160002B03DA2D225B4284F8A0
:1021DC0043206F480A2239E0732900F09D8008D80B
:1021EC006F2920D07029DDD1236843F020032360B0
:1021FC0003E0752917D07829D4D17823654884F861
:10220C00453055E0136804F14205191D1B68116037
:10221C0084F8423001238CE01B6810F0400F1160F1
:10222C0018BF1BB2CFE713682568181D106028066D
:10223C0001D51B6802E06806FBD51B886F2914BF0B
:10224C000A2208225248002184F843106568002DA8
:10225C00A560C0F29580216821F004012160002B5B
:10226C003DD1002D40F08E806546082A0BD12368A5
:10227C00DB0708D5236962689A42DEBF302305F874
:10228C00013C05F1FF35ACEB05032361CDF8008073
:10229C003B4603AA21463046FFF7F6FE01304DD1EE
:1022AC004FF0FF3005B0BDE8F083394884F8451095
:1022BC00136821681D1D1B6815600A060BD5CA071B
:1022CC0044BF41F0200121601BB9226822F020029A
:1022DC0022601022B7E74D0648BF9BB2EFE7654678
:1022EC00B3FBF2F102FB1133C35C05F8013D0B4665
:1022FC000029F5D1B9E713682568181D61691060CC
:10230C0028061B6801D5196002E06A06FBD5198006
:10231C00002365462361B9E71368191D11601D6818
:10232C0062680021284600F044F808B1401B606048
:10233C0063682361002384F84330A7E723692A46A6
:10234C0039463046C0470130AAD023689B0713D4C6
:10235C00E068039B9842B8BF1846A3E701234A469E
:10236C0039463046C04701309AD00135E368039AAC
:10237C009B1AAB42F2DCEBE7002504F11909F5E7F7
:10238C00002BACD1037804F1420584F842306CE7A1
:10239C00532600086426000849B1FF2A8BBF8A2304
:1023AC000A700360012088BF4FF0FF307047084669
:1023BC00704710B5C9B202449042034601D10023C4
:1023CC0003E01C7801308C42F6D1184610BD8842CF
:1023DC0010B501EB020307D8421E99420AD011F83E
:1023EC00014B02F8014FF8E78342F5D98118D21A54
:1023FC00D34200D110BD13F8014D01F8014DF7E7A0
:10240C00F8B5074614460E4621B9BDE8F84011460A
:10241C00FFF720BC22B9FFF7D1FB25462846F8BDB3
:10242C0000F014F8A0420FD221463846FFF712FCF8
:10243C0005460028F2D031462246FFF7B3FB314661
:10244C003846FFF7BBFBE9E73546E7E751F8043CB4
:10245C00181F002BBCBF0B58C0187047044A054905
:10246C001368002B08BF0B461844106018467047C1
:10247C0098190020601A0020F8B500BFF8BC08BC01
:10248C009E467047F8B500BFF8BC08BC9E46704726
:10249C0002030405060708090A0B0C0D0E0F101099
:1024AC000102000000000000000000000102030413
:1024BC0006070809000000000102030470613000E7
:1024CC0070613100706132007061330070613400F2
:1024DC0070613500706136007061370070613800D2
:1024EC007061390070613130000000007061313171
:1024FC00000000007061313200000000706230009A
:10250C0070623100706232007062350070623600A9
:10251C00706237007062380070623900706231305E
:10252C000000000070623131000000007062313236
:10253C000000000070623133000000007062313422
:10254C000000000070623135000000007063313310
:10255C0000000000706331340000000070633135FE
:10256C00000000006F73634F75745044300000001E
:10257C006F73634F75745044310000006A74616767
:10258C00206964636F646500436F72746578204DD5
:10259C003320494420436F6465203A203078255815
:1025AC00200A426F756E64617279205363616E20EC
:1025BC0043656C6C20494420436F6465203A20309D
:1025CC00782558200A0A00002E2E2F5372632F6D87
:1025DC0061696E2E63000000090957656C636F6DAD
:1025EC006520746F204A54414720496E74657266A9
:1025FC0061636520666F722053544D33324631301F
:10260C0033433854362C200A200909092074797078
:10261C0065202768656C702720666F7220656E7167
:10262C0075697279200A0A00504130004300504FFE
:10263C00534958002E00232D302B2000686C4C0081
:10264C0065666745464700303132333435363738A6
:10265C003941424344454600303132333435363704
:10266C0038396162636465660000202020202020D8
:10267C002020202828282828202020202020202026
:10268C002020202020202020202088101010101026
:10269C001010101010101010101004040404040476
:1026AC000404040410101010101010414141414159
:1026BC0041010101010101010101010101010101BE
:1026CC00010101010110101010101042424242424F
:1026DC00420202020202020202020202020202028E
:1026EC000202020202101010102000000000000074
:1026FC0000000000000000000000000000000000CE
:10270C0000000000000000000000000000000000BD
:10271C0000000000000000000000000000000000AD
:10272C00000000000000000000000000000000009D
:10273C00000000000000000000000000000000008D
:10274C00000000000000000000000000000000007D
:10275C00000000000000000000000000000000006D
:0C276C0000000000000000000000000061
:042778003101000823
:04277C000D01000843
:102780000100000010000000BB000000BC000000C1
:10279000BD000000C8240008BB000000B900000014
:1027A000BA000000CC240008B5000000B60000000C
:1027B000B7000000D0240008B2000000B300000001
:1027C000B4000000D4240008AF000000B0000000F6
:1027D000B1000000D8240008AC000000AD000000EB
:1027E000AE000000DC240008A9000000AA000000E0
:1027F000AB000000E0240008A6000000A7000000D5
:10280000A8000000E4240008430000004400000089
:1028100045000000E82400084000000041000000DE
:1028200042000000EC2400083D0000003E000000D3
:102830003F000000F02400083A0000003B000000C8
:102840003C000000F82400083700000038000000B9
:1028500039000000002500089D0000009E000000D7
:102860009F000000082500089A0000009B0000005F
:102870009C0000000C250008970000009800000054
:102880009900000010250008000000000000000072
:102890000000000000000000000000000000000038
:1028A0000000000000000000130000001400000001
:1028B00015000000142500081000000011000000A1
:1028C00012000000182500080D0000000E00000096
:1028D0000F0000001C250008090000000A0000008D
:1028E0000B00000020250008060000000700000083
:1028F0000800000024250008790000007A0000008C
:102900007B0000002825000876000000770000000A
:1029100078000000302500087300000074000000FB
:1029200075000000382500087000000071000000EC
:1029300072000000402500086D0000006E000000DD
:102940006F000000482500087000000071000000C2
:102950007200000050250008D6000000D7000000DB
:10296000D800000058250008D3000000D400000063
:10297000D500000060250008D0000000D100000054
:10298000D200000068250008CD000000CE00000045
:10299000CF00000070250008CA000000CB00000036
:1029A000CC0000007C2500080000000000000000B2
:1029B0000000000000000000000000000000000017
:1029C0000000000000000000000000000000000007
:1029D00000000000000000000000000000000000F7
:1029E00000000000000000000000000000000000E7
:1029F00000000000000000000000000000000000D7
:102A000000000000000000000000000000000000C6
:102A100000000000000000000000000000000000B6
:102A200000000000000000000000000000000000A6
:102A30000000000000000000000000000000000096
:102A40000000000000000000000000000000000086
:102A50000000000000000000000000000000000076
:102A60000000000000000000000000000000000066
:102A70000000000000000000000000000000000056
:102A80000000000000000000000000000000000046
:102A90000000000000000000000000000000000036
:102AA0000000000000000000000000000000000026
:102AB0000000000000000000000000000000000016
:102AC0000000000000000000000000000000000006
:102AD00000000000000000000000000000000000F6
:102AE00000000000000000000000000000000000E6
:102AF00000000000000000000000000000000000D6
:102B000000000000000000000000000000000000C5
:102B100000000000000000000000000000000000B5
:102B200000000000000000000000000000000000A5
:102B30000000000000000000000000000000000095
:102B40000000000000000000000000000000000085
:102B50000000000000000000000000000000000075
:102B60000000000000000000000000000000000065
:102B70000000000000000000000000000000000055
:102B80000000000000000000010000000000000044
:102B90000000000001000000000000000100000033
:102BA0000000000001000000000000000100000023
:102BB0000000000001000000000000000100000013
:102BC0000000000001000000000000000100000003
:102BD00000000000010000000000000001000000F3
:102BE00000000000010000000000000001000000E3
:102BF00000000000010000000000000001000000D3
:102C000000000000010000000100000002000000C0
:102C100000000000010000000100000002000000B0
:102C2000010000000200000001000000020000009E
:102C3000010000000200000001000000020000008E
:102C4000010000000200000001000000020000007E
:102C5000010000000200000001000000020000006E
:102C6000010000000200000001000000020000005E
:102C7000010000000200000001000000020000004E
:102C80000100000002000000010000000900000037
:102C9000010000000900000010000000100000000A
:102CA000000000000300000000000000030000001E
:102CB000000000000300000000000000030000000E
:102CC00000000000030000000000000003000000FE
:102CD00001000000090000000100000009000000E0
:102CE00001000000090000000100000009000000D0
:102CF00001000000090000000100000009000000C0
:102D000001000000090000000100000005000000B3
:102D100001000000050000000100000005000000A7
:102D2000100000001000000000000000040000007F
:102D30000100000005000000010000000500000087
:102D40000100000005000000010000000500000077
:102D50000100000005000000010000000500000067
:102D60000100000005000000010000000500000057
:102D70000100000005000000010000000500000047
:102D80000100000005000000010000000500000037
:102D90000100000005000000010000000500000027
:102DA0000100000005000000000000000400000019
:102DB0000100000005000000010000000500000007
:102DC00001000000050000000100000005000000F7
:102DD00001000000050000000100000005000000E7
:102DE00001000000050000000100000005000000D7
:102DF00001000000050000000100000005000000C7
:102E000001000000050000000100000008000000B3
:102E100001000000080000000100000008000000A0
:102E20000100000008000000000000000600000093
:102E3000100000001000000000000000060000006C
:102E40000000000006000000010000000800000073
:102E50000100000008000000010000000800000060
:102E60000100000008000000010000000800000050
:102E70000100000008000000010000000800000040
:102E80000100000008000000010000000700000031
:102E90000100000007000000010000000700000022
:102EA0000100000007000000010000000700000012
:102EB0000100000007000000000000000600000004
:102EC00001000000070000000100000007000000F2
:102ED00001000000070000000100000007000000E2
:102EE00001000000070000000100000007000000D2
:102EF00001000000070000000100000007000000C2
:102F000001000000070000000100000008000000B0
:102F1000010000000800000001000000080000009F
:102F20000100000008000000000000000400000094
:102F30000000000004000000000000000400000089
:102F40001000000010000000010000000800000058
:102F5000010000000800000001000000080000005F
:102F6000010000000800000001000000080000004F
:102F7000010000000800000001000000080000003F
:102F80000100000008000000010000000200000035
:102F9000000000000100000001000000020000002D
:102FA000010000000200000001000000020000001B
:102FB000010000000200000001000000020000000B
:102FC00001000000020000001000000010000000DE
:102FD00001000000020000000100000002000000EB
:102FE00001000000020000000100000002000000DB
:102FF00001000000020000000100000002000000CB
:1030000001000000020000000100000000000000BC
:1030100001000000000000000100000000000000AE
:10302000010000000000000001000000000000009E
:10303000010000000000000001000000000000008E
:10304000010000000000000001000000000000007E
:103050001000000010000000000000000A00000046
:10306000000000000A000000000000000A0000004C
:10307000000000000A000000000000000A0000003C
:10308000000000000A000000010000000500000030
:103090000100000005000000010000000500000024
:1030A0000100000005000000010000000500000014
:1030B000010000000C000000010000000C000000F6
:1030C000010000000C000000010000000C000000E6
:1030D000010000000C0000001000000010000000C3
:1030E000000000000B000000010000000C000000C8
:1030F000010000000C000000010000000C000000B6
:10310000010000000C000000010000000C000000A5
:10311000010000000C000000010000000C00000095
:10312000010000000C000000010000000C00000085
:10313000010000000C000000010000000C00000075
:10314000010000000C000000010000000C00000065
:10315000010000000C000000010000000C00000055
:10316000000000000B000000010000000C00000047
:10317000010000000C000000010000000C00000035
:10318000010000000C000000010000000F00000022
:10319000010000000F000000010000000F0000000F
:1031A000010000000F000000010000000F000000FF
:1031B000010000000F000000010000000F000000EF
:1031C000010000000F000000010000000F000000DF
:1031D000010000000F000000010000000F000000CF
:1031E000010000000F000000010000000F000000BF
:1031F000000000000D000000000000000D000000B5
:10320000010000000F000000010000000E0000009F
:10321000010000000E000000010000000E00000090
:10322000010000000E000000010000000E00000080
:10323000010000000E000000010000000E00000070
:10324000010000000E000000010000000E00000060
:10325000010000000E000000010000000E00000050
:10326000010000000E000000010000000E00000040
:10327000000000000D000000010000000E00000032
:10328000010000000E000000010000000F0000001F
:10329000010000000F000000010000000F0000000E
:1032A000010000000F000000010000000F000000FE
:1032B000010000000F000000010000000F000000EE
:1032C000010000000F000000010000000F000000DE
:1032D000010000000F000000010000000F000000CE
:1032E000000000000B000000000000000B000000C8
:1032F000000000000B000000010000000F000000B3
:10330000010000000F0000000100000002000000AA
:1033100000000000010000000100000002000000A9
:103320000100000002000000010000000200000097
:103330000100000002000000010000000200000087
:103340000100000002000000010000000200000077
:103350000100000002000000010000000200000067
:103360000100000002000000010000000200000057
:103370000100000002000000010000000200000047
:103380001000000010000000000100010102020313
:1033900009030405040405050608060607070408D2
:1033A000080102090A000A0B0C0B0B0C0C0D0F0D87
:1033B0000D0E0E0B0F0F01020001000101020203AE
:1033C00009030405040405050608060607070408A2
:1033D000080102090A000A0B0C0B0B0C0C0D0F0D57
:1033E0000D0E0E0B0F0F010204000000370000004D
:1033F00038000000390000004000000041000000DB
:103400004200000001000000000000000000000079
:1034100001000000000000000100000000000000AA
:10342000010000000000000001000000000000009A
:10343000010000000000000001000000000000008A
:10344000010000000000000001000000000000007A
:10345000010000000000000001000000000000006A
:10346000010000000000000001000000000000005A
:10347000010000000000000001000000000000004A
:103480000100000001000000020000000000000038
:103490000100000001000000020000000100000027
:1034A0000200000001000000020000000100000016
:1034B0000200000001000000020000000100000006
:1034C00002000000010000000200000001000000F6
:1034D00002000000010000000200000001000000E6
:1034E00002000000010000000200000001000000D6
:1034F00002000000010000000200000001000000C6
:1035000002000000010000000900000001000000AE
:103510000900000010000000100000000000000082
:103520000300000000000000030000000000000095
:103530000300000000000000030000000000000085
:103540000300000000000000030000000100000074
:103550000900000001000000090000000100000057
:103560000900000001000000090000000100000047
:103570000900000001000000090000000100000037
:10358000090000000100000005000000010000002B
:103590000500000001000000050000001000000010
:1035A0001000000000000000040000000100000006
:1035B00005000000010000000500000001000000FF
:1035C00005000000010000000500000001000000EF
:1035D00005000000010000000500000001000000DF
:1035E00005000000010000000500000001000000CF
:1035F00005000000010000000500000001000000BF
:1036000005000000010000000500000001000000AE
:10361000050000000100000005000000010000009E
:103620000500000000000000040000000100000090
:10363000050000000100000005000000010000007E
:10364000050000000100000005000000010000006E
:10365000050000000100000005000000010000005E
:10366000050000000100000005000000010000004E
:10367000050000000100000005000000010000003E
:10368000050000000100000008000000010000002B
:103690000800000001000000080000000100000018
:1036A00008000000000000000600000010000000FC
:1036B00010000000000000000600000000000000F4
:1036C00006000000010000000800000001000000EA
:1036D00008000000010000000800000001000000D8
:1036E00008000000010000000800000001000000C8
:1036F00008000000010000000800000001000000B8
:1037000008000000010000000700000001000000A8
:103710000700000001000000070000000100000099
:103720000700000001000000070000000100000089
:10373000070000000000000006000000010000007B
:103740000700000001000000070000000100000069
:103750000700000001000000070000000100000059
:103760000700000001000000070000000100000049
:103770000700000001000000070000000100000039
:103780000700000001000000080000000100000028
:103790000800000001000000080000000100000017
:1037A000080000000000000004000000000000000D
:1037B00004000000000000000400000010000000F1
:1037C00010000000010000000800000001000000DF
:1037D00008000000010000000800000001000000D7
:1037E00008000000010000000800000001000000C7
:1037F00008000000010000000800000001000000B7
:1038000008000000010000000200000000000000AD
:1038100001000000010000000200000001000000A3
:103820000200000001000000020000000100000092
:103830000200000001000000020000000100000082
:103840000200000010000000100000000100000055
:103850000200000001000000020000000100000062
:103860000200000001000000020000000100000052
:103870000200000001000000020000000100000042
:103880000200000001000000000000000100000034
:103890000000000001000000000000000100000026
:1038A0000000000001000000000000000100000016
:1038B0000000000001000000000000000100000006
:1038C00000000000010000000000000010000000E7
:1038D00010000000000000000A00000000000000CE
:1038E0000A000000000000000A00000000000000C4
:1038F0000A000000000000000A00000000000000B4
:103900000A000000010000000500000001000000A6
:10391000050000000100000005000000010000009B
:10392000050000000100000005000000010000008B
:103930000C000000010000000C000000010000006D
:103940000C000000010000000C000000010000005D
:103950000C0000001000000010000000000000003B
:103960000B000000010000000C000000010000003E
:103970000C000000010000000C000000010000002D
:103980000C000000010000000C000000010000001D
:103990000C000000010000000C000000010000000D
:1039A0000C000000010000000C00000001000000FD
:1039B0000C000000010000000C00000001000000ED
:1039C0000C000000010000000C00000001000000DD
:1039D0000C000000010000000C00000000000000CE
:1039E0000B000000010000000C00000001000000BE
:1039F0000C000000010000000C00000001000000AD
:103A00000C000000010000000F0000000100000099
:103A10000F000000010000000F0000000100000086
:103A20000F000000010000000F0000000100000076
:103A30000F000000010000000F0000000100000066
:103A40000F000000010000000F0000000100000056
:103A50000F000000010000000F0000000100000046
:103A60000F000000010000000F0000000000000037
:103A70000D000000000000000D000000010000002B
:103A80000F000000010000000E0000000100000017
:103A90000E000000010000000E0000000100000008
:103AA0000E000000010000000E00000001000000F8
:103AB0000E000000010000000E00000001000000E8
:103AC0000E000000010000000E00000001000000D8
:103AD0000E000000010000000E00000001000000C8
:103AE0000E000000010000000E00000000000000B9
:103AF0000D000000010000000E00000001000000A9
:103B00000E000000010000000F0000000100000096
:103B10000F000000010000000F0000000100000085
:103B20000F000000010000000F0000000100000075
:103B30000F000000010000000F0000000100000065
:103B40000F000000010000000F0000000100000055
:103B50000F000000010000000F0000000000000046
:103B60000B000000000000000B000000000000003F
:103B70000B000000010000000F0000000100000029
:103B80000F00000001000000020000000000000023
:103B90000100000001000000020000000100000020
:103BA000020000000100000002000000010000000F
:103BB00002000000010000000200000001000000FF
:103BC00002000000010000000200000001000000EF
:103BD00002000000010000000200000001000000DF
:103BE00002000000010000000200000001000000CF
:103BF00002000000010000000200000010000000B0
:103C000010000000CD000000CE000000CF0000003A
:103C1000CA000000CB000000CC000000D60000006D
:103C2000D7000000D8000000D3000000D40000003E
:103C3000D5000000D0000000D1000000D20000003C
:103C40009D0000009E0000009F0000009A00000000
:103C50009B0000009C0000009700000098000000FE
:103C6000990000001300000014000000150000007F
:103C70001000000011000000120000000D00000004
:103C80000E0000000F000000090000000A00000004
:103C90000B00000006000000070000000800000004
:103CA000790000007A0000007B0000007600000030
:103CB000770000007800000073000000740000002E
:103CC000750000007000000071000000720000002C
:103CD0006D0000006E0000006F0000006A00000030
:103CE0006B0000006C000000BB000000BC00000086
:103CF000BD000000B8000000B9000000BA000000DC
:103D0000B5000000B6000000B7000000B2000000DF
:103D1000B3000000B4000000AF000000B0000000DD
:103D2000B1000000AC000000AD000000AE000000DB
:103D3000A9000000AA000000AB000000A6000000DF
:103D4000A7000000A800000043000000440000009D
:103D5000450000003D0000003E0000003F00000064
:103D60003A0000003B0000003C00000000A24A04B2
:103D7000F41500200000000000000000000000001A
:103D80000000000000000000000000000000000033
:103D90000000000000000000000000000000000023
:103DA0000000000000000000000000000000000013
:103DB0000000000000000000000000000000000003
:103DC00000000000000000000000000000000000F3
:103DD00000000000430000000000000000000000A0
:103DE00000000000000000000000000000000000D3
:103DF0000000000043000000000000000000000080
:103E000000000000000000000000000000000000B2
:103E1000000000004300000000000000000000005F
:103E20000000000000000000000000000000000092
:103E3000000000004300000000000000000000003F
:103E40000000000000000000000000000000000072
:103E5000000000004300000000000000000000001F
:103E60000000000000000000000000000000000052
:103E700000000000430000000000000000000000FF
:103E80000000000000000000000000000000000032
:103E900000000000430000000000000000000000DF
:103EA0000000000000000000000000000000000012
:103EB00000000000A5230008CD1D00080000000040
:103EC00075260008402600084726000847260008F7
:103ED000472600084726000847260008472600080E
:103EE000472600084726000847260008FFFFFFFF77
:103EF000FFFFFFFFFFFFFFFFFFFF00000100415337
:103F000043494900000000000000000000000000DC
:103F1000000000000000000000000000000041530D
:103F200043494900000000000000000000000000BC
:103F30000000000000000000000000000000000081
:0400000508001B1DB7
:00000001FF
