:020000040800F2
:1000000000500020CD0F0008650F0008670F0008A2
:10001000690F00086B0F00086D0F0008000000005A
:100020000000000000000000000000006F0F00084A
:10003000710F000800000000730F0008750F000822
:1000400015100008151000081510000815100008FC
:1000500015100008151000081510000815100008EC
:1000600015100008151000081510000815100008DC
:1000700015100008151000081510000815100008CC
:1000800015100008151000081510000815100008BC
:1000900015100008151000081510000815100008AC
:1000A000151000081510000815100008151000089C
:1000B000151000081510000815100008151000088C
:1000C000151000081510000815100008151000087C
:1000D000151000081510000815100008151000086C
:1000E0001510000815100008151000080000000089
:1000F0000000000000000000000000000000000000
:0C01000000000000000000005FF808F1A3
:10010C0010B5054C237833B9044B13B10448AFF345
:10011C0000800123237010BD3C1000200000000063
:10012C006010000808B5034B1BB103490348AFF33B
:10013C00008008BD00000000401000206010000886
:10014C0010B504460E4B18784FF47A73B3FBF0F3EA
:10015C000C4A1068B0FBF3F000F094F868B90F2C5F
:10016C0001D901200AE0002221464FF0FF3000F0B7
:10017C0055F8034B5C60002000E0012010BD00BF6F
:10018C00000000203810002008B5074A136843F01F
:10019C0010031360032000F02FF80020FFF7D0FFAE
:1001AC0000F08AFE002008BD00200240034A1168BE
:1001BC00034B1B780B441360704700BF6810002082
:1001CC0000000020014B1868704700BF6810002029
:1001DC0038B50446FFF7F6FF0546B4F1FF3F02D0F1
:1001EC00044B1B781C44FFF7EDFF401BA042FAD3D5
:1001FC0038BD00BF00000020074AD36823F4E06339
:10020C001B041B0C000200F4E060184340F0BF60BC
:10021C0040F40030D060704700ED00E030B4174B74
:10022C00DB68C3F30223C3F10704042C28BF0424A6
:10023C001D1D062D18D9033B4FF0FF3505FA04F4AC
:10024C0021EA0401994005FA03F322EA0303194356
:10025C0000280BDB0901C9B200F1604000F56140D8
:10026C0080F8001330BC70470023E5E700F00F0066
:10027C000901C9B2024B1954F4E700BF00ED00E0CC
:10028C0014ED00E00138B0F1807F0AD2064B5860C3
:10029C00064AF02182F823100020986007221A6089
:1002AC0070470120704700BF10E000E000ED00E057
:1002BC00042805D0054A136823F004031360704723
:1002CC00024A136843F004031360704710E000E027
:1002DC00704708B5FFF7FCFF08BD0000F0B482B012
:1002EC0000263546A1E0002C59D0012C00D1CE6857
:1002FC00FF2B68D88446FF2B68D8AC00DCF80020B4
:10030C000F27A74022EA070206FA04F42243CCF88E
:10031C0000204A6812F0805F00F086805E4A946983
:10032C0044F001049461926902F001020192019A75
:10033C00AC08A71C594A52F8272005F00307BF0048
:10034C004FF00F0C0CFA07FC22EA0C0C544A9042AA
:10035C0042D002F5806290427FD002F580629042DA
:10036C007DD002F58062904234D0042235E04D4FAE
:10037C00BC4214D00BD94C4FBC4210D007F580377F
:10038C00BC420CD0A7F58017BC42B1D107E0A7F551
:10039C008017BC4203D007F58037BC42A8D18C68CB
:1003AC007CB1012C08D042610826A1E7CE68083642
:1003BC009EE7CE680C369BE70261082698E700267C
:1003CC0096E7042694E700F1040C94E7A5F10804E1
:1003DC00A40093E7032200E00022BA4042EA0C0298
:1003EC0002342E4F47F824204A6812F4803F38D04C
:1003FC002E4C22681A4322604A6812F4003F36D011
:10040C002A4C62681A4362604A6812F4801F34D026
:10041C00264CA2681A43A2604A6812F4001F32D01C
:10042C00224CE2681343E36001350F2D31D80122D1
:10043C00AA400B6813409A42F6D14C68122CB8D0E3
:10044C0095D8022CB2D07FF64EAF032CB7D0112C1E
:10045C007FF44EAFCE6804364AE70122BDE7022294
:10046C00BBE7124C226822EA03022260C4E70F4C5D
:10047C00626822EA03026260C6E70C4CA26822EAB8
:10048C000302A260C8E7094CE26822EA0303E360B6
:10049C00CAE702B0F0BC70470010024000000140F7
:1004AC000008014000002110000031100004014040
:1004BC008368194201D1002070470120704712B99E
:1004CC0009040161704701617047000082B0084B5C
:1004DC001B68084AA2FB03235B0A00FB03F0019094
:1004EC0000BF019B5A1E0192002BF9D102B070473C
:1004FC0038100020D34D621070B582B004460368EA
:10050C0013F0010F2CD0AB4B5B6803F00C03042BE6
:10051C001DD0A84B5B6803F00C03082B12D063684A
:10052C00B3F5803F41D0002B55D103F1804303F547
:10053C0004331A6822F480321A601A6822F480227A
:10054C001A6037E09B4B5B6813F4803FE7D0994B04
:10055C001B6813F4003F03D06368002B00F0AE81DE
:10056C00236813F0020F76D0924B5B6813F00C0FDC
:10057C005FD0904B5B6803F00C03082B54D02369BD
:10058C00002B00F08A808C4B01221A60FFF71AFEB8
:10059C000546884B1B6813F0020F75D1FFF712FE4E
:1005AC00401B0228F5D903208BE1824A136843F4DF
:1005BC0080331360636843B3FFF704FE05467D4B3D
:1005CC001B6813F4003FCBD1FFF7FCFD401B6428E4
:1005DC00F5D9032075E1B3F5A02F09D0754B1A6836
:1005EC0022F480321A601A6822F480221A60E1E741
:1005FC0003F18043A3F53C331A6842F480221A605D
:10060C001A6842F480321A60D4E7FFF7DBFD054626
:10061C00684B1B6813F4003FA2D0FFF7D3FD401BBF
:10062C006428F5D903204CE1624B5B6813F4803FDE
:10063C00A5D1604B1B6813F0020F04D02369012B6A
:10064C0001D001203DE15B4A136823F0F803616996
:10065C0043EAC1031360236813F0080F32D0A36977
:10066C00002B5BD0554B01221A60FFF7ABFD054602
:10067C00504B5B6A13F0020F21D1FFF7A3FD401B17
:10068C000228F5D903201CE14A4A136823F0F80329
:10069C00616943EAC1031360DDE7474B00221A602E
:1006AC00FFF790FD0546434B1B6813F0020FD2D0A9
:1006BC00FFF788FD401B0228F5D9032001E101203A
:1006CC00FFF704FF236813F0040F00F09780394BF9
:1006DC00DB6913F0805F33D1364BDA6942F080521C
:1006EC00DA61DB6903F080530193019B0125344BE4
:1006FC001B6813F4807F25D0E368012B36D0002BC8
:10070C004CD103F1804303F504331A6A22F0010241
:10071C001A621A6A22F004021A622CE0274B002299
:10072C001A60FFF74FFD0546224B5B6A13F0020F70
:10073C00C8D0FFF747FD401B0228F5D90320C0E0C5
:10074C000025D4E71E4A136843F480731360FFF747
:10075C0039FD06461A4B1B6813F4807FCCD1FFF78A
:10076C0031FD801B6428F5D90320AAE0114A136AD5
:10077C0043F001031362E36873B3FFF723FD0646EE
:10078C000C4B1B6A13F0020F37D1FFF71BFD801BBC
:10079C0041F288339842F3D9032092E0052B11D013
:1007AC00044B1A6A22F001021A621A6A22F004023D
:1007BC001A62E0E70010024000004242800442420C
:1007CC0000700040414B1A6A42F004021A621A6A25
:1007DC0042F001021A62CEE7FFF7F4FC06463B4BEF
:1007EC001B6A13F0020F08D0FFF7ECFC801B41F2E0
:1007FC0088339842F3D9032063E0E5B9E369002B11
:10080C005ED0324A526802F00C02082A5BD0022BEE
:10081C0017D02F4B00221A60FFF7D4FC04462B4B49
:10082C001B6813F0007F47D0FFF7CCFC001B02289D
:10083C00F5D9032045E0254AD36923F08053D361D1
:10084C00DCE7234B00221A60FFF7BCFC05461F4B6C
:10085C001B6813F0007F06D0FFF7B4FC401B022886
:10086C00F5D903202DE0236AB3F5803F1AD0174940
:10087C004B6823F47413226A606A024313434B607F
:10088C00134B01221A60FFF79DFC04460F4B1B68AB
:10089C0013F0007F0ED1FFF795FC001B0228F5D951
:1008AC0003200EE0094A536823F40033A1680B437C
:1008BC005360DCE7002004E0002002E0012000E0AF
:1008CC00002002B070BD0120FBE700BF0010024009
:1008DC006000424210B487B0164C94E80F000DF142
:1008EC00180C0CE90F00238AADF80430124B5B682E
:1008FC0003F00C02082A1AD1C3F38342624412F8A3
:10090C00102C13F4803F05D10C4800FB02F007B00B
:10091C0010BC7047084B5B68C3F34043634413F847
:10092C00143C074800FB02F0B0FBF3F0EFE704487F
:10093C00EDE700BF781000080010024000093D00F0
:10094C0000127A00594B1B6803F007038B420CD240
:10095C00564A136823F007030B431360136803F024
:10096C0007038B4201D00120704770B5036813F068
:10097C00020F06D04E4A536823F0F00384682343D9
:10098C0053600C460546036813F0010F52D04368C0
:10099C00012B23D0022B28D0454A126812F0020FEB
:1009AC0000F0828042494A6822F0030213434B60F4
:1009BC00FFF708FC06466B68012B1DD0022B2AD0D2
:1009CC003B4B5B6813F00C0F34D0FFF7FBFB801B29
:1009DC0041F288339842F3D9032064E0344A126818
:1009EC0012F4003FDED101205DE0314A126812F0B2
:1009FC00007FD7D1012056E02D4B5B6803F00C0330
:100A0C00042B17D0FFF7DEFB801B41F28833984292
:100A1C00F2D9032047E0264B5B6803F00C03082B4C
:100A2C0008D0FFF7CFFB801B41F288339842F2D9F4
:100A3C00032038E01D4B1B6803F00703A3420CD9BD
:100A4C001A4A136823F0070323431360136803F057
:100A5C000703A34201D0012025E02B6813F0040FFB
:100A6C0006D0134A536823F4E063E9680B435360E0
:100A7C002B6813F0080F07D00D4A536823F460530A
:100A8C00296943EAC1035360FFF724FF084B5B68F5
:100A9C00C3F30313074AD35CD840074B18600020FC
:100AAC00FFF74EFB002070BD0120FCE70020024048
:100ABC00001002408C10000838100020014B186800
:100ACC00704700BF3810002001EB0011014B53F8A8
:100ADC00310070470800002070B588B0224B9A692D
:100AEC0042F020029A619A6902F020020192019A66
:100AFC009A6942F008029A619A6902F0080202921D
:100B0C00029A9A6942F004029A619B6903F0040309
:100B1C000393039B154D00224FF4B0512846FFF769
:100B2C00CEFC4FF400430493002305930124069458
:100B3C0004A90F48FFF7D2FB4FF4007304930594FC
:100B4C0002260696079604A92846FFF7C7FB4FF422
:100B5C00A053049305940694079604A92846FFF71E
:100B6C00BDFB08B070BD00BF001002400008014082
:100B7C00000C014008B5C2B24FF400710148FFF7F8
:100B8C009EFC08BD0008014008B5C2B24FF480516C
:100B9C000148FFF794FC08BD0008014008B5C2B23B
:100BAC004FF480610148FFF78AFC08BD0008014042
:100BBC0008B54FF400410248FFF77AFC08BD00BFAE
:100BCC00000C014008B50020FFF7D4FF3220FFF7DE
:100BDC00FFFA0120FFF7CEFF3220FFF7F9FA08BD2C
:100BEC0010B500240FE00120FFF7D8FFFFF7EAFF54
:100BFC00064B1A68012101FA02F059680143596049
:100C0C0001321A600134042CEDDD10BD58100020A7
:100C1C0070B504460D4616E029462046FFF754FFF2
:100C2C000646FFF7BBFFFFF7CDFF084B1A6896404F
:100C3C0059683143596001321A6005EB0414044BB6
:100C4C0003EBC4042479AC42E6D170BD58100020EB
:100C5C0038080020D0B506460F46144609E006F0C9
:100C6C000100FFF79BFFFFF7ADFF013C7F084FEA48
:100C7C003606002CF3DCD0BD08B532224FF0FF3025
:100C8C000549FFF7E7FF10224EF23C700021FFF7F9
:100C9C00E1FFFFF7A5FF08BDFFFF030010B5FFF74D
:100CAC0073FF0A20FFF794FA0120FFF763FF32204D
:100CBC00FFF78EFA0020FFF75DFFFFF779FF044680
:100CCC003220FFF785FA204610BD00002DE9F047D1
:100CDC0004460D469246002600274FF0000923E0FB
:100CEC0004F001080020FFF759FF4046FFF7D6FF3C
:100CFC00234B1A6800FA02FC996841EA0C019960CE
:100D0C0000FA09F0064347EAE07708FA02F8D968D6
:100D1C0041EA0801D96001321A606D084FEA3404C7
:100D2C0009F101090AF1FF3ABAF1010FD8DC04F01C
:100D3C0001040120FFF732FF0A20FFF749FA204691
:100D4C00FFF7ACFF0E4B1A6800FA02F599682943BD
:100D5C00996000FA09F09440D9680C43DC600121D9
:100D6C0001FA02F459682143596001321A6046EACB
:100D7C00000347EAE07418462146BDE8F08700BF3F
:100D8C005810002038B504460D46FFF729FF0B21FB
:100D9C000020FFF73DFF2A462046E117FFF796FF9C
:100DAC0001210C20FFF734FF38BD70B504460D4609
:100DBC00164604210120FFF72BFF32462046294618
:100DCC00FFF784FF04460D4601210520FFF720FFA5
:100DDC002046294670BD70B506460D461446114690
:100DEC0040F2FF10FFF7CEFF02223046F117FFF75B
:100DFC00DCFF22462846E917FFF7D7FF70BDFEE758
:100E0C0000B591B0012206924FF4803307934FF452
:100E1C00003108910A9202220D920E934FF4301376
:100E2C000F9306A8FFF768FB08BB0F230193022161
:100E3C000291002303934FF480620492059301A85E
:100E4C00FFF780FDC0B9FFF739FE0E4BA3FB003056
:100E5C008009FFF717FA0420FFF72AFA002211463F
:100E6C004FF0FF30FFF7DAF911B05DF804FB40F2F8
:100E7C00DB110548FFF7C3FF40F2E9110248FFF709
:100E8C00BEFF00BFD34D6210A410000800B583B0A4
:100E9C0000220023CDE90023FFF776F9FFF7B0FF1E
:100EAC00FFF71AFEFFF7E8FE092271210320FFF776
:100EBC0092FFCDE90001F7E700B583B0244B9A69A6
:100ECC0042F001029A619A6902F001020092009AC2
:100EDC00DA6942F08052DA61DB6903F080530193E6
:100EEC00019B0320FFF788F9002211466FF00B00DD
:100EFC00FFF794F9002211466FF00A00FFF78EF904
:100F0C00002211466FF00900FFF788F90022114604
:100F1C006FF00400FFF782F9002211466FF0030016
:100F2C00FFF77CF9002211466FF00100FFF776F90C
:100F3C00002211464FF0FF30FFF770F9054A536855
:100F4C0023F0E06343F00073536003B05DF804FBDF
:100F5C0000100240000001407047FEE7FEE7FEE78C
:100F6C00FEE770477047704708B5FFF71FF9FFF7AA
:100F7C00B0F908BD0F4B1A6842F001021A605968AB
:100F8C000D4A0A405A601A6822F0847222F48032A8
:100F9C001A601A6822F480221A605A6822F4FE023F
:100FAC005A604FF41F029A60044B4FF000629A6033
:100FBC00704700BF001002400000FFF800ED00E099
:100FCC00002103E00B4B5B58435004310A480B4B98
:100FDC0042189A42F6D30A4A02E0002342F8043B34
:100FEC00084B9A42F9D3FFF7C5FF00F00FF8FFF753
:100FFC004DFF7047BC100008000000203C10002082
:10100C003C1000206C100020FEE7000070B500259D
:10101C000C4E0D4CA41BA410A54209D100F01AF8DB
:10102C0000250A4E0A4CA41BA410A54205D170BD84
:10103C0056F8253098470135EEE756F82530984795
:10104C000135F2E7B4100008B4100008B410000821
:10105C00B8100008F8B500BFF8BC08BC9E46704735
:0C106C00F8B500BFF8BC08BC9E467047F9
:1010780002030405060708090A0B0C0D0E0F1010D1
:10108800010200000000000000000000010203044B
:101098000607080900000000010203042E2E2F5342
:0C10A80072632F6D61696E2E6300000002
:0410B40031010008FE
:0410B8000D0100081E
:1010BC000100000010000000010000000000000012
:1010CC000000000001000000000000000100000012
:1010DC000000000001000000000000000100000002
:1010EC0000000000010000000000000001000000F2
:1010FC0000000000010000000000000001000000E2
:10110C0000000000010000000000000001000000D1
:10111C0000000000010000000000000001000000C1
:10112C0000000000010000000000000001000000B1
:10113C00000000000100000001000000020000009F
:10114C00000000000100000001000000020000008F
:10115C00010000000200000001000000020000007D
:10116C00010000000200000001000000020000006D
:10117C00010000000200000001000000020000005D
:10118C00010000000200000001000000020000004D
:10119C00010000000200000001000000020000003D
:1011AC00010000000200000001000000020000002D
:1011BC000100000002000000010000000900000016
:1011CC0001000000090000001000000010000000E9
:1011DC0000000000030000000000000003000000FD
:1011EC0000000000030000000000000003000000ED
:1011FC0000000000030000000000000003000000DD
:10120C0001000000090000000100000009000000BE
:10121C0001000000090000000100000009000000AE
:10122C00010000000900000001000000090000009E
:10123C000100000009000000010000000500000092
:10124C000100000005000000010000000500000086
:10125C00100000001000000000000000040000005E
:10126C000100000005000000010000000500000066
:10127C000100000005000000010000000500000056
:10128C000100000005000000010000000500000046
:10129C000100000005000000010000000500000036
:1012AC000100000005000000010000000500000026
:1012BC000100000005000000010000000500000016
:1012CC000100000005000000010000000500000006
:1012DC0001000000050000000000000004000000F8
:1012EC0001000000050000000100000005000000E6
:1012FC0001000000050000000100000005000000D6
:10130C0001000000050000000100000005000000C5
:10131C0001000000050000000100000005000000B5
:10132C0001000000050000000100000005000000A5
:10133C000100000005000000010000000800000092
:10134C00010000000800000001000000080000007F
:10135C000100000008000000000000000600000072
:10136C00100000001000000000000000060000004B
:10137C000000000006000000010000000800000052
:10138C00010000000800000001000000080000003F
:10139C00010000000800000001000000080000002F
:1013AC00010000000800000001000000080000001F
:1013BC000100000008000000010000000700000010
:1013CC000100000007000000010000000700000001
:1013DC0001000000070000000100000007000000F1
:1013EC0001000000070000000000000006000000E3
:1013FC0001000000070000000100000007000000D1
:10140C0001000000070000000100000007000000C0
:10141C0001000000070000000100000007000000B0
:10142C0001000000070000000100000007000000A0
:10143C00010000000700000001000000080000008F
:10144C00010000000800000001000000080000007E
:10145C000100000008000000000000000400000073
:10146C000000000004000000000000000400000068
:10147C001000000010000000010000000800000037
:10148C00010000000800000001000000080000003E
:10149C00010000000800000001000000080000002E
:1014AC00010000000800000001000000080000001E
:1014BC000100000008000000010000000200000014
:1014CC00000000000100000001000000020000000C
:1014DC0001000000020000000100000002000000FA
:1014EC0001000000020000000100000002000000EA
:1014FC0001000000020000001000000010000000BD
:10150C0001000000020000000100000002000000C9
:10151C0001000000020000000100000002000000B9
:10152C0001000000020000000100000002000000A9
:10153C00010000000200000001000000000000009B
:10154C00010000000000000001000000000000008D
:10155C00010000000000000001000000000000007D
:10156C00010000000000000001000000000000006D
:10157C00010000000000000001000000000000005D
:10158C001000000010000000000000000A00000025
:10159C00000000000A000000000000000A0000002B
:1015AC00000000000A000000000000000A0000001B
:1015BC00000000000A00000001000000050000000F
:1015CC000100000005000000010000000500000003
:1015DC0001000000050000000100000005000000F3
:1015EC00010000000C000000010000000C000000D5
:1015FC00010000000C000000010000000C000000C5
:10160C00010000000C0000001000000010000000A1
:10161C00000000000B000000010000000C000000A6
:10162C00010000000C000000010000000C00000094
:10163C00010000000C000000010000000C00000084
:10164C00010000000C000000010000000C00000074
:10165C00010000000C000000010000000C00000064
:10166C00010000000C000000010000000C00000054
:10167C00010000000C000000010000000C00000044
:10168C00010000000C000000010000000C00000034
:10169C00000000000B000000010000000C00000026
:1016AC00010000000C000000010000000C00000014
:1016BC00010000000C000000010000000F00000001
:1016CC00010000000F000000010000000F000000EE
:1016DC00010000000F000000010000000F000000DE
:1016EC00010000000F000000010000000F000000CE
:1016FC00010000000F000000010000000F000000BE
:10170C00010000000F000000010000000F000000AD
:10171C00010000000F000000010000000F0000009D
:10172C00000000000D000000000000000D00000093
:10173C00010000000F000000010000000E0000007E
:10174C00010000000E000000010000000E0000006F
:10175C00010000000E000000010000000E0000005F
:10176C00010000000E000000010000000E0000004F
:10177C00010000000E000000010000000E0000003F
:10178C00010000000E000000010000000E0000002F
:10179C00010000000E000000010000000E0000001F
:1017AC00000000000D000000010000000E00000011
:1017BC00010000000E000000010000000F000000FE
:1017CC00010000000F000000010000000F000000ED
:1017DC00010000000F000000010000000F000000DD
:1017EC00010000000F000000010000000F000000CD
:1017FC00010000000F000000010000000F000000BD
:10180C00010000000F000000010000000F000000AC
:10181C00000000000B000000000000000B000000A6
:10182C00000000000B000000010000000F00000091
:10183C00010000000F000000010000000200000089
:10184C000000000001000000010000000200000088
:10185C000100000002000000010000000200000076
:10186C000100000002000000010000000200000066
:10187C000100000002000000010000000200000056
:10188C000100000002000000010000000200000046
:10189C000100000002000000010000000200000036
:1018AC000100000002000000010000000200000026
:1018BC0010000000100000000001000101020203F2
:1018CC0009030405040405050608060607070408B1
:1018DC00080102090A000A0B0C0B0B0C0C0D0F0D66
:1018EC000D0E0E0B0F0F0102010000000000000096
:1018FC0000000000010000000000000001000000DA
:10190C0000000000010000000000000001000000C9
:10191C0000000000010000000000000001000000B9
:10192C0000000000010000000000000001000000A9
:10193C000000000001000000000000000100000099
:10194C000000000001000000000000000100000089
:10195C000000000001000000000000000100000079
:10196C000000000001000000010000000200000067
:10197C000000000001000000010000000200000057
:10198C000100000002000000010000000200000045
:10199C000100000002000000010000000200000035
:1019AC000100000002000000010000000200000025
:1019BC000100000002000000010000000200000015
:1019CC000100000002000000010000000200000005
:1019DC0001000000020000000100000002000000F5
:1019EC0001000000020000000100000009000000DE
:1019FC0001000000090000001000000010000000B1
:101A0C0000000000030000000000000003000000C4
:101A1C0000000000030000000000000003000000B4
:101A2C0000000000030000000000000003000000A4
:101A3C000100000009000000010000000900000086
:101A4C000100000009000000010000000900000076
:101A5C000100000009000000010000000900000066
:101A6C00010000000900000001000000050000005A
:101A7C00010000000500000001000000050000004E
:101A8C001000000010000000000000000400000026
:101A9C00010000000500000001000000050000002E
:101AAC00010000000500000001000000050000001E
:101ABC00010000000500000001000000050000000E
:101ACC0001000000050000000100000005000000FE
:101ADC0001000000050000000100000005000000EE
:101AEC0001000000050000000100000005000000DE
:101AFC0001000000050000000100000005000000CE
:101B0C0001000000050000000000000004000000BF
:101B1C0001000000050000000100000005000000AD
:101B2C00010000000500000001000000050000009D
:101B3C00010000000500000001000000050000008D
:101B4C00010000000500000001000000050000007D
:101B5C00010000000500000001000000050000006D
:101B6C00010000000500000001000000080000005A
:101B7C000100000008000000010000000800000047
:101B8C00010000000800000000000000060000003A
:101B9C001000000010000000000000000600000013
:101BAC00000000000600000001000000080000001A
:101BBC000100000008000000010000000800000007
:101BCC0001000000080000000100000008000000F7
:101BDC0001000000080000000100000008000000E7
:101BEC0001000000080000000100000007000000D8
:101BFC0001000000070000000100000007000000C9
:101C0C0001000000070000000100000007000000B8
:101C1C0001000000070000000000000006000000AA
:101C2C000100000007000000010000000700000098
:101C3C000100000007000000010000000700000088
:101C4C000100000007000000010000000700000078
:101C5C000100000007000000010000000700000068
:101C6C000100000007000000010000000800000057
:101C7C000100000008000000010000000800000046
:101C8C00010000000800000000000000040000003B
:101C9C000000000004000000000000000400000030
:101CAC0010000000100000000100000008000000FF
:101CBC000100000008000000010000000800000006
:101CCC0001000000080000000100000008000000F6
:101CDC0001000000080000000100000008000000E6
:101CEC0001000000080000000100000002000000DC
:101CFC0000000000010000000100000002000000D4
:101D0C0001000000020000000100000002000000C1
:101D1C0001000000020000000100000002000000B1
:101D2C000100000002000000100000001000000084
:101D3C000100000002000000010000000200000091
:101D4C000100000002000000010000000200000081
:101D5C000100000002000000010000000200000071
:101D6C000100000002000000010000000000000063
:101D7C000100000000000000010000000000000055
:101D8C000100000000000000010000000000000045
:101D9C000100000000000000010000000000000035
:101DAC000100000000000000010000000000000025
:101DBC001000000010000000000000000A000000ED
:101DCC00000000000A000000000000000A000000F3
:101DDC00000000000A000000000000000A000000E3
:101DEC00000000000A0000000100000005000000D7
:101DFC0001000000050000000100000005000000CB
:101E0C0001000000050000000100000005000000BA
:101E1C00010000000C000000010000000C0000009C
:101E2C00010000000C000000010000000C0000008C
:101E3C00010000000C000000100000001000000069
:101E4C00000000000B000000010000000C0000006E
:101E5C00010000000C000000010000000C0000005C
:101E6C00010000000C000000010000000C0000004C
:101E7C00010000000C000000010000000C0000003C
:101E8C00010000000C000000010000000C0000002C
:101E9C00010000000C000000010000000C0000001C
:101EAC00010000000C000000010000000C0000000C
:101EBC00010000000C000000010000000C000000FC
:101ECC00000000000B000000010000000C000000EE
:101EDC00010000000C000000010000000C000000DC
:101EEC00010000000C000000010000000F000000C9
:101EFC00010000000F000000010000000F000000B6
:101F0C00010000000F000000010000000F000000A5
:101F1C00010000000F000000010000000F00000095
:101F2C00010000000F000000010000000F00000085
:101F3C00010000000F000000010000000F00000075
:101F4C00010000000F000000010000000F00000065
:101F5C00000000000D000000000000000D0000005B
:101F6C00010000000F000000010000000E00000046
:101F7C00010000000E000000010000000E00000037
:101F8C00010000000E000000010000000E00000027
:101F9C00010000000E000000010000000E00000017
:101FAC00010000000E000000010000000E00000007
:101FBC00010000000E000000010000000E000000F7
:101FCC00010000000E000000010000000E000000E7
:101FDC00000000000D000000010000000E000000D9
:101FEC00010000000E000000010000000F000000C6
:101FFC00010000000F000000010000000F000000B5
:10200C00010000000F000000010000000F000000A4
:10201C00010000000F000000010000000F00000094
:10202C00010000000F000000010000000F00000084
:10203C00010000000F000000010000000F00000074
:10204C00000000000B000000000000000B0000006E
:10205C00000000000B000000010000000F00000059
:10206C00010000000F000000010000000200000051
:10207C000000000001000000010000000200000050
:10208C00010000000200000001000000020000003E
:10209C00010000000200000001000000020000002E
:1020AC00010000000200000001000000020000001E
:1020BC00010000000200000001000000020000000E
:1020CC0001000000020000000100000002000000FE
:1020DC0001000000020000000100000002000000EE
:0C20EC00100000001000000000A24A04D8
:0400000508000FCD13
:00000001FF
