:020000040800F2
:1000000000500020C51300085D1300085F130008AE
:100010006113000863130008651300080000000066
:10002000000000000000000000000000671300084E
:1000300069130008000000006B1300086D1300082E
:100040000D1400080D1400080D1400080D1400080C
:100050000D1400080D1400080D1400080D140008FC
:100060000D1400080D1400080D1400080D140008EC
:100070000D1400080D1400080D1400080D140008DC
:100080000D1400080D1400080D1400080D140008CC
:100090000D1400080D1400080D1400080D140008BC
:1000A0000D1400080D1400080D1400080D140008AC
:1000B0000D1400080D1400080D1400080D1400089C
:1000C0000D1400080D1400080D1400080D1400088C
:1000D0000D1400080D1400080D1400080D1400087C
:1000E0000D1400080D1400080D1400080000000095
:1000F0000000000000000000000000000000000000
:0C01000000000000000000005FF808F1A3
:10010C0010B5054C237833B9044B13B10448AFF345
:10011C0000800123237010BDF011002000000000AE
:10012C005814000808B5034B1BB103490348AFF33F
:10013C00008008BD00000000F411002058140008D5
:10014C0010B504460E4B18784FF47A73B3FBF0F3EA
:10015C000C4A1068B0FBF3F000F080F868B90F2C73
:10016C0001D901200AE0002221464FF0FF3000F0B7
:10017C0041F8034B5C60002000E0012010BD00BF83
:10018C0000000020EC11002008B5074A136843F06A
:10019C0010031360032000F01BF80020FFF7D0FFC2
:1001AC0001F086F8002008BD00200240034A1168C7
:1001BC00034B1B780B441360704700BF30120020B8
:1001CC0000000020014B1868704700BF301200205F
:1001DC00074AD36823F4E0631B041B0C000200F4F1
:1001EC00E060184340F0BF6040F40030D0607047CE
:1001FC0000ED00E030B4174BDB68C3F30223C3F10E
:10020C000704042C28BF04241D1D062D18D9033BFC
:10021C004FF0FF3505FA04F421EA0401994005FA80
:10022C0003F322EA0303194300280BDB0901C9B2CB
:10023C0000F1604000F5614080F8001330BC70475D
:10024C000023E5E700F00F000901C9B2024B195475
:10025C00F4E700BF00ED00E014ED00E00138B0F170
:10026C00807F0AD2064B5860064AF02182F8231090
:10027C000020986007221A6070470120704700BF69
:10028C0010E000E000ED00E0042805D0054A1368FA
:10029C0023F0040313607047024A136843F004030D
:1002AC001360704710E000E0704708B5FFF7FCFFE3
:1002BC0008BD0000F0B482B000263546A1E0002C49
:1002CC0059D0012C00D1CE68FF2B68D88446FF2B67
:1002DC0068D8AC00DCF800200F27A74022EA070200
:1002EC0006FA04F42243CCF800204A6812F0805F2E
:1002FC0000F086805E4A946944F00104946192692E
:10030C0002F001020192019AAC08A71C594A52F85A
:10031C00272005F00307BF004FF00F0C0CFA07FC69
:10032C0022EA0C0C544A904242D002F58062904270
:10033C007FD002F5806290427DD002F580629042BF
:10034C0034D0042235E04D4FBC4214D00BD94C4F65
:10035C00BC4210D007F58037BC420CD0A7F58017F3
:10036C00BC42B1D107E0A7F58017BC4203D007F51A
:10037C008037BC42A8D18C687CB1012C08D042617A
:10038C000826A1E7CE6808369EE7CE680C369BE7B8
:10039C000261082698E7002696E7042694E700F108
:1003AC00040C94E7A5F10804A40093E7032200E0F1
:1003BC000022BA4042EA0C0202342E4F47F82420A5
:1003CC004A6812F4803F38D02E4C22681A432260BF
:1003DC004A6812F4003F36D02A4C62681A436260B5
:1003EC004A6812F4801F34D0264CA2681A43A260CB
:1003FC004A6812F4001F32D0224CE2681343E360C7
:10040C0001350F2D31D80122AA400B6813409A42B6
:10041C00F6D14C68122CB8D095D8022CB2D07FF6FD
:10042C004EAF032CB7D0112C7FF44EAFCE680436F0
:10043C004AE70122BDE70222BBE7124C226822EAFE
:10044C0003022260C4E70F4C626822EA0302626076
:10045C00C6E70C4CA26822EA0302A260C8E7094C6A
:10046C00E26822EA0303E360CAE702B0F0BC70471B
:10047C000010024000000140000801400000211063
:10048C0000003110000401408368194201D10020A2
:10049C0070470120704712B909040161704701616E
:1004AC007047000082B0084B1B68084AA2FB03236C
:1004BC005B0A00FB03F0019000BF019B5A1E0192E6
:1004CC00002BF9D102B07047EC110020D34D621013
:1004DC0070B582B00446036813F0010F2CD0AB4BFF
:1004EC005B6803F00C03042B1DD0A84B5B6803F076
:1004FC000C03082B12D06368B3F5803F41D0002B5E
:10050C0055D103F1804303F504331A6822F4803289
:10051C001A601A6822F480221A6037E09B4B5B68E1
:10052C0013F4803FE7D0994B1B6813F4003F03D0C2
:10053C006368002B00F0AE81236813F0020F76D0B5
:10054C00924B5B6813F00C0F5FD0904B5B6803F021
:10055C000C03082B54D02369002B00F08A808C4BA1
:10056C0001221A60FFF72EFE0546884B1B6813F01C
:10057C00020F75D1FFF726FE401B0228F5D9032088
:10058C008BE1824A136843F480331360636843B38E
:10059C00FFF718FE05467D4B1B6813F4003FCBD1CB
:1005AC00FFF710FE401B6428F5D9032075E1B3F565
:1005BC00A02F09D0754B1A6822F480321A601A6881
:1005CC0022F480221A60E1E703F18043A3F53C3367
:1005DC001A6842F480221A601A6842F480321A6057
:1005EC00D4E7FFF7EFFD0546684B1B6813F4003F9B
:1005FC00A2D0FFF7E7FD401B6428F5D903204CE19E
:10060C00624B5B6813F4803FA5D1604B1B6813F001
:10061C00020F04D02369012B01D001203DE15B4A7C
:10062C00136823F0F803616943EAC103136023687C
:10063C0013F0080F32D0A369002B5BD0554B01226D
:10064C001A60FFF7BFFD0546504B5B6A13F0020FB3
:10065C0021D1FFF7B7FD401B0228F5D903201CE17F
:10066C004A4A136823F0F803616943EAC103136033
:10067C00DDE7474B00221A60FFF7A4FD0546434B0C
:10068C001B6813F0020FD2D0FFF79CFD401B022811
:10069C00F5D9032001E10120FFF704FF236813F0D3
:1006AC00040F00F09780394BDB6913F0805F33D176
:1006BC00364BDA6942F08052DA61DB6903F0805321
:1006CC000193019B0125344B1B6813F4807F25D0CB
:1006DC00E368012B36D0002B4CD103F1804303F59A
:1006EC0004331A6A22F001021A621A6A22F0040216
:1006FC001A622CE0274B00221A60FFF763FD0546B7
:10070C00224B5B6A13F0020FC8D0FFF75BFD401B56
:10071C000228F5D90320C0E00025D4E71E4A13684F
:10072C0043F480731360FFF74DFD06461A4B1B68AC
:10073C0013F4807FCCD1FFF745FD801B6428F5D9DD
:10074C000320AAE0114A136A43F001031362E36821
:10075C0073B3FFF737FD06460C4B1B6A13F0020F01
:10076C0037D1FFF72FFD801B41F288339842F3D924
:10077C00032092E0052B11D0044B1A6A22F00102DF
:10078C001A621A6A22F004021A62E0E700100240B0
:10079C00000042428004424200700040414B1A6A01
:1007AC0042F004021A621A6A42F001021A62CEE79F
:1007BC00FFF708FD06463B4B1B6A13F0020F08D0EF
:1007CC00FFF700FD801B41F288339842F3D90320D8
:1007DC0063E0E5B9E369002B5ED0324A526802F05F
:1007EC000C02082A5BD0022B17D02F4B00221A6068
:1007FC00FFF7E8FC04462B4B1B6813F0007F47D037
:10080C00FFF7E0FC001B0228F5D9032045E0254A40
:10081C00D36923F08053D361DCE7234B00221A60A9
:10082C00FFF7D0FC05461F4B1B6813F0007F06D06A
:10083C00FFF7C8FC401B0228F5D903202DE0236AE2
:10084C00B3F5803F1AD017494B6823F47413226A0E
:10085C00606A024313434B60134B01221A60FFF78B
:10086C00B1FC04460F4B1B6813F0007F0ED1FFF751
:10087C00A9FC001B0228F5D903200EE0094A536895
:10088C0023F40033A1680B435360DCE7002004E041
:10089C00002002E0012000E0002002B070BD012029
:1008AC00FBE700BF001002406000424210B487B06A
:1008BC00164C94E80F000DF1180C0CE90F00238A6C
:1008CC00ADF80430124B5B6803F00C02082A1AD105
:1008DC00C3F38342624412F8102C13F4803F05D109
:1008EC000C4800FB02F007B010BC7047084B5B686B
:1008FC00C3F34043634413F8143C074800FB02F075
:10090C00B0FBF3F0EFE70448EDE700BF701400080C
:10091C000010024000093D0000127A00594B1B6880
:10092C0003F007038B420CD2564A136823F00703DB
:10093C000B431360136803F007038B4201D00120B3
:10094C00704770B5036813F0020F06D04E4A536817
:10095C0023F0F0038468234353600C460546036878
:10096C0013F0010F52D04368012B23D0022B28D057
:10097C00454A126812F0020F00F0828042494A6820
:10098C0022F0030213434B60FFF71CFC06466B6816
:10099C00012B1DD0022B2AD03B4B5B6813F00C0FA4
:1009AC0034D0FFF70FFC801B41F288339842F3D907
:1009BC00032064E0344A126812F4003FDED10120B7
:1009CC005DE0314A126812F0007FD7D1012056E069
:1009DC002D4B5B6803F00C03042B17D0FFF7F2FBD5
:1009EC00801B41F288339842F2D9032047E0264B12
:1009FC005B6803F00C03082B08D0FFF7E3FB801BAC
:100A0C0041F288339842F2D9032038E01D4B1B6821
:100A1C0003F00703A3420CD91A4A136823F0070307
:100A2C0023431360136803F00703A34201D0012092
:100A3C0025E02B6813F0040F06D0134A536823F4F7
:100A4C00E063E9680B4353602B6813F0080F07D081
:100A5C000D4A536823F46053296943EAC103536078
:100A6C00FFF724FF084B5B68C3F30313074AD35CFF
:100A7C00D840074B18600020FFF762FB002070BDC8
:100A8C000120FCE700200240001002408414000802
:100A9C00EC110020014B1868704700BFEC110020CE
:100AAC0001EB0011014B53F8310070470800002096
:100ABC0030B589B01D4B9A6942F020029A619A694F
:100ACC0002F020020192019A9A6942F008029A619E
:100ADC009A6902F008020292029A9A6942F00402A0
:100AEC009A619B6903F004030393039B104D00224E
:100AFC004FF4B0512846FFF7CEFC4FF4004304935B
:100B0C0000240594069404A90A48FFF7D3FB4FF47C
:100B1C00B05304930123059306940223079304A96D
:100B2C002846FFF7C7FB09B030BD00BF00100240DC
:100B3C0000080140000C0140012907D021B900EB4D
:100B4C004000054B184443781846704700EB4000B2
:100B5C00014B18448378F7E73808002010B50A4C8D
:100B6C0000224FF400712046FFF795FC00224FF451
:100B7C0080612046FFF78FFC00224FF48051204605
:100B8C00FFF789FC10BD00BF0008014070B5054699
:100B9C000E460F4C00224FF400712046FFF77BFCF1
:100BAC00F2B24FF480612046FFF775FCEAB24FF4C5
:100BBC0080512046FFF76FFC01224FF40071204654
:100BCC00FFF769FC4FF400410248FFF75DFC70BD74
:100BDC0000080140000C014038B500240AE0012156
:100BEC000020FFF7D3FF054D01212878FFF7A4FF64
:100BFC0028700134042CF2DD38BD00BF1012002027
:100C0C0070B50E460DE03146FFF74AFF054601462A
:100C1C000020FFF7BBFF054C29462078FFF78CFF1F
:100C2C002070024B1878B042EDD170BD101200202C
:100C3C00D0B506460F46144608E006F00101002028
:100C4C00FFF7A4FF013C7F084FEA3606002CF4DCCA
:100C5C00D0BD000008B532224FF0FF300549FFF738
:100C6C00E7FF10224EF23C700021FFF7E1FFFFF787
:100C7C00B3FF08BDFFFF03002DE9F04F85B092468E
:100C8C0000220023CDE90023002680468946D34666
:100C9C002EE0002108F00100FFF778FF074602461E
:100CAC00C317CDE90223DFF89CA000219AF80000BD
:100CBC00FFF742FF8AF80000A6F12002C6F12003DC
:100CCC00039901FA06F507FA02F2154327FA03F322
:100CDC001D4307FA06F4DDE9002322432B43CDE93B
:100CEC0000235FEA59094FEA380801360BF1FF3B44
:100CFC00BBF1010FCDDC012108EA0100FFF746FF33
:100D0C000746C517DFF83C80012198F80000FFF773
:100D1C0013FF88F80000A6F12002C6F1200305FAA3
:100D2C0006F107FA02F2114327FA03F3194307FA03
:100D3C0006F0DDE9003403430C431846214605B0A8
:100D4C00BDE8F08F1012002038B504460D460B217B
:100D5C001046FFF755FF2A462046E117FFF78CFF98
:100D6C0001210C20FFF74CFF38BD70B504460D4631
:100D7C00164604210120FFF743FF32462046294640
:100D8C00FFF77AFF04460D4601210520FFF738FFD7
:100D9C002046294670BD38B514461D460122FFF782
:100DAC00D3FF2A462046E117FFF7DFFF38BD38B5E1
:100DBC0014461D460122FFF7C7FF2A462046E117BD
:100DCC00FFF7D3FF38BD38B504460D46FFF704FFD7
:100DDC0004210020FFF714FF2A462046E117FFF7F5
:100DEC004BFF04460D4601210520FFF709FF204665
:100DFC00294638BD002304E0C11800228A77C2546A
:100E0C0001331C2BF8DD70472DE9F04F83B0814680
:100E1C008A4600260027CDE9006700210846FFF727
:100E2C00B5FEC117CDE90001002504E0EC1D08E07A
:100E3C0001350AF1FF3ABAF1010F32DD2C46002DD3
:100E4C00F4DBE41009EB040898F81E00002100F014
:100E5C000100FFF79BFEC117CDE90001DFF888B058
:100E6C0000219BF80000FFF767FE8BF80000DDE91E
:100E7C000023B24019F804301343DBB209F80430F4
:100E8C0098F81E305B0888F81E30721C47F100037E
:100E9C0002F00706002756EA0701C9D016461F467E
:100EAC00C6E72C46002D1CDBE41009EB0403987FED
:100EBC0001210840FFF76AFEC117CDE900010A4D78
:100ECC0001212878FFF738FE2870DDE90023B240B5
:100EDC0019F804601643F6B209F8046003B0BDE8D3
:100EEC00F08FEC1DE0E700BF1012002084B00DF174
:100EFC00100C0CE90E00019B1A46002B0EDBD210D5
:100F0C00805CC0B25A4203F0070302F0070258BFDC
:100F1C005342184100F0010004B07047DA1DEEE7AF
:100F2C000B46002905DBDB102AB1012A10D000206A
:100F3C000BE0CB1DF7E7C05CC0B24B4201F00701E0
:100F4C0003F0070358BF5942084100F001007047F5
:100F5C000344987FC0B24B4201F0070103F0070332
:100F6C0058BF59420841F0E710B50446042101204E
:100F7C00FFF746FEE8212046FFF746FF012105203A
:100F8C00FFF73EFE10BD30B585B0054601AC84E8D8
:100F9C000E00012209212F20FFF7D6FE2846FFF76D
:100FAC00E3FF94E80E002846FFF7A0FF05B030BD24
:100FBC0084B00DF1100C0CE90E00039B1A46002BAB
:100FCC0013DB00EBE200827F52B2594203F00703BD
:100FDC0001F0070158BF4B429DF8101001FA03F3C2
:100FEC001343DBB2837704B07047DA1DE9E784B0B2
:100FFC000DF1100C0CE90E00029B1A46002B12DBB3
:10100C0000EBE200827F52B2594203F0070301F079
:10101C00070158BF4B42049901FA03F31343DBB2A7
:10102C00837704B07047DA1DEAE7000030B587B06B
:10103C00054603AC84E80E000A9B009394E80E006E
:10104C00FFF7D5FF0B4B93F83030032B04D0012264
:10105C0009212F20FFF778FE04210120FFF7D0FD96
:10106C00E8212846FFF7D0FE01210520FFF7C8FD37
:10107C0007B030BD38080020014B83F830007047B2
:10108C003808002010B586B003AC84E80E00089B2D
:10109C00009394E80E00FFF7C9FF074B93F830302C
:1010AC00032B07D0012209210F20FFF74DFE03204F
:1010BC00FFF7E2FF06B010BD38080020FEE7000085
:1010CC0000B591B0012206924FF4803307934FF490
:1010DC00003108910A9202220D920E934FF43013B4
:1010EC000F9306A8FFF7F4F908BB0F230193022115
:1010FC000291002303934FF480620492059301A89C
:10110C00FFF70CFCC0B9FFF7C5FC0E4BA3FB00307E
:10111C008009FFF7A3F80420FFF7B6F80022114668
:10112C004FF0FF30FFF766F811B05DF804FB40F2AA
:10113C00D5210548FFF7C2FF40F2E3210248FFF733
:10114C00BDFF00BFD34D62109C14000880B584B065
:10115C0000220023CDE90223FFF716F8FFF7B0FFBA
:10116C00FFF7A6FCFFF776FDFFF7F8FC0A237122C8
:10117C00092140F2FF10FFF70EFECDE90201002419
:10118C000025CDE90245474E4023324609211E2059
:10119C00FFF70DFECDE90201CDE9024540213046B5
:1011AC00FFF711FECDE90201CDE9024540234FF0D6
:1011BC00FF3209211F20FFF7FAFDCDE90201DDE91D
:1011CC0002235B084FEA3202CDE90223CDE9024546
:1011DC0040234FF0FF3209214FF4FF70FFF7E7FD7A
:1011EC00CDE90201CDE902452F4D2846FFF702FE5D
:1011FC002E4C0127009704F1340696E80E00284681
:10120C00FFF7D6FE96E80E002846FFF7BCFEC11786
:10121C00CDE90201009796E80E002846FFF7E7FE9D
:10122C003A46A16B2846FFF77BFEC117CDE90201B8
:10123C0000260096403494E80E002846FFF7B8FECE
:10124C00009794E80E002846FFF71CFF009694E8E0
:10125C000E002846FFF716FF009794E80E0028466C
:10126C00FFF710FF009794E80E002846FFF70AFFDF
:10127C00009794E80E002846FFF704FF009694E8C8
:10128C000E002846FFF7FEFE009694E80E00284656
:10129C00FFF7F8FE009694E80E002846FFF7F2FEE2
:1012AC0064E700BFCDAB34123412002038080020A4
:1012BC0000B583B0244B9A6942F001029A619A6995
:1012CC0002F001020092009ADA6942F08052DA616F
:1012DC00DB6903F080530193019B0320FEF778FF39
:1012EC00002211466FF00B00FEF784FF002211461E
:1012FC006FF00A00FEF77EFF002211466FF0090026
:10130C00FEF778FF002211466FF00400FEF772FF23
:10131C00002211466FF00300FEF76CFF002211460D
:10132C006FF00100FEF766FF002211464FF0FF3010
:10133C00FEF760FF054A536823F0E06343F0007347
:10134C00536003B05DF804FB001002400000014044
:10135C007047FEE7FEE7FEE7FEE770477047704711
:10136C0008B5FEF723FFFEF7A0FF08BD0F4B1A6868
:10137C0042F001021A6059680D4A0A405A601A6814
:10138C0022F0847222F480321A601A6822F48022CD
:10139C001A605A6822F4FE025A604FF41F029A60D7
:1013AC00044B4FF000629A60704700BF001002407F
:1013BC000000FFF800ED00E0002103E00B4B5B5850
:1013CC00435004310A480B4B42189A42F6D30A4A4E
:1013DC0002E0002342F8043B084B9A42F9D3FFF792
:1013EC00C5FF00F00FF8FFF7B1FE7047B41400080A
:1013FC0000000020F0110020F011002070120020DD
:10140C00FEE7000070B500250C4E0D4CA41BA4107B
:10141C00A54209D100F01AF800250A4E0A4CA41B6B
:10142C00A410A54205D170BD56F82530984701355A
:10143C00EEE756F8253098470135F2E7AC14000872
:10144C00AC140008AC140008B0140008F8B500BFC8
:10145C00F8BC08BC9E467047F8B500BFF8BC08BC89
:04146C009E467047E1
:1014700002030405060708090A0B0C0D0E0F1010D5
:10148000010200000000000000000000010203044F
:101490000607080900000000010203042E2E2F5346
:0C14A00072632F6D61696E2E6300000006
:0414AC003101000802
:0414B0000D01000822
:1014B4000100000010000000010000000000000016
:1014C4000000000001000000000000000100000016
:1014D4000000000001000000000000000100000006
:1014E40000000000010000000000000001000000F6
:1014F40000000000010000000000000001000000E6
:1015040000000000010000000000000001000000D5
:1015140000000000010000000000000001000000C5
:1015240000000000010000000000000001000000B5
:1015340000000000010000000100000002000000A3
:101544000000000001000000010000000200000093
:101554000100000002000000010000000200000081
:101564000100000002000000010000000200000071
:101574000100000002000000010000000200000061
:101584000100000002000000010000000200000051
:101594000100000002000000010000000200000041
:1015A4000100000002000000010000000200000031
:1015B400010000000200000001000000090000001A
:1015C40001000000090000001000000010000000ED
:1015D4000000000003000000000000000300000001
:1015E40000000000030000000000000003000000F1
:1015F40000000000030000000000000003000000E1
:1016040001000000090000000100000009000000C2
:1016140001000000090000000100000009000000B2
:1016240001000000090000000100000009000000A2
:101634000100000009000000010000000500000096
:10164400010000000500000001000000050000008A
:101654001000000010000000000000000400000062
:10166400010000000500000001000000050000006A
:10167400010000000500000001000000050000005A
:10168400010000000500000001000000050000004A
:10169400010000000500000001000000050000003A
:1016A400010000000500000001000000050000002A
:1016B400010000000500000001000000050000001A
:1016C400010000000500000001000000050000000A
:1016D40001000000050000000000000004000000FC
:1016E40001000000050000000100000005000000EA
:1016F40001000000050000000100000005000000DA
:1017040001000000050000000100000005000000C9
:1017140001000000050000000100000005000000B9
:1017240001000000050000000100000005000000A9
:101734000100000005000000010000000800000096
:101744000100000008000000010000000800000083
:101754000100000008000000000000000600000076
:10176400100000001000000000000000060000004F
:101774000000000006000000010000000800000056
:101784000100000008000000010000000800000043
:101794000100000008000000010000000800000033
:1017A4000100000008000000010000000800000023
:1017B4000100000008000000010000000700000014
:1017C4000100000007000000010000000700000005
:1017D40001000000070000000100000007000000F5
:1017E40001000000070000000000000006000000E7
:1017F40001000000070000000100000007000000D5
:1018040001000000070000000100000007000000C4
:1018140001000000070000000100000007000000B4
:1018240001000000070000000100000007000000A4
:101834000100000007000000010000000800000093
:101844000100000008000000010000000800000082
:101854000100000008000000000000000400000077
:10186400000000000400000000000000040000006C
:10187400100000001000000001000000080000003B
:101884000100000008000000010000000800000042
:101894000100000008000000010000000800000032
:1018A4000100000008000000010000000800000022
:1018B4000100000008000000010000000200000018
:1018C4000000000001000000010000000200000010
:1018D40001000000020000000100000002000000FE
:1018E40001000000020000000100000002000000EE
:1018F40001000000020000001000000010000000C1
:1019040001000000020000000100000002000000CD
:1019140001000000020000000100000002000000BD
:1019240001000000020000000100000002000000AD
:10193400010000000200000001000000000000009F
:101944000100000000000000010000000000000091
:101954000100000000000000010000000000000081
:101964000100000000000000010000000000000071
:101974000100000000000000010000000000000061
:101984001000000010000000000000000A00000029
:10199400000000000A000000000000000A0000002F
:1019A400000000000A000000000000000A0000001F
:1019B400000000000A000000010000000500000013
:1019C4000100000005000000010000000500000007
:1019D40001000000050000000100000005000000F7
:1019E400010000000C000000010000000C000000D9
:1019F400010000000C000000010000000C000000C9
:101A0400010000000C0000001000000010000000A5
:101A1400000000000B000000010000000C000000AA
:101A2400010000000C000000010000000C00000098
:101A3400010000000C000000010000000C00000088
:101A4400010000000C000000010000000C00000078
:101A5400010000000C000000010000000C00000068
:101A6400010000000C000000010000000C00000058
:101A7400010000000C000000010000000C00000048
:101A8400010000000C000000010000000C00000038
:101A9400000000000B000000010000000C0000002A
:101AA400010000000C000000010000000C00000018
:101AB400010000000C000000010000000F00000005
:101AC400010000000F000000010000000F000000F2
:101AD400010000000F000000010000000F000000E2
:101AE400010000000F000000010000000F000000D2
:101AF400010000000F000000010000000F000000C2
:101B0400010000000F000000010000000F000000B1
:101B1400010000000F000000010000000F000000A1
:101B2400000000000D000000000000000D00000097
:101B3400010000000F000000010000000E00000082
:101B4400010000000E000000010000000E00000073
:101B5400010000000E000000010000000E00000063
:101B6400010000000E000000010000000E00000053
:101B7400010000000E000000010000000E00000043
:101B8400010000000E000000010000000E00000033
:101B9400010000000E000000010000000E00000023
:101BA400000000000D000000010000000E00000015
:101BB400010000000E000000010000000F00000002
:101BC400010000000F000000010000000F000000F1
:101BD400010000000F000000010000000F000000E1
:101BE400010000000F000000010000000F000000D1
:101BF400010000000F000000010000000F000000C1
:101C0400010000000F000000010000000F000000B0
:101C1400000000000B000000000000000B000000AA
:101C2400000000000B000000010000000F00000095
:101C3400010000000F00000001000000020000008D
:101C4400000000000100000001000000020000008C
:101C5400010000000200000001000000020000007A
:101C6400010000000200000001000000020000006A
:101C7400010000000200000001000000020000005A
:101C8400010000000200000001000000020000004A
:101C9400010000000200000001000000020000003A
:101CA400010000000200000001000000020000002A
:101CB40010000000100000000001000101020203F6
:101CC40009030405040405050608060607070408B5
:101CD400080102090A000A0B0C0B0B0C0C0D0F0D6A
:101CE4000D0E0E0B0F0F0102000100010102020391
:101CF4000903040504040505060806060707040885
:101D0400080102090A000A0B0C0B0B0C0C0D0F0D39
:101D14000D0E0E0B0F0F010204000000370000002F
:101D240038000000390000004000000041000000BD
:101D3400420000000100000000000000000000005C
:101D4400010000000000000001000000000000008D
:101D5400010000000000000001000000000000007D
:101D6400010000000000000001000000000000006D
:101D7400010000000000000001000000000000005D
:101D8400010000000000000001000000000000004D
:101D9400010000000000000001000000000000003D
:101DA400010000000000000001000000000000002D
:101DB400010000000100000002000000000000001B
:101DC400010000000100000002000000010000000A
:101DD40002000000010000000200000001000000F9
:101DE40002000000010000000200000001000000E9
:101DF40002000000010000000200000001000000D9
:101E040002000000010000000200000001000000C8
:101E140002000000010000000200000001000000B8
:101E240002000000010000000200000001000000A8
:101E34000200000001000000090000000100000091
:101E44000900000010000000100000000000000065
:101E54000300000000000000030000000000000078
:101E64000300000000000000030000000000000068
:101E74000300000000000000030000000100000057
:101E8400090000000100000009000000010000003A
:101E9400090000000100000009000000010000002A
:101EA400090000000100000009000000010000001A
:101EB400090000000100000005000000010000000E
:101EC40005000000010000000500000010000000F3
:101ED40010000000000000000400000001000000E9
:101EE40005000000010000000500000001000000E2
:101EF40005000000010000000500000001000000D2
:101F040005000000010000000500000001000000C1
:101F140005000000010000000500000001000000B1
:101F240005000000010000000500000001000000A1
:101F34000500000001000000050000000100000091
:101F44000500000001000000050000000100000081
:101F54000500000000000000040000000100000073
:101F64000500000001000000050000000100000061
:101F74000500000001000000050000000100000051
:101F84000500000001000000050000000100000041
:101F94000500000001000000050000000100000031
:101FA4000500000001000000050000000100000021
:101FB400050000000100000008000000010000000E
:101FC40008000000010000000800000001000000FB
:101FD40008000000000000000600000010000000DF
:101FE40010000000000000000600000000000000D7
:101FF40006000000010000000800000001000000CD
:1020040008000000010000000800000001000000BA
:1020140008000000010000000800000001000000AA
:10202400080000000100000008000000010000009A
:10203400080000000100000007000000010000008B
:10204400070000000100000007000000010000007C
:10205400070000000100000007000000010000006C
:10206400070000000000000006000000010000005E
:10207400070000000100000007000000010000004C
:10208400070000000100000007000000010000003C
:10209400070000000100000007000000010000002C
:1020A400070000000100000007000000010000001C
:1020B400070000000100000008000000010000000B
:1020C40008000000010000000800000001000000FA
:1020D40008000000000000000400000000000000F0
:1020E40004000000000000000400000010000000D4
:1020F40010000000010000000800000001000000C2
:1021040008000000010000000800000001000000B9
:1021140008000000010000000800000001000000A9
:102124000800000001000000080000000100000099
:102134000800000001000000020000000000000090
:102144000100000001000000020000000100000086
:102154000200000001000000020000000100000075
:102164000200000001000000020000000100000065
:102174000200000010000000100000000100000038
:102184000200000001000000020000000100000045
:102194000200000001000000020000000100000035
:1021A4000200000001000000020000000100000025
:1021B4000200000001000000000000000100000017
:1021C4000000000001000000000000000100000009
:1021D40000000000010000000000000001000000F9
:1021E40000000000010000000000000001000000E9
:1021F40000000000010000000000000010000000CA
:1022040010000000000000000A00000000000000B0
:102214000A000000000000000A00000000000000A6
:102224000A000000000000000A0000000000000096
:102234000A00000001000000050000000100000089
:10224400050000000100000005000000010000007E
:10225400050000000100000005000000010000006E
:102264000C000000010000000C0000000100000050
:102274000C000000010000000C0000000100000040
:102284000C0000001000000010000000000000001E
:102294000B000000010000000C0000000100000021
:1022A4000C000000010000000C0000000100000010
:1022B4000C000000010000000C0000000100000000
:1022C4000C000000010000000C00000001000000F0
:1022D4000C000000010000000C00000001000000E0
:1022E4000C000000010000000C00000001000000D0
:1022F4000C000000010000000C00000001000000C0
:102304000C000000010000000C00000000000000B0
:102314000B000000010000000C00000001000000A0
:102324000C000000010000000C000000010000008F
:102334000C000000010000000F000000010000007C
:102344000F000000010000000F0000000100000069
:102354000F000000010000000F0000000100000059
:102364000F000000010000000F0000000100000049
:102374000F000000010000000F0000000100000039
:102384000F000000010000000F0000000100000029
:102394000F000000010000000F000000000000001A
:1023A4000D000000000000000D000000010000000E
:1023B4000F000000010000000E00000001000000FA
:1023C4000E000000010000000E00000001000000EB
:1023D4000E000000010000000E00000001000000DB
:1023E4000E000000010000000E00000001000000CB
:1023F4000E000000010000000E00000001000000BB
:102404000E000000010000000E00000001000000AA
:102414000E000000010000000E000000000000009B
:102424000D000000010000000E000000010000008B
:102434000E000000010000000F0000000100000079
:102444000F000000010000000F0000000100000068
:102454000F000000010000000F0000000100000058
:102464000F000000010000000F0000000100000048
:102474000F000000010000000F0000000100000038
:102484000F000000010000000F0000000000000029
:102494000B000000000000000B0000000000000022
:1024A4000B000000010000000F000000010000000C
:1024B4000F00000001000000020000000000000006
:1024C4000100000001000000020000000100000003
:1024D40002000000010000000200000001000000F2
:1024E40002000000010000000200000001000000E2
:1024F40002000000010000000200000001000000D2
:1025040002000000010000000200000001000000C1
:1025140002000000010000000200000001000000B1
:102524000200000001000000020000001000000092
:1025340010000000CD000000CE000000CF0000001D
:10254400CA000000CB000000CC000000D600000050
:10255400D7000000D8000000D3000000D400000021
:10256400D5000000D0000000D1000000D20000001F
:102574009D0000009E0000009F0000009A000000E3
:102584009B0000009C0000009700000098000000E1
:102594009900000013000000140000001500000062
:1025A4001000000011000000120000000D000000E7
:1025B4000E0000000F000000090000000A000000E7
:1025C4000B000000060000000700000008000000E7
:1025D400790000007A0000007B0000007600000013
:1025E4007700000078000000730000007400000011
:1025F400750000007000000071000000720000000F
:102604006D0000006E0000006F0000006A00000012
:102614006B0000006C000000BB000000BC00000068
:10262400BD000000B8000000B9000000BA000000BE
:10263400B5000000B6000000B7000000B2000000C2
:10264400B3000000B4000000AF000000B0000000C0
:10265400B1000000AC000000AD000000AE000000BE
:10266400A9000000AA000000AB000000A6000000C2
:10267400A7000000A8000000430000004400000080
:10268400450000003D0000003E0000003F00000047
:102694003A0000003B0000003C00000000A24A0495
:04000005080013C517
:00000001FF
